{
	"SharedWallet.sol": {
		"SharedWallet": {
			"abi": [
				{
					"anonymous": false,
					"inputs": [
						{
							"indexed": true,
							"internalType": "address",
							"name": "_forWho",
							"type": "address"
						},
						{
							"indexed": true,
							"internalType": "address",
							"name": "_byWhom",
							"type": "address"
						},
						{
							"indexed": false,
							"internalType": "uint256",
							"name": "_oldAmount",
							"type": "uint256"
						},
						{
							"indexed": false,
							"internalType": "uint256",
							"name": "_newAmount",
							"type": "uint256"
						}
					],
					"name": "AllowanceChanged",
					"type": "event"
				},
				{
					"anonymous": false,
					"inputs": [
						{
							"indexed": true,
							"internalType": "address",
							"name": "_from",
							"type": "address"
						},
						{
							"indexed": false,
							"internalType": "uint256",
							"name": "_amount",
							"type": "uint256"
						}
					],
					"name": "MoneyReceived",
					"type": "event"
				},
				{
					"anonymous": false,
					"inputs": [
						{
							"indexed": true,
							"internalType": "address",
							"name": "_beneficiary",
							"type": "address"
						},
						{
							"indexed": false,
							"internalType": "uint256",
							"name": "_amound",
							"type": "uint256"
						}
					],
					"name": "MoneySent",
					"type": "event"
				},
				{
					"anonymous": false,
					"inputs": [
						{
							"indexed": true,
							"internalType": "address",
							"name": "previousOwner",
							"type": "address"
						},
						{
							"indexed": true,
							"internalType": "address",
							"name": "newOwner",
							"type": "address"
						}
					],
					"name": "OwnershipTransferred",
					"type": "event"
				},
				{
					"inputs": [
						{
							"internalType": "address",
							"name": "",
							"type": "address"
						}
					],
					"name": "allowance",
					"outputs": [
						{
							"internalType": "uint256",
							"name": "",
							"type": "uint256"
						}
					],
					"stateMutability": "view",
					"type": "function"
				},
				{
					"inputs": [],
					"name": "owner",
					"outputs": [
						{
							"internalType": "address",
							"name": "",
							"type": "address"
						}
					],
					"stateMutability": "view",
					"type": "function"
				},
				{
					"inputs": [],
					"name": "renounceOwnership",
					"outputs": [],
					"stateMutability": "nonpayable",
					"type": "function"
				},
				{
					"inputs": [
						{
							"internalType": "address",
							"name": "_who",
							"type": "address"
						},
						{
							"internalType": "uint256",
							"name": "_amount",
							"type": "uint256"
						}
					],
					"name": "setAllownace",
					"outputs": [],
					"stateMutability": "nonpayable",
					"type": "function"
				},
				{
					"inputs": [
						{
							"internalType": "address",
							"name": "newOwner",
							"type": "address"
						}
					],
					"name": "transferOwnership",
					"outputs": [],
					"stateMutability": "nonpayable",
					"type": "function"
				},
				{
					"inputs": [
						{
							"internalType": "address payable",
							"name": "_to",
							"type": "address"
						},
						{
							"internalType": "uint256",
							"name": "_amount",
							"type": "uint256"
						}
					],
					"name": "withdrawMoney",
					"outputs": [],
					"stateMutability": "nonpayable",
					"type": "function"
				},
				{
					"stateMutability": "payable",
					"type": "receive"
				}
			],
			"devdoc": {
				"kind": "dev",
				"methods": {
					"owner()": {
						"details": "Returns the address of the current owner."
					},
					"renounceOwnership()": {
						"details": "Leaves the contract without owner. It will not be possible to call `onlyOwner` functions anymore. Can only be called by the current owner. NOTE: Renouncing ownership will leave the contract without an owner, thereby removing any functionality that is only available to the owner."
					},
					"transferOwnership(address)": {
						"details": "Transfers ownership of the contract to a new account (`newOwner`). Can only be called by the current owner."
					}
				},
				"version": 1
			},
			"evm": {
				"assembly": "    /* \"SharedWallet.sol\":1000:1573  contract SharedWallet is Allowance {... */\n  mstore(0x40, 0x80)\n  callvalue\n  dup1\n  iszero\n  tag_1\n  jumpi\n  0x00\n  dup1\n  revert\ntag_1:\n  pop\n    /* \"https://github.com/OpenZeppelin/openzeppelin-contracts/blob/master/contracts/access/Ownable.sol\":936:968  _transferOwnership(_msgSender()) */\n  tag_4\n    /* \"https://github.com/OpenZeppelin/openzeppelin-contracts/blob/master/contracts/access/Ownable.sol\":955:967  _msgSender() */\n  tag_5\n    /* \"https://github.com/OpenZeppelin/openzeppelin-contracts/blob/master/contracts/access/Ownable.sol\":955:965  _msgSender */\n  shl(0x20, tag_6)\n    /* \"https://github.com/OpenZeppelin/openzeppelin-contracts/blob/master/contracts/access/Ownable.sol\":955:967  _msgSender() */\n  0x20\n  shr\n  jump\t// in\ntag_5:\n    /* \"https://github.com/OpenZeppelin/openzeppelin-contracts/blob/master/contracts/access/Ownable.sol\":936:954  _transferOwnership */\n  shl(0x20, tag_7)\n    /* \"https://github.com/OpenZeppelin/openzeppelin-contracts/blob/master/contracts/access/Ownable.sol\":936:968  _transferOwnership(_msgSender()) */\n  0x20\n  shr\n  jump\t// in\ntag_4:\n    /* \"SharedWallet.sol\":1000:1573  contract SharedWallet is Allowance {... */\n  jump(tag_8)\n    /* \"https://github.com/OpenZeppelin/openzeppelin-contracts/blob/master/contracts/utils/Context.sol\":640:736  function _msgSender() internal view virtual returns (address) {... */\ntag_6:\n    /* \"https://github.com/OpenZeppelin/openzeppelin-contracts/blob/master/contracts/utils/Context.sol\":693:700  address */\n  0x00\n    /* \"https://github.com/OpenZeppelin/openzeppelin-contracts/blob/master/contracts/utils/Context.sol\":719:729  msg.sender */\n  caller\n    /* \"https://github.com/OpenZeppelin/openzeppelin-contracts/blob/master/contracts/utils/Context.sol\":712:729  return msg.sender */\n  swap1\n  pop\n    /* \"https://github.com/OpenZeppelin/openzeppelin-contracts/blob/master/contracts/utils/Context.sol\":640:736  function _msgSender() internal view virtual returns (address) {... */\n  swap1\n  jump\t// out\n    /* \"https://github.com/OpenZeppelin/openzeppelin-contracts/blob/master/contracts/access/Ownable.sol\":2433:2620  function _transferOwnership(address newOwner) internal virtual {... */\ntag_7:\n    /* \"https://github.com/OpenZeppelin/openzeppelin-contracts/blob/master/contracts/access/Ownable.sol\":2506:2522  address oldOwner */\n  0x00\n    /* \"https://github.com/OpenZeppelin/openzeppelin-contracts/blob/master/contracts/access/Ownable.sol\":2525:2531  _owner */\n  dup1\n  0x00\n  swap1\n  sload\n  swap1\n  0x0100\n  exp\n  swap1\n  div\n  0xffffffffffffffffffffffffffffffffffffffff\n  and\n    /* \"https://github.com/OpenZeppelin/openzeppelin-contracts/blob/master/contracts/access/Ownable.sol\":2506:2531  address oldOwner = _owner */\n  swap1\n  pop\n    /* \"https://github.com/OpenZeppelin/openzeppelin-contracts/blob/master/contracts/access/Ownable.sol\":2550:2558  newOwner */\n  dup2\n    /* \"https://github.com/OpenZeppelin/openzeppelin-contracts/blob/master/contracts/access/Ownable.sol\":2541:2547  _owner */\n  0x00\n  dup1\n    /* \"https://github.com/OpenZeppelin/openzeppelin-contracts/blob/master/contracts/access/Ownable.sol\":2541:2558  _owner = newOwner */\n  0x0100\n  exp\n  dup2\n  sload\n  dup2\n  0xffffffffffffffffffffffffffffffffffffffff\n  mul\n  not\n  and\n  swap1\n  dup4\n  0xffffffffffffffffffffffffffffffffffffffff\n  and\n  mul\n  or\n  swap1\n  sstore\n  pop\n    /* \"https://github.com/OpenZeppelin/openzeppelin-contracts/blob/master/contracts/access/Ownable.sol\":2604:2612  newOwner */\n  dup2\n    /* \"https://github.com/OpenZeppelin/openzeppelin-contracts/blob/master/contracts/access/Ownable.sol\":2573:2613  OwnershipTransferred(oldOwner, newOwner) */\n  0xffffffffffffffffffffffffffffffffffffffff\n  and\n    /* \"https://github.com/OpenZeppelin/openzeppelin-contracts/blob/master/contracts/access/Ownable.sol\":2594:2602  oldOwner */\n  dup2\n    /* \"https://github.com/OpenZeppelin/openzeppelin-contracts/blob/master/contracts/access/Ownable.sol\":2573:2613  OwnershipTransferred(oldOwner, newOwner) */\n  0xffffffffffffffffffffffffffffffffffffffff\n  and\n  0x8be0079c531659141344cd1fd0a4f28419497f9722a3daafe3b4186f6b6457e0\n  mload(0x40)\n  mload(0x40)\n  dup1\n  swap2\n  sub\n  swap1\n  log3\n    /* \"https://github.com/OpenZeppelin/openzeppelin-contracts/blob/master/contracts/access/Ownable.sol\":2433:2620  function _transferOwnership(address newOwner) internal virtual {... */\n  pop\n  pop\n  jump\t// out\n    /* \"SharedWallet.sol\":1000:1573  contract SharedWallet is Allowance {... */\ntag_8:\n  dataSize(sub_0)\n  dup1\n  dataOffset(sub_0)\n  0x00\n  codecopy\n  0x00\n  return\nstop\n\nsub_0: assembly {\n        /* \"SharedWallet.sol\":1000:1573  contract SharedWallet is Allowance {... */\n      mstore(0x40, 0x80)\n      jumpi(tag_1, lt(calldatasize, 0x04))\n      shr(0xe0, calldataload(0x00))\n      dup1\n      0x3e5beab9\n      eq\n      tag_3\n      jumpi\n      dup1\n      0x715018a6\n      eq\n      tag_4\n      jumpi\n      dup1\n      0x8da5cb5b\n      eq\n      tag_5\n      jumpi\n      dup1\n      0xda8362ef\n      eq\n      tag_6\n      jumpi\n      dup1\n      0xf274c897\n      eq\n      tag_7\n      jumpi\n      dup1\n      0xf2fde38b\n      eq\n      tag_8\n      jumpi\n      jump(tag_2)\n    tag_1:\n      jumpi(tag_2, calldatasize)\n        /* \"SharedWallet.sol\":1542:1552  msg.sender */\n      caller\n        /* \"SharedWallet.sol\":1528:1564  MoneyReceived(msg.sender, msg.value) */\n      0xffffffffffffffffffffffffffffffffffffffff\n      and\n      0x27b15ed4cf832749ed39f33a64e4707ed60a761485e41ffec7343ecaddc0c02a\n        /* \"SharedWallet.sol\":1554:1563  msg.value */\n      callvalue\n        /* \"SharedWallet.sol\":1528:1564  MoneyReceived(msg.sender, msg.value) */\n      mload(0x40)\n      tag_11\n      swap2\n      swap1\n      tag_12\n      jump\t// in\n    tag_11:\n      mload(0x40)\n      dup1\n      swap2\n      sub\n      swap1\n      log2\n        /* \"SharedWallet.sol\":1000:1573  contract SharedWallet is Allowance {... */\n      stop\n    tag_2:\n      0x00\n      dup1\n      revert\n        /* \"SharedWallet.sol\":312:353  mapping(address => uint) public allowance */\n    tag_3:\n      callvalue\n      dup1\n      iszero\n      tag_13\n      jumpi\n      0x00\n      dup1\n      revert\n    tag_13:\n      pop\n      tag_14\n      0x04\n      dup1\n      calldatasize\n      sub\n      dup2\n      add\n      swap1\n      tag_15\n      swap2\n      swap1\n      tag_16\n      jump\t// in\n    tag_15:\n      tag_17\n      jump\t// in\n    tag_14:\n      mload(0x40)\n      tag_18\n      swap2\n      swap1\n      tag_12\n      jump\t// in\n    tag_18:\n      mload(0x40)\n      dup1\n      swap2\n      sub\n      swap1\n      return\n        /* \"https://github.com/OpenZeppelin/openzeppelin-contracts/blob/master/contracts/access/Ownable.sol\":1831:1932  function renounceOwnership() public virtual onlyOwner {... */\n    tag_4:\n      callvalue\n      dup1\n      iszero\n      tag_19\n      jumpi\n      0x00\n      dup1\n      revert\n    tag_19:\n      pop\n      tag_20\n      tag_21\n      jump\t// in\n    tag_20:\n      stop\n        /* \"https://github.com/OpenZeppelin/openzeppelin-contracts/blob/master/contracts/access/Ownable.sol\":1201:1286  function owner() public view virtual returns (address) {... */\n    tag_5:\n      callvalue\n      dup1\n      iszero\n      tag_22\n      jumpi\n      0x00\n      dup1\n      revert\n    tag_22:\n      pop\n      tag_23\n      tag_24\n      jump\t// in\n    tag_23:\n      mload(0x40)\n      tag_25\n      swap2\n      swap1\n      tag_26\n      jump\t// in\n    tag_25:\n      mload(0x40)\n      dup1\n      swap2\n      sub\n      swap1\n      return\n        /* \"SharedWallet.sol\":458:642  function setAllownace(address _who, uint _amount) public onlyOwner {... */\n    tag_6:\n      callvalue\n      dup1\n      iszero\n      tag_27\n      jumpi\n      0x00\n      dup1\n      revert\n    tag_27:\n      pop\n      tag_28\n      0x04\n      dup1\n      calldatasize\n      sub\n      dup2\n      add\n      swap1\n      tag_29\n      swap2\n      swap1\n      tag_30\n      jump\t// in\n    tag_29:\n      tag_31\n      jump\t// in\n    tag_28:\n      stop\n        /* \"SharedWallet.sol\":1170:1480  function withdrawMoney(address payable _to, uint _amount) public ownerOrAllowed(_amount) {... */\n    tag_7:\n      callvalue\n      dup1\n      iszero\n      tag_32\n      jumpi\n      0x00\n      dup1\n      revert\n    tag_32:\n      pop\n      tag_33\n      0x04\n      dup1\n      calldatasize\n      sub\n      dup2\n      add\n      swap1\n      tag_34\n      swap2\n      swap1\n      tag_35\n      jump\t// in\n    tag_34:\n      tag_36\n      jump\t// in\n    tag_33:\n      stop\n        /* \"https://github.com/OpenZeppelin/openzeppelin-contracts/blob/master/contracts/access/Ownable.sol\":2081:2279  function transferOwnership(address newOwner) public virtual onlyOwner {... */\n    tag_8:\n      callvalue\n      dup1\n      iszero\n      tag_37\n      jumpi\n      0x00\n      dup1\n      revert\n    tag_37:\n      pop\n      tag_38\n      0x04\n      dup1\n      calldatasize\n      sub\n      dup2\n      add\n      swap1\n      tag_39\n      swap2\n      swap1\n      tag_16\n      jump\t// in\n    tag_39:\n      tag_40\n      jump\t// in\n    tag_38:\n      stop\n        /* \"SharedWallet.sol\":312:353  mapping(address => uint) public allowance */\n    tag_17:\n      mstore(0x20, 0x01)\n      dup1\n      0x00\n      mstore\n      keccak256(0x00, 0x40)\n      0x00\n      swap2\n      pop\n      swap1\n      pop\n      sload\n      dup2\n      jump\t// out\n        /* \"https://github.com/OpenZeppelin/openzeppelin-contracts/blob/master/contracts/access/Ownable.sol\":1831:1932  function renounceOwnership() public virtual onlyOwner {... */\n    tag_21:\n        /* \"https://github.com/OpenZeppelin/openzeppelin-contracts/blob/master/contracts/access/Ownable.sol\":1094:1107  _checkOwner() */\n      tag_42\n        /* \"https://github.com/OpenZeppelin/openzeppelin-contracts/blob/master/contracts/access/Ownable.sol\":1094:1105  _checkOwner */\n      tag_43\n        /* \"https://github.com/OpenZeppelin/openzeppelin-contracts/blob/master/contracts/access/Ownable.sol\":1094:1107  _checkOwner() */\n      jump\t// in\n    tag_42:\n        /* \"https://github.com/OpenZeppelin/openzeppelin-contracts/blob/master/contracts/access/Ownable.sol\":1895:1925  _transferOwnership(address(0)) */\n      tag_45\n        /* \"https://github.com/OpenZeppelin/openzeppelin-contracts/blob/master/contracts/access/Ownable.sol\":1922:1923  0 */\n      0x00\n        /* \"https://github.com/OpenZeppelin/openzeppelin-contracts/blob/master/contracts/access/Ownable.sol\":1895:1913  _transferOwnership */\n      tag_46\n        /* \"https://github.com/OpenZeppelin/openzeppelin-contracts/blob/master/contracts/access/Ownable.sol\":1895:1925  _transferOwnership(address(0)) */\n      jump\t// in\n    tag_45:\n        /* \"https://github.com/OpenZeppelin/openzeppelin-contracts/blob/master/contracts/access/Ownable.sol\":1831:1932  function renounceOwnership() public virtual onlyOwner {... */\n      jump\t// out\n        /* \"https://github.com/OpenZeppelin/openzeppelin-contracts/blob/master/contracts/access/Ownable.sol\":1201:1286  function owner() public view virtual returns (address) {... */\n    tag_24:\n        /* \"https://github.com/OpenZeppelin/openzeppelin-contracts/blob/master/contracts/access/Ownable.sol\":1247:1254  address */\n      0x00\n        /* \"https://github.com/OpenZeppelin/openzeppelin-contracts/blob/master/contracts/access/Ownable.sol\":1273:1279  _owner */\n      dup1\n      0x00\n      swap1\n      sload\n      swap1\n      0x0100\n      exp\n      swap1\n      div\n      0xffffffffffffffffffffffffffffffffffffffff\n      and\n        /* \"https://github.com/OpenZeppelin/openzeppelin-contracts/blob/master/contracts/access/Ownable.sol\":1266:1279  return _owner */\n      swap1\n      pop\n        /* \"https://github.com/OpenZeppelin/openzeppelin-contracts/blob/master/contracts/access/Ownable.sol\":1201:1286  function owner() public view virtual returns (address) {... */\n      swap1\n      jump\t// out\n        /* \"SharedWallet.sol\":458:642  function setAllownace(address _who, uint _amount) public onlyOwner {... */\n    tag_31:\n        /* \"https://github.com/OpenZeppelin/openzeppelin-contracts/blob/master/contracts/access/Ownable.sol\":1094:1107  _checkOwner() */\n      tag_49\n        /* \"https://github.com/OpenZeppelin/openzeppelin-contracts/blob/master/contracts/access/Ownable.sol\":1094:1105  _checkOwner */\n      tag_43\n        /* \"https://github.com/OpenZeppelin/openzeppelin-contracts/blob/master/contracts/access/Ownable.sol\":1094:1107  _checkOwner() */\n      jump\t// in\n    tag_49:\n        /* \"SharedWallet.sol\":563:573  msg.sender */\n      caller\n        /* \"SharedWallet.sol\":540:600  AllowanceChanged(_who, msg.sender, allowance[_who], _amount) */\n      0xffffffffffffffffffffffffffffffffffffffff\n      and\n        /* \"SharedWallet.sol\":557:561  _who */\n      dup3\n        /* \"SharedWallet.sol\":540:600  AllowanceChanged(_who, msg.sender, allowance[_who], _amount) */\n      0xffffffffffffffffffffffffffffffffffffffff\n      and\n      0x3691d1a86d99355e52b689ca70a7bdf6d80763237a6aa06e5fa43964eac7244b\n        /* \"SharedWallet.sol\":575:584  allowance */\n      0x01\n        /* \"SharedWallet.sol\":575:590  allowance[_who] */\n      0x00\n        /* \"SharedWallet.sol\":585:589  _who */\n      dup7\n        /* \"SharedWallet.sol\":575:590  allowance[_who] */\n      0xffffffffffffffffffffffffffffffffffffffff\n      and\n      0xffffffffffffffffffffffffffffffffffffffff\n      and\n      dup2\n      mstore\n      0x20\n      add\n      swap1\n      dup2\n      mstore\n      0x20\n      add\n      0x00\n      keccak256\n      sload\n        /* \"SharedWallet.sol\":592:599  _amount */\n      dup5\n        /* \"SharedWallet.sol\":540:600  AllowanceChanged(_who, msg.sender, allowance[_who], _amount) */\n      mload(0x40)\n      tag_51\n      swap3\n      swap2\n      swap1\n      tag_52\n      jump\t// in\n    tag_51:\n      mload(0x40)\n      dup1\n      swap2\n      sub\n      swap1\n      log3\n        /* \"SharedWallet.sol\":628:635  _amount */\n      dup1\n        /* \"SharedWallet.sol\":610:619  allowance */\n      0x01\n        /* \"SharedWallet.sol\":610:625  allowance[_who] */\n      0x00\n        /* \"SharedWallet.sol\":620:624  _who */\n      dup5\n        /* \"SharedWallet.sol\":610:625  allowance[_who] */\n      0xffffffffffffffffffffffffffffffffffffffff\n      and\n      0xffffffffffffffffffffffffffffffffffffffff\n      and\n      dup2\n      mstore\n      0x20\n      add\n      swap1\n      dup2\n      mstore\n      0x20\n      add\n      0x00\n      keccak256\n        /* \"SharedWallet.sol\":610:635  allowance[_who] = _amount */\n      dup2\n      swap1\n      sstore\n      pop\n        /* \"SharedWallet.sol\":458:642  function setAllownace(address _who, uint _amount) public onlyOwner {... */\n      pop\n      pop\n      jump\t// out\n        /* \"SharedWallet.sol\":1170:1480  function withdrawMoney(address payable _to, uint _amount) public ownerOrAllowed(_amount) {... */\n    tag_36:\n        /* \"SharedWallet.sol\":1250:1257  _amount */\n      dup1\n        /* \"SharedWallet.sol\":704:713  isOwner() */\n      tag_54\n        /* \"SharedWallet.sol\":704:711  isOwner */\n      tag_55\n        /* \"SharedWallet.sol\":704:713  isOwner() */\n      jump\t// in\n    tag_54:\n        /* \"SharedWallet.sol\":704:749  isOwner() || allowance[msg.sender] >= _amount */\n      dup1\n      tag_56\n      jumpi\n      pop\n        /* \"SharedWallet.sol\":742:749  _amount */\n      dup1\n        /* \"SharedWallet.sol\":717:726  allowance */\n      0x01\n        /* \"SharedWallet.sol\":717:738  allowance[msg.sender] */\n      0x00\n        /* \"SharedWallet.sol\":727:737  msg.sender */\n      caller\n        /* \"SharedWallet.sol\":717:738  allowance[msg.sender] */\n      0xffffffffffffffffffffffffffffffffffffffff\n      and\n      0xffffffffffffffffffffffffffffffffffffffff\n      and\n      dup2\n      mstore\n      0x20\n      add\n      swap1\n      dup2\n      mstore\n      0x20\n      add\n      0x00\n      keccak256\n      sload\n        /* \"SharedWallet.sol\":717:749  allowance[msg.sender] >= _amount */\n      lt\n      iszero\n        /* \"SharedWallet.sol\":704:749  isOwner() || allowance[msg.sender] >= _amount */\n    tag_56:\n        /* \"SharedWallet.sol\":696:774  require(isOwner() || allowance[msg.sender] >= _amount, \"You are not allowed.\") */\n      tag_57\n      jumpi\n      mload(0x40)\n      0x08c379a000000000000000000000000000000000000000000000000000000000\n      dup2\n      mstore\n      0x04\n      add\n      tag_58\n      swap1\n      tag_59\n      jump\t// in\n    tag_58:\n      mload(0x40)\n      dup1\n      swap2\n      sub\n      swap1\n      revert\n    tag_57:\n        /* \"SharedWallet.sol\":1288:1309  address(this).balance */\n      selfbalance\n        /* \"SharedWallet.sol\":1277:1284  _amount */\n      dup3\n        /* \"SharedWallet.sol\":1277:1309  _amount <= address(this).balance */\n      gt\n      iszero\n        /* \"SharedWallet.sol\":1269:1348  require(_amount <= address(this).balance, \"Contract doesn't own enough money!\") */\n      tag_61\n      jumpi\n      mload(0x40)\n      0x08c379a000000000000000000000000000000000000000000000000000000000\n      dup2\n      mstore\n      0x04\n      add\n      tag_62\n      swap1\n      tag_63\n      jump\t// in\n    tag_62:\n      mload(0x40)\n      dup1\n      swap2\n      sub\n      swap1\n      revert\n    tag_61:\n        /* \"SharedWallet.sol\":1362:1371  isOwner() */\n      tag_64\n        /* \"SharedWallet.sol\":1362:1369  isOwner */\n      tag_55\n        /* \"SharedWallet.sol\":1362:1371  isOwner() */\n      jump\t// in\n    tag_64:\n        /* \"SharedWallet.sol\":1358:1434  if(!isOwner()) {... */\n      tag_65\n      jumpi\n        /* \"SharedWallet.sol\":1387:1423  reduceAllowance(msg.sender, _amount) */\n      tag_66\n        /* \"SharedWallet.sol\":1403:1413  msg.sender */\n      caller\n        /* \"SharedWallet.sol\":1415:1422  _amount */\n      dup4\n        /* \"SharedWallet.sol\":1387:1402  reduceAllowance */\n      tag_67\n        /* \"SharedWallet.sol\":1387:1423  reduceAllowance(msg.sender, _amount) */\n      jump\t// in\n    tag_66:\n        /* \"SharedWallet.sol\":1358:1434  if(!isOwner()) {... */\n    tag_65:\n        /* \"SharedWallet.sol\":1452:1455  _to */\n      dup3\n        /* \"SharedWallet.sol\":1452:1464  _to.transfer */\n      0xffffffffffffffffffffffffffffffffffffffff\n      and\n        /* \"SharedWallet.sol\":1452:1473  _to.transfer(_amount) */\n      0x08fc\n        /* \"SharedWallet.sol\":1465:1472  _amount */\n      dup4\n        /* \"SharedWallet.sol\":1452:1473  _to.transfer(_amount) */\n      swap1\n      dup2\n      iszero\n      mul\n      swap1\n      mload(0x40)\n      0x00\n      mload(0x40)\n      dup1\n      dup4\n      sub\n      dup2\n      dup6\n      dup9\n      dup9\n      call\n      swap4\n      pop\n      pop\n      pop\n      pop\n      iszero\n      dup1\n      iszero\n      tag_69\n      jumpi\n      returndatasize\n      0x00\n      dup1\n      returndatacopy\n      revert(0x00, returndatasize)\n    tag_69:\n      pop\n        /* \"SharedWallet.sol\":1170:1480  function withdrawMoney(address payable _to, uint _amount) public ownerOrAllowed(_amount) {... */\n      pop\n      pop\n      pop\n      jump\t// out\n        /* \"https://github.com/OpenZeppelin/openzeppelin-contracts/blob/master/contracts/access/Ownable.sol\":2081:2279  function transferOwnership(address newOwner) public virtual onlyOwner {... */\n    tag_40:\n        /* \"https://github.com/OpenZeppelin/openzeppelin-contracts/blob/master/contracts/access/Ownable.sol\":1094:1107  _checkOwner() */\n      tag_71\n        /* \"https://github.com/OpenZeppelin/openzeppelin-contracts/blob/master/contracts/access/Ownable.sol\":1094:1105  _checkOwner */\n      tag_43\n        /* \"https://github.com/OpenZeppelin/openzeppelin-contracts/blob/master/contracts/access/Ownable.sol\":1094:1107  _checkOwner() */\n      jump\t// in\n    tag_71:\n        /* \"https://github.com/OpenZeppelin/openzeppelin-contracts/blob/master/contracts/access/Ownable.sol\":2189:2190  0 */\n      0x00\n        /* \"https://github.com/OpenZeppelin/openzeppelin-contracts/blob/master/contracts/access/Ownable.sol\":2169:2191  newOwner != address(0) */\n      0xffffffffffffffffffffffffffffffffffffffff\n      and\n        /* \"https://github.com/OpenZeppelin/openzeppelin-contracts/blob/master/contracts/access/Ownable.sol\":2169:2177  newOwner */\n      dup2\n        /* \"https://github.com/OpenZeppelin/openzeppelin-contracts/blob/master/contracts/access/Ownable.sol\":2169:2191  newOwner != address(0) */\n      0xffffffffffffffffffffffffffffffffffffffff\n      and\n      eq\n      iszero\n        /* \"https://github.com/OpenZeppelin/openzeppelin-contracts/blob/master/contracts/access/Ownable.sol\":2161:2234  require(newOwner != address(0), \"Ownable: new owner is the zero address\") */\n      tag_73\n      jumpi\n      mload(0x40)\n      0x08c379a000000000000000000000000000000000000000000000000000000000\n      dup2\n      mstore\n      0x04\n      add\n      tag_74\n      swap1\n      tag_75\n      jump\t// in\n    tag_74:\n      mload(0x40)\n      dup1\n      swap2\n      sub\n      swap1\n      revert\n    tag_73:\n        /* \"https://github.com/OpenZeppelin/openzeppelin-contracts/blob/master/contracts/access/Ownable.sol\":2244:2272  _transferOwnership(newOwner) */\n      tag_76\n        /* \"https://github.com/OpenZeppelin/openzeppelin-contracts/blob/master/contracts/access/Ownable.sol\":2263:2271  newOwner */\n      dup2\n        /* \"https://github.com/OpenZeppelin/openzeppelin-contracts/blob/master/contracts/access/Ownable.sol\":2244:2262  _transferOwnership */\n      tag_46\n        /* \"https://github.com/OpenZeppelin/openzeppelin-contracts/blob/master/contracts/access/Ownable.sol\":2244:2272  _transferOwnership(newOwner) */\n      jump\t// in\n    tag_76:\n        /* \"https://github.com/OpenZeppelin/openzeppelin-contracts/blob/master/contracts/access/Ownable.sol\":2081:2279  function transferOwnership(address newOwner) public virtual onlyOwner {... */\n      pop\n      jump\t// out\n        /* \"https://github.com/OpenZeppelin/openzeppelin-contracts/blob/master/contracts/access/Ownable.sol\":1359:1489  function _checkOwner() internal view virtual {... */\n    tag_43:\n        /* \"https://github.com/OpenZeppelin/openzeppelin-contracts/blob/master/contracts/access/Ownable.sol\":1433:1445  _msgSender() */\n      tag_78\n        /* \"https://github.com/OpenZeppelin/openzeppelin-contracts/blob/master/contracts/access/Ownable.sol\":1433:1443  _msgSender */\n      tag_79\n        /* \"https://github.com/OpenZeppelin/openzeppelin-contracts/blob/master/contracts/access/Ownable.sol\":1433:1445  _msgSender() */\n      jump\t// in\n    tag_78:\n        /* \"https://github.com/OpenZeppelin/openzeppelin-contracts/blob/master/contracts/access/Ownable.sol\":1422:1445  owner() == _msgSender() */\n      0xffffffffffffffffffffffffffffffffffffffff\n      and\n        /* \"https://github.com/OpenZeppelin/openzeppelin-contracts/blob/master/contracts/access/Ownable.sol\":1422:1429  owner() */\n      tag_80\n        /* \"https://github.com/OpenZeppelin/openzeppelin-contracts/blob/master/contracts/access/Ownable.sol\":1422:1427  owner */\n      tag_24\n        /* \"https://github.com/OpenZeppelin/openzeppelin-contracts/blob/master/contracts/access/Ownable.sol\":1422:1429  owner() */\n      jump\t// in\n    tag_80:\n        /* \"https://github.com/OpenZeppelin/openzeppelin-contracts/blob/master/contracts/access/Ownable.sol\":1422:1445  owner() == _msgSender() */\n      0xffffffffffffffffffffffffffffffffffffffff\n      and\n      eq\n        /* \"https://github.com/OpenZeppelin/openzeppelin-contracts/blob/master/contracts/access/Ownable.sol\":1414:1482  require(owner() == _msgSender(), \"Ownable: caller is not the owner\") */\n      tag_81\n      jumpi\n      mload(0x40)\n      0x08c379a000000000000000000000000000000000000000000000000000000000\n      dup2\n      mstore\n      0x04\n      add\n      tag_82\n      swap1\n      tag_83\n      jump\t// in\n    tag_82:\n      mload(0x40)\n      dup1\n      swap2\n      sub\n      swap1\n      revert\n    tag_81:\n        /* \"https://github.com/OpenZeppelin/openzeppelin-contracts/blob/master/contracts/access/Ownable.sol\":1359:1489  function _checkOwner() internal view virtual {... */\n      jump\t// out\n        /* \"https://github.com/OpenZeppelin/openzeppelin-contracts/blob/master/contracts/access/Ownable.sol\":2433:2620  function _transferOwnership(address newOwner) internal virtual {... */\n    tag_46:\n        /* \"https://github.com/OpenZeppelin/openzeppelin-contracts/blob/master/contracts/access/Ownable.sol\":2506:2522  address oldOwner */\n      0x00\n        /* \"https://github.com/OpenZeppelin/openzeppelin-contracts/blob/master/contracts/access/Ownable.sol\":2525:2531  _owner */\n      dup1\n      0x00\n      swap1\n      sload\n      swap1\n      0x0100\n      exp\n      swap1\n      div\n      0xffffffffffffffffffffffffffffffffffffffff\n      and\n        /* \"https://github.com/OpenZeppelin/openzeppelin-contracts/blob/master/contracts/access/Ownable.sol\":2506:2531  address oldOwner = _owner */\n      swap1\n      pop\n        /* \"https://github.com/OpenZeppelin/openzeppelin-contracts/blob/master/contracts/access/Ownable.sol\":2550:2558  newOwner */\n      dup2\n        /* \"https://github.com/OpenZeppelin/openzeppelin-contracts/blob/master/contracts/access/Ownable.sol\":2541:2547  _owner */\n      0x00\n      dup1\n        /* \"https://github.com/OpenZeppelin/openzeppelin-contracts/blob/master/contracts/access/Ownable.sol\":2541:2558  _owner = newOwner */\n      0x0100\n      exp\n      dup2\n      sload\n      dup2\n      0xffffffffffffffffffffffffffffffffffffffff\n      mul\n      not\n      and\n      swap1\n      dup4\n      0xffffffffffffffffffffffffffffffffffffffff\n      and\n      mul\n      or\n      swap1\n      sstore\n      pop\n        /* \"https://github.com/OpenZeppelin/openzeppelin-contracts/blob/master/contracts/access/Ownable.sol\":2604:2612  newOwner */\n      dup2\n        /* \"https://github.com/OpenZeppelin/openzeppelin-contracts/blob/master/contracts/access/Ownable.sol\":2573:2613  OwnershipTransferred(oldOwner, newOwner) */\n      0xffffffffffffffffffffffffffffffffffffffff\n      and\n        /* \"https://github.com/OpenZeppelin/openzeppelin-contracts/blob/master/contracts/access/Ownable.sol\":2594:2602  oldOwner */\n      dup2\n        /* \"https://github.com/OpenZeppelin/openzeppelin-contracts/blob/master/contracts/access/Ownable.sol\":2573:2613  OwnershipTransferred(oldOwner, newOwner) */\n      0xffffffffffffffffffffffffffffffffffffffff\n      and\n      0x8be0079c531659141344cd1fd0a4f28419497f9722a3daafe3b4186f6b6457e0\n      mload(0x40)\n      mload(0x40)\n      dup1\n      swap2\n      sub\n      swap1\n      log3\n        /* \"https://github.com/OpenZeppelin/openzeppelin-contracts/blob/master/contracts/access/Ownable.sol\":2433:2620  function _transferOwnership(address newOwner) internal virtual {... */\n      pop\n      pop\n      jump\t// out\n        /* \"SharedWallet.sol\":360:452  function isOwner() internal view returns(bool) {... */\n    tag_55:\n        /* \"SharedWallet.sol\":401:405  bool */\n      0x00\n        /* \"SharedWallet.sol\":435:445  msg.sender */\n      caller\n        /* \"SharedWallet.sol\":424:445  owner() == msg.sender */\n      0xffffffffffffffffffffffffffffffffffffffff\n      and\n        /* \"SharedWallet.sol\":424:431  owner() */\n      tag_86\n        /* \"SharedWallet.sol\":424:429  owner */\n      tag_24\n        /* \"SharedWallet.sol\":424:431  owner() */\n      jump\t// in\n    tag_86:\n        /* \"SharedWallet.sol\":424:445  owner() == msg.sender */\n      0xffffffffffffffffffffffffffffffffffffffff\n      and\n      eq\n        /* \"SharedWallet.sol\":417:445  return owner() == msg.sender */\n      swap1\n      pop\n        /* \"SharedWallet.sol\":360:452  function isOwner() internal view returns(bool) {... */\n      swap1\n      jump\t// out\n        /* \"SharedWallet.sol\":798:996  function reduceAllowance(address _who, uint _amount) internal {... */\n    tag_67:\n        /* \"SharedWallet.sol\":898:908  msg.sender */\n      caller\n        /* \"SharedWallet.sol\":875:953  AllowanceChanged(_who, msg.sender, allowance[_who], allowance[_who] - _amount) */\n      0xffffffffffffffffffffffffffffffffffffffff\n      and\n        /* \"SharedWallet.sol\":892:896  _who */\n      dup3\n        /* \"SharedWallet.sol\":875:953  AllowanceChanged(_who, msg.sender, allowance[_who], allowance[_who] - _amount) */\n      0xffffffffffffffffffffffffffffffffffffffff\n      and\n      0x3691d1a86d99355e52b689ca70a7bdf6d80763237a6aa06e5fa43964eac7244b\n        /* \"SharedWallet.sol\":910:919  allowance */\n      0x01\n        /* \"SharedWallet.sol\":910:925  allowance[_who] */\n      0x00\n        /* \"SharedWallet.sol\":920:924  _who */\n      dup7\n        /* \"SharedWallet.sol\":910:925  allowance[_who] */\n      0xffffffffffffffffffffffffffffffffffffffff\n      and\n      0xffffffffffffffffffffffffffffffffffffffff\n      and\n      dup2\n      mstore\n      0x20\n      add\n      swap1\n      dup2\n      mstore\n      0x20\n      add\n      0x00\n      keccak256\n      sload\n        /* \"SharedWallet.sol\":945:952  _amount */\n      dup5\n        /* \"SharedWallet.sol\":927:936  allowance */\n      0x01\n        /* \"SharedWallet.sol\":927:942  allowance[_who] */\n      0x00\n        /* \"SharedWallet.sol\":937:941  _who */\n      dup9\n        /* \"SharedWallet.sol\":927:942  allowance[_who] */\n      0xffffffffffffffffffffffffffffffffffffffff\n      and\n      0xffffffffffffffffffffffffffffffffffffffff\n      and\n      dup2\n      mstore\n      0x20\n      add\n      swap1\n      dup2\n      mstore\n      0x20\n      add\n      0x00\n      keccak256\n      sload\n        /* \"SharedWallet.sol\":927:952  allowance[_who] - _amount */\n      tag_88\n      swap2\n      swap1\n      tag_89\n      jump\t// in\n    tag_88:\n        /* \"SharedWallet.sol\":875:953  AllowanceChanged(_who, msg.sender, allowance[_who], allowance[_who] - _amount) */\n      mload(0x40)\n      tag_90\n      swap3\n      swap2\n      swap1\n      tag_52\n      jump\t// in\n    tag_90:\n      mload(0x40)\n      dup1\n      swap2\n      sub\n      swap1\n      log3\n        /* \"SharedWallet.sol\":982:989  _amount */\n      dup1\n        /* \"SharedWallet.sol\":963:972  allowance */\n      0x01\n        /* \"SharedWallet.sol\":963:978  allowance[_who] */\n      0x00\n        /* \"SharedWallet.sol\":973:977  _who */\n      dup5\n        /* \"SharedWallet.sol\":963:978  allowance[_who] */\n      0xffffffffffffffffffffffffffffffffffffffff\n      and\n      0xffffffffffffffffffffffffffffffffffffffff\n      and\n      dup2\n      mstore\n      0x20\n      add\n      swap1\n      dup2\n      mstore\n      0x20\n      add\n      0x00\n      keccak256\n      0x00\n        /* \"SharedWallet.sol\":963:989  allowance[_who] -= _amount */\n      dup3\n      dup3\n      sload\n      tag_91\n      swap2\n      swap1\n      tag_89\n      jump\t// in\n    tag_91:\n      swap3\n      pop\n      pop\n      dup2\n      swap1\n      sstore\n      pop\n        /* \"SharedWallet.sol\":798:996  function reduceAllowance(address _who, uint _amount) internal {... */\n      pop\n      pop\n      jump\t// out\n        /* \"https://github.com/OpenZeppelin/openzeppelin-contracts/blob/master/contracts/utils/Context.sol\":640:736  function _msgSender() internal view virtual returns (address) {... */\n    tag_79:\n        /* \"https://github.com/OpenZeppelin/openzeppelin-contracts/blob/master/contracts/utils/Context.sol\":693:700  address */\n      0x00\n        /* \"https://github.com/OpenZeppelin/openzeppelin-contracts/blob/master/contracts/utils/Context.sol\":719:729  msg.sender */\n      caller\n        /* \"https://github.com/OpenZeppelin/openzeppelin-contracts/blob/master/contracts/utils/Context.sol\":712:729  return msg.sender */\n      swap1\n      pop\n        /* \"https://github.com/OpenZeppelin/openzeppelin-contracts/blob/master/contracts/utils/Context.sol\":640:736  function _msgSender() internal view virtual returns (address) {... */\n      swap1\n      jump\t// out\n        /* \"#utility.yul\":7:146   */\n    tag_94:\n      0x00\n        /* \"#utility.yul\":91:97   */\n      dup2\n        /* \"#utility.yul\":78:98   */\n      calldataload\n        /* \"#utility.yul\":69:98   */\n      swap1\n      pop\n        /* \"#utility.yul\":107:140   */\n      tag_96\n        /* \"#utility.yul\":134:139   */\n      dup2\n        /* \"#utility.yul\":107:140   */\n      tag_97\n      jump\t// in\n    tag_96:\n        /* \"#utility.yul\":59:146   */\n      swap3\n      swap2\n      pop\n      pop\n      jump\t// out\n        /* \"#utility.yul\":152:307   */\n    tag_98:\n      0x00\n        /* \"#utility.yul\":244:250   */\n      dup2\n        /* \"#utility.yul\":231:251   */\n      calldataload\n        /* \"#utility.yul\":222:251   */\n      swap1\n      pop\n        /* \"#utility.yul\":260:301   */\n      tag_100\n        /* \"#utility.yul\":295:300   */\n      dup2\n        /* \"#utility.yul\":260:301   */\n      tag_101\n      jump\t// in\n    tag_100:\n        /* \"#utility.yul\":212:307   */\n      swap3\n      swap2\n      pop\n      pop\n      jump\t// out\n        /* \"#utility.yul\":313:452   */\n    tag_102:\n      0x00\n        /* \"#utility.yul\":397:403   */\n      dup2\n        /* \"#utility.yul\":384:404   */\n      calldataload\n        /* \"#utility.yul\":375:404   */\n      swap1\n      pop\n        /* \"#utility.yul\":413:446   */\n      tag_104\n        /* \"#utility.yul\":440:445   */\n      dup2\n        /* \"#utility.yul\":413:446   */\n      tag_105\n      jump\t// in\n    tag_104:\n        /* \"#utility.yul\":365:452   */\n      swap3\n      swap2\n      pop\n      pop\n      jump\t// out\n        /* \"#utility.yul\":458:720   */\n    tag_16:\n      0x00\n        /* \"#utility.yul\":566:568   */\n      0x20\n        /* \"#utility.yul\":554:563   */\n      dup3\n        /* \"#utility.yul\":545:552   */\n      dup5\n        /* \"#utility.yul\":541:564   */\n      sub\n        /* \"#utility.yul\":537:569   */\n      slt\n        /* \"#utility.yul\":534:536   */\n      iszero\n      tag_107\n      jumpi\n        /* \"#utility.yul\":582:583   */\n      0x00\n        /* \"#utility.yul\":579:580   */\n      dup1\n        /* \"#utility.yul\":572:584   */\n      revert\n        /* \"#utility.yul\":534:536   */\n    tag_107:\n        /* \"#utility.yul\":625:626   */\n      0x00\n        /* \"#utility.yul\":650:703   */\n      tag_108\n        /* \"#utility.yul\":695:702   */\n      dup5\n        /* \"#utility.yul\":686:692   */\n      dup3\n        /* \"#utility.yul\":675:684   */\n      dup6\n        /* \"#utility.yul\":671:693   */\n      add\n        /* \"#utility.yul\":650:703   */\n      tag_94\n      jump\t// in\n    tag_108:\n        /* \"#utility.yul\":640:703   */\n      swap2\n      pop\n        /* \"#utility.yul\":596:713   */\n      pop\n        /* \"#utility.yul\":524:720   */\n      swap3\n      swap2\n      pop\n      pop\n      jump\t// out\n        /* \"#utility.yul\":726:1149   */\n    tag_35:\n      0x00\n      dup1\n        /* \"#utility.yul\":859:861   */\n      0x40\n        /* \"#utility.yul\":847:856   */\n      dup4\n        /* \"#utility.yul\":838:845   */\n      dup6\n        /* \"#utility.yul\":834:857   */\n      sub\n        /* \"#utility.yul\":830:862   */\n      slt\n        /* \"#utility.yul\":827:829   */\n      iszero\n      tag_110\n      jumpi\n        /* \"#utility.yul\":875:876   */\n      0x00\n        /* \"#utility.yul\":872:873   */\n      dup1\n        /* \"#utility.yul\":865:877   */\n      revert\n        /* \"#utility.yul\":827:829   */\n    tag_110:\n        /* \"#utility.yul\":918:919   */\n      0x00\n        /* \"#utility.yul\":943:1004   */\n      tag_111\n        /* \"#utility.yul\":996:1003   */\n      dup6\n        /* \"#utility.yul\":987:993   */\n      dup3\n        /* \"#utility.yul\":976:985   */\n      dup7\n        /* \"#utility.yul\":972:994   */\n      add\n        /* \"#utility.yul\":943:1004   */\n      tag_98\n      jump\t// in\n    tag_111:\n        /* \"#utility.yul\":933:1004   */\n      swap3\n      pop\n        /* \"#utility.yul\":889:1014   */\n      pop\n        /* \"#utility.yul\":1053:1055   */\n      0x20\n        /* \"#utility.yul\":1079:1132   */\n      tag_112\n        /* \"#utility.yul\":1124:1131   */\n      dup6\n        /* \"#utility.yul\":1115:1121   */\n      dup3\n        /* \"#utility.yul\":1104:1113   */\n      dup7\n        /* \"#utility.yul\":1100:1122   */\n      add\n        /* \"#utility.yul\":1079:1132   */\n      tag_102\n      jump\t// in\n    tag_112:\n        /* \"#utility.yul\":1069:1132   */\n      swap2\n      pop\n        /* \"#utility.yul\":1024:1142   */\n      pop\n        /* \"#utility.yul\":817:1149   */\n      swap3\n      pop\n      swap3\n      swap1\n      pop\n      jump\t// out\n        /* \"#utility.yul\":1155:1562   */\n    tag_30:\n      0x00\n      dup1\n        /* \"#utility.yul\":1280:1282   */\n      0x40\n        /* \"#utility.yul\":1268:1277   */\n      dup4\n        /* \"#utility.yul\":1259:1266   */\n      dup6\n        /* \"#utility.yul\":1255:1278   */\n      sub\n        /* \"#utility.yul\":1251:1283   */\n      slt\n        /* \"#utility.yul\":1248:1250   */\n      iszero\n      tag_114\n      jumpi\n        /* \"#utility.yul\":1296:1297   */\n      0x00\n        /* \"#utility.yul\":1293:1294   */\n      dup1\n        /* \"#utility.yul\":1286:1298   */\n      revert\n        /* \"#utility.yul\":1248:1250   */\n    tag_114:\n        /* \"#utility.yul\":1339:1340   */\n      0x00\n        /* \"#utility.yul\":1364:1417   */\n      tag_115\n        /* \"#utility.yul\":1409:1416   */\n      dup6\n        /* \"#utility.yul\":1400:1406   */\n      dup3\n        /* \"#utility.yul\":1389:1398   */\n      dup7\n        /* \"#utility.yul\":1385:1407   */\n      add\n        /* \"#utility.yul\":1364:1417   */\n      tag_94\n      jump\t// in\n    tag_115:\n        /* \"#utility.yul\":1354:1417   */\n      swap3\n      pop\n        /* \"#utility.yul\":1310:1427   */\n      pop\n        /* \"#utility.yul\":1466:1468   */\n      0x20\n        /* \"#utility.yul\":1492:1545   */\n      tag_116\n        /* \"#utility.yul\":1537:1544   */\n      dup6\n        /* \"#utility.yul\":1528:1534   */\n      dup3\n        /* \"#utility.yul\":1517:1526   */\n      dup7\n        /* \"#utility.yul\":1513:1535   */\n      add\n        /* \"#utility.yul\":1492:1545   */\n      tag_102\n      jump\t// in\n    tag_116:\n        /* \"#utility.yul\":1482:1545   */\n      swap2\n      pop\n        /* \"#utility.yul\":1437:1555   */\n      pop\n        /* \"#utility.yul\":1238:1562   */\n      swap3\n      pop\n      swap3\n      swap1\n      pop\n      jump\t// out\n        /* \"#utility.yul\":1568:1686   */\n    tag_117:\n        /* \"#utility.yul\":1655:1679   */\n      tag_119\n        /* \"#utility.yul\":1673:1678   */\n      dup2\n        /* \"#utility.yul\":1655:1679   */\n      tag_120\n      jump\t// in\n    tag_119:\n        /* \"#utility.yul\":1650:1653   */\n      dup3\n        /* \"#utility.yul\":1643:1680   */\n      mstore\n        /* \"#utility.yul\":1633:1686   */\n      pop\n      pop\n      jump\t// out\n        /* \"#utility.yul\":1692:2058   */\n    tag_121:\n      0x00\n        /* \"#utility.yul\":1855:1922   */\n      tag_123\n        /* \"#utility.yul\":1919:1921   */\n      0x26\n        /* \"#utility.yul\":1914:1917   */\n      dup4\n        /* \"#utility.yul\":1855:1922   */\n      tag_124\n      jump\t// in\n    tag_123:\n        /* \"#utility.yul\":1848:1922   */\n      swap2\n      pop\n        /* \"#utility.yul\":1931:2024   */\n      tag_125\n        /* \"#utility.yul\":2020:2023   */\n      dup3\n        /* \"#utility.yul\":1931:2024   */\n      tag_126\n      jump\t// in\n    tag_125:\n        /* \"#utility.yul\":2049:2051   */\n      0x40\n        /* \"#utility.yul\":2044:2047   */\n      dup3\n        /* \"#utility.yul\":2040:2052   */\n      add\n        /* \"#utility.yul\":2033:2052   */\n      swap1\n      pop\n        /* \"#utility.yul\":1838:2058   */\n      swap2\n      swap1\n      pop\n      jump\t// out\n        /* \"#utility.yul\":2064:2430   */\n    tag_127:\n      0x00\n        /* \"#utility.yul\":2227:2294   */\n      tag_129\n        /* \"#utility.yul\":2291:2293   */\n      0x14\n        /* \"#utility.yul\":2286:2289   */\n      dup4\n        /* \"#utility.yul\":2227:2294   */\n      tag_124\n      jump\t// in\n    tag_129:\n        /* \"#utility.yul\":2220:2294   */\n      swap2\n      pop\n        /* \"#utility.yul\":2303:2396   */\n      tag_130\n        /* \"#utility.yul\":2392:2395   */\n      dup3\n        /* \"#utility.yul\":2303:2396   */\n      tag_131\n      jump\t// in\n    tag_130:\n        /* \"#utility.yul\":2421:2423   */\n      0x20\n        /* \"#utility.yul\":2416:2419   */\n      dup3\n        /* \"#utility.yul\":2412:2424   */\n      add\n        /* \"#utility.yul\":2405:2424   */\n      swap1\n      pop\n        /* \"#utility.yul\":2210:2430   */\n      swap2\n      swap1\n      pop\n      jump\t// out\n        /* \"#utility.yul\":2436:2802   */\n    tag_132:\n      0x00\n        /* \"#utility.yul\":2599:2666   */\n      tag_134\n        /* \"#utility.yul\":2663:2665   */\n      0x20\n        /* \"#utility.yul\":2658:2661   */\n      dup4\n        /* \"#utility.yul\":2599:2666   */\n      tag_124\n      jump\t// in\n    tag_134:\n        /* \"#utility.yul\":2592:2666   */\n      swap2\n      pop\n        /* \"#utility.yul\":2675:2768   */\n      tag_135\n        /* \"#utility.yul\":2764:2767   */\n      dup3\n        /* \"#utility.yul\":2675:2768   */\n      tag_136\n      jump\t// in\n    tag_135:\n        /* \"#utility.yul\":2793:2795   */\n      0x20\n        /* \"#utility.yul\":2788:2791   */\n      dup3\n        /* \"#utility.yul\":2784:2796   */\n      add\n        /* \"#utility.yul\":2777:2796   */\n      swap1\n      pop\n        /* \"#utility.yul\":2582:2802   */\n      swap2\n      swap1\n      pop\n      jump\t// out\n        /* \"#utility.yul\":2808:3174   */\n    tag_137:\n      0x00\n        /* \"#utility.yul\":2971:3038   */\n      tag_139\n        /* \"#utility.yul\":3035:3037   */\n      0x22\n        /* \"#utility.yul\":3030:3033   */\n      dup4\n        /* \"#utility.yul\":2971:3038   */\n      tag_124\n      jump\t// in\n    tag_139:\n        /* \"#utility.yul\":2964:3038   */\n      swap2\n      pop\n        /* \"#utility.yul\":3047:3140   */\n      tag_140\n        /* \"#utility.yul\":3136:3139   */\n      dup3\n        /* \"#utility.yul\":3047:3140   */\n      tag_141\n      jump\t// in\n    tag_140:\n        /* \"#utility.yul\":3165:3167   */\n      0x40\n        /* \"#utility.yul\":3160:3163   */\n      dup3\n        /* \"#utility.yul\":3156:3168   */\n      add\n        /* \"#utility.yul\":3149:3168   */\n      swap1\n      pop\n        /* \"#utility.yul\":2954:3174   */\n      swap2\n      swap1\n      pop\n      jump\t// out\n        /* \"#utility.yul\":3180:3298   */\n    tag_142:\n        /* \"#utility.yul\":3267:3291   */\n      tag_144\n        /* \"#utility.yul\":3285:3290   */\n      dup2\n        /* \"#utility.yul\":3267:3291   */\n      tag_145\n      jump\t// in\n    tag_144:\n        /* \"#utility.yul\":3262:3265   */\n      dup3\n        /* \"#utility.yul\":3255:3292   */\n      mstore\n        /* \"#utility.yul\":3245:3298   */\n      pop\n      pop\n      jump\t// out\n        /* \"#utility.yul\":3304:3526   */\n    tag_26:\n      0x00\n        /* \"#utility.yul\":3435:3437   */\n      0x20\n        /* \"#utility.yul\":3424:3433   */\n      dup3\n        /* \"#utility.yul\":3420:3438   */\n      add\n        /* \"#utility.yul\":3412:3438   */\n      swap1\n      pop\n        /* \"#utility.yul\":3448:3519   */\n      tag_147\n        /* \"#utility.yul\":3516:3517   */\n      0x00\n        /* \"#utility.yul\":3505:3514   */\n      dup4\n        /* \"#utility.yul\":3501:3518   */\n      add\n        /* \"#utility.yul\":3492:3498   */\n      dup5\n        /* \"#utility.yul\":3448:3519   */\n      tag_117\n      jump\t// in\n    tag_147:\n        /* \"#utility.yul\":3402:3526   */\n      swap3\n      swap2\n      pop\n      pop\n      jump\t// out\n        /* \"#utility.yul\":3532:3951   */\n    tag_75:\n      0x00\n        /* \"#utility.yul\":3736:3738   */\n      0x20\n        /* \"#utility.yul\":3725:3734   */\n      dup3\n        /* \"#utility.yul\":3721:3739   */\n      add\n        /* \"#utility.yul\":3713:3739   */\n      swap1\n      pop\n        /* \"#utility.yul\":3785:3794   */\n      dup2\n        /* \"#utility.yul\":3779:3783   */\n      dup2\n        /* \"#utility.yul\":3775:3795   */\n      sub\n        /* \"#utility.yul\":3771:3772   */\n      0x00\n        /* \"#utility.yul\":3760:3769   */\n      dup4\n        /* \"#utility.yul\":3756:3773   */\n      add\n        /* \"#utility.yul\":3749:3796   */\n      mstore\n        /* \"#utility.yul\":3813:3944   */\n      tag_149\n        /* \"#utility.yul\":3939:3943   */\n      dup2\n        /* \"#utility.yul\":3813:3944   */\n      tag_121\n      jump\t// in\n    tag_149:\n        /* \"#utility.yul\":3805:3944   */\n      swap1\n      pop\n        /* \"#utility.yul\":3703:3951   */\n      swap2\n      swap1\n      pop\n      jump\t// out\n        /* \"#utility.yul\":3957:4376   */\n    tag_59:\n      0x00\n        /* \"#utility.yul\":4161:4163   */\n      0x20\n        /* \"#utility.yul\":4150:4159   */\n      dup3\n        /* \"#utility.yul\":4146:4164   */\n      add\n        /* \"#utility.yul\":4138:4164   */\n      swap1\n      pop\n        /* \"#utility.yul\":4210:4219   */\n      dup2\n        /* \"#utility.yul\":4204:4208   */\n      dup2\n        /* \"#utility.yul\":4200:4220   */\n      sub\n        /* \"#utility.yul\":4196:4197   */\n      0x00\n        /* \"#utility.yul\":4185:4194   */\n      dup4\n        /* \"#utility.yul\":4181:4198   */\n      add\n        /* \"#utility.yul\":4174:4221   */\n      mstore\n        /* \"#utility.yul\":4238:4369   */\n      tag_151\n        /* \"#utility.yul\":4364:4368   */\n      dup2\n        /* \"#utility.yul\":4238:4369   */\n      tag_127\n      jump\t// in\n    tag_151:\n        /* \"#utility.yul\":4230:4369   */\n      swap1\n      pop\n        /* \"#utility.yul\":4128:4376   */\n      swap2\n      swap1\n      pop\n      jump\t// out\n        /* \"#utility.yul\":4382:4801   */\n    tag_83:\n      0x00\n        /* \"#utility.yul\":4586:4588   */\n      0x20\n        /* \"#utility.yul\":4575:4584   */\n      dup3\n        /* \"#utility.yul\":4571:4589   */\n      add\n        /* \"#utility.yul\":4563:4589   */\n      swap1\n      pop\n        /* \"#utility.yul\":4635:4644   */\n      dup2\n        /* \"#utility.yul\":4629:4633   */\n      dup2\n        /* \"#utility.yul\":4625:4645   */\n      sub\n        /* \"#utility.yul\":4621:4622   */\n      0x00\n        /* \"#utility.yul\":4610:4619   */\n      dup4\n        /* \"#utility.yul\":4606:4623   */\n      add\n        /* \"#utility.yul\":4599:4646   */\n      mstore\n        /* \"#utility.yul\":4663:4794   */\n      tag_153\n        /* \"#utility.yul\":4789:4793   */\n      dup2\n        /* \"#utility.yul\":4663:4794   */\n      tag_132\n      jump\t// in\n    tag_153:\n        /* \"#utility.yul\":4655:4794   */\n      swap1\n      pop\n        /* \"#utility.yul\":4553:4801   */\n      swap2\n      swap1\n      pop\n      jump\t// out\n        /* \"#utility.yul\":4807:5226   */\n    tag_63:\n      0x00\n        /* \"#utility.yul\":5011:5013   */\n      0x20\n        /* \"#utility.yul\":5000:5009   */\n      dup3\n        /* \"#utility.yul\":4996:5014   */\n      add\n        /* \"#utility.yul\":4988:5014   */\n      swap1\n      pop\n        /* \"#utility.yul\":5060:5069   */\n      dup2\n        /* \"#utility.yul\":5054:5058   */\n      dup2\n        /* \"#utility.yul\":5050:5070   */\n      sub\n        /* \"#utility.yul\":5046:5047   */\n      0x00\n        /* \"#utility.yul\":5035:5044   */\n      dup4\n        /* \"#utility.yul\":5031:5048   */\n      add\n        /* \"#utility.yul\":5024:5071   */\n      mstore\n        /* \"#utility.yul\":5088:5219   */\n      tag_155\n        /* \"#utility.yul\":5214:5218   */\n      dup2\n        /* \"#utility.yul\":5088:5219   */\n      tag_137\n      jump\t// in\n    tag_155:\n        /* \"#utility.yul\":5080:5219   */\n      swap1\n      pop\n        /* \"#utility.yul\":4978:5226   */\n      swap2\n      swap1\n      pop\n      jump\t// out\n        /* \"#utility.yul\":5232:5454   */\n    tag_12:\n      0x00\n        /* \"#utility.yul\":5363:5365   */\n      0x20\n        /* \"#utility.yul\":5352:5361   */\n      dup3\n        /* \"#utility.yul\":5348:5366   */\n      add\n        /* \"#utility.yul\":5340:5366   */\n      swap1\n      pop\n        /* \"#utility.yul\":5376:5447   */\n      tag_157\n        /* \"#utility.yul\":5444:5445   */\n      0x00\n        /* \"#utility.yul\":5433:5442   */\n      dup4\n        /* \"#utility.yul\":5429:5446   */\n      add\n        /* \"#utility.yul\":5420:5426   */\n      dup5\n        /* \"#utility.yul\":5376:5447   */\n      tag_142\n      jump\t// in\n    tag_157:\n        /* \"#utility.yul\":5330:5454   */\n      swap3\n      swap2\n      pop\n      pop\n      jump\t// out\n        /* \"#utility.yul\":5460:5792   */\n    tag_52:\n      0x00\n        /* \"#utility.yul\":5619:5621   */\n      0x40\n        /* \"#utility.yul\":5608:5617   */\n      dup3\n        /* \"#utility.yul\":5604:5622   */\n      add\n        /* \"#utility.yul\":5596:5622   */\n      swap1\n      pop\n        /* \"#utility.yul\":5632:5703   */\n      tag_159\n        /* \"#utility.yul\":5700:5701   */\n      0x00\n        /* \"#utility.yul\":5689:5698   */\n      dup4\n        /* \"#utility.yul\":5685:5702   */\n      add\n        /* \"#utility.yul\":5676:5682   */\n      dup6\n        /* \"#utility.yul\":5632:5703   */\n      tag_142\n      jump\t// in\n    tag_159:\n        /* \"#utility.yul\":5713:5785   */\n      tag_160\n        /* \"#utility.yul\":5781:5783   */\n      0x20\n        /* \"#utility.yul\":5770:5779   */\n      dup4\n        /* \"#utility.yul\":5766:5784   */\n      add\n        /* \"#utility.yul\":5757:5763   */\n      dup5\n        /* \"#utility.yul\":5713:5785   */\n      tag_142\n      jump\t// in\n    tag_160:\n        /* \"#utility.yul\":5586:5792   */\n      swap4\n      swap3\n      pop\n      pop\n      pop\n      jump\t// out\n        /* \"#utility.yul\":5798:5967   */\n    tag_124:\n      0x00\n        /* \"#utility.yul\":5916:5922   */\n      dup3\n        /* \"#utility.yul\":5911:5914   */\n      dup3\n        /* \"#utility.yul\":5904:5923   */\n      mstore\n        /* \"#utility.yul\":5956:5960   */\n      0x20\n        /* \"#utility.yul\":5951:5954   */\n      dup3\n        /* \"#utility.yul\":5947:5961   */\n      add\n        /* \"#utility.yul\":5932:5961   */\n      swap1\n      pop\n        /* \"#utility.yul\":5894:5967   */\n      swap3\n      swap2\n      pop\n      pop\n      jump\t// out\n        /* \"#utility.yul\":5973:6164   */\n    tag_89:\n      0x00\n        /* \"#utility.yul\":6033:6053   */\n      tag_163\n        /* \"#utility.yul\":6051:6052   */\n      dup3\n        /* \"#utility.yul\":6033:6053   */\n      tag_145\n      jump\t// in\n    tag_163:\n        /* \"#utility.yul\":6028:6053   */\n      swap2\n      pop\n        /* \"#utility.yul\":6067:6087   */\n      tag_164\n        /* \"#utility.yul\":6085:6086   */\n      dup4\n        /* \"#utility.yul\":6067:6087   */\n      tag_145\n      jump\t// in\n    tag_164:\n        /* \"#utility.yul\":6062:6087   */\n      swap3\n      pop\n        /* \"#utility.yul\":6106:6107   */\n      dup3\n        /* \"#utility.yul\":6103:6104   */\n      dup3\n        /* \"#utility.yul\":6100:6108   */\n      lt\n        /* \"#utility.yul\":6097:6099   */\n      iszero\n      tag_165\n      jumpi\n        /* \"#utility.yul\":6111:6129   */\n      tag_166\n      tag_167\n      jump\t// in\n    tag_166:\n        /* \"#utility.yul\":6097:6099   */\n    tag_165:\n        /* \"#utility.yul\":6156:6157   */\n      dup3\n        /* \"#utility.yul\":6153:6154   */\n      dup3\n        /* \"#utility.yul\":6149:6158   */\n      sub\n        /* \"#utility.yul\":6141:6158   */\n      swap1\n      pop\n        /* \"#utility.yul\":6018:6164   */\n      swap3\n      swap2\n      pop\n      pop\n      jump\t// out\n        /* \"#utility.yul\":6170:6266   */\n    tag_120:\n      0x00\n        /* \"#utility.yul\":6236:6260   */\n      tag_169\n        /* \"#utility.yul\":6254:6259   */\n      dup3\n        /* \"#utility.yul\":6236:6260   */\n      tag_170\n      jump\t// in\n    tag_169:\n        /* \"#utility.yul\":6225:6260   */\n      swap1\n      pop\n        /* \"#utility.yul\":6215:6266   */\n      swap2\n      swap1\n      pop\n      jump\t// out\n        /* \"#utility.yul\":6272:6376   */\n    tag_171:\n      0x00\n        /* \"#utility.yul\":6346:6370   */\n      tag_173\n        /* \"#utility.yul\":6364:6369   */\n      dup3\n        /* \"#utility.yul\":6346:6370   */\n      tag_170\n      jump\t// in\n    tag_173:\n        /* \"#utility.yul\":6335:6370   */\n      swap1\n      pop\n        /* \"#utility.yul\":6325:6376   */\n      swap2\n      swap1\n      pop\n      jump\t// out\n        /* \"#utility.yul\":6382:6508   */\n    tag_170:\n      0x00\n        /* \"#utility.yul\":6459:6501   */\n      0xffffffffffffffffffffffffffffffffffffffff\n        /* \"#utility.yul\":6452:6457   */\n      dup3\n        /* \"#utility.yul\":6448:6502   */\n      and\n        /* \"#utility.yul\":6437:6502   */\n      swap1\n      pop\n        /* \"#utility.yul\":6427:6508   */\n      swap2\n      swap1\n      pop\n      jump\t// out\n        /* \"#utility.yul\":6514:6591   */\n    tag_145:\n      0x00\n        /* \"#utility.yul\":6580:6585   */\n      dup2\n        /* \"#utility.yul\":6569:6585   */\n      swap1\n      pop\n        /* \"#utility.yul\":6559:6591   */\n      swap2\n      swap1\n      pop\n      jump\t// out\n        /* \"#utility.yul\":6597:6777   */\n    tag_167:\n        /* \"#utility.yul\":6645:6722   */\n      0x4e487b7100000000000000000000000000000000000000000000000000000000\n        /* \"#utility.yul\":6642:6643   */\n      0x00\n        /* \"#utility.yul\":6635:6723   */\n      mstore\n        /* \"#utility.yul\":6742:6746   */\n      0x11\n        /* \"#utility.yul\":6739:6740   */\n      0x04\n        /* \"#utility.yul\":6732:6747   */\n      mstore\n        /* \"#utility.yul\":6766:6770   */\n      0x24\n        /* \"#utility.yul\":6763:6764   */\n      0x00\n        /* \"#utility.yul\":6756:6771   */\n      revert\n        /* \"#utility.yul\":6783:7008   */\n    tag_126:\n        /* \"#utility.yul\":6923:6957   */\n      0x4f776e61626c653a206e6577206f776e657220697320746865207a65726f2061\n        /* \"#utility.yul\":6919:6920   */\n      0x00\n        /* \"#utility.yul\":6911:6917   */\n      dup3\n        /* \"#utility.yul\":6907:6921   */\n      add\n        /* \"#utility.yul\":6900:6958   */\n      mstore\n        /* \"#utility.yul\":6992:7000   */\n      0x6464726573730000000000000000000000000000000000000000000000000000\n        /* \"#utility.yul\":6987:6989   */\n      0x20\n        /* \"#utility.yul\":6979:6985   */\n      dup3\n        /* \"#utility.yul\":6975:6990   */\n      add\n        /* \"#utility.yul\":6968:7001   */\n      mstore\n        /* \"#utility.yul\":6889:7008   */\n      pop\n      jump\t// out\n        /* \"#utility.yul\":7014:7184   */\n    tag_131:\n        /* \"#utility.yul\":7154:7176   */\n      0x596f7520617265206e6f7420616c6c6f7765642e000000000000000000000000\n        /* \"#utility.yul\":7150:7151   */\n      0x00\n        /* \"#utility.yul\":7142:7148   */\n      dup3\n        /* \"#utility.yul\":7138:7152   */\n      add\n        /* \"#utility.yul\":7131:7177   */\n      mstore\n        /* \"#utility.yul\":7120:7184   */\n      pop\n      jump\t// out\n        /* \"#utility.yul\":7190:7372   */\n    tag_136:\n        /* \"#utility.yul\":7330:7364   */\n      0x4f776e61626c653a2063616c6c6572206973206e6f7420746865206f776e6572\n        /* \"#utility.yul\":7326:7327   */\n      0x00\n        /* \"#utility.yul\":7318:7324   */\n      dup3\n        /* \"#utility.yul\":7314:7328   */\n      add\n        /* \"#utility.yul\":7307:7365   */\n      mstore\n        /* \"#utility.yul\":7296:7372   */\n      pop\n      jump\t// out\n        /* \"#utility.yul\":7378:7599   */\n    tag_141:\n        /* \"#utility.yul\":7518:7552   */\n      0x436f6e747261637420646f65736e2774206f776e20656e6f756768206d6f6e65\n        /* \"#utility.yul\":7514:7515   */\n      0x00\n        /* \"#utility.yul\":7506:7512   */\n      dup3\n        /* \"#utility.yul\":7502:7516   */\n      add\n        /* \"#utility.yul\":7495:7553   */\n      mstore\n        /* \"#utility.yul\":7587:7591   */\n      0x7921000000000000000000000000000000000000000000000000000000000000\n        /* \"#utility.yul\":7582:7584   */\n      0x20\n        /* \"#utility.yul\":7574:7580   */\n      dup3\n        /* \"#utility.yul\":7570:7585   */\n      add\n        /* \"#utility.yul\":7563:7592   */\n      mstore\n        /* \"#utility.yul\":7484:7599   */\n      pop\n      jump\t// out\n        /* \"#utility.yul\":7605:7727   */\n    tag_97:\n        /* \"#utility.yul\":7678:7702   */\n      tag_182\n        /* \"#utility.yul\":7696:7701   */\n      dup2\n        /* \"#utility.yul\":7678:7702   */\n      tag_120\n      jump\t// in\n    tag_182:\n        /* \"#utility.yul\":7671:7676   */\n      dup2\n        /* \"#utility.yul\":7668:7703   */\n      eq\n        /* \"#utility.yul\":7658:7660   */\n      tag_183\n      jumpi\n        /* \"#utility.yul\":7717:7718   */\n      0x00\n        /* \"#utility.yul\":7714:7715   */\n      dup1\n        /* \"#utility.yul\":7707:7719   */\n      revert\n        /* \"#utility.yul\":7658:7660   */\n    tag_183:\n        /* \"#utility.yul\":7648:7727   */\n      pop\n      jump\t// out\n        /* \"#utility.yul\":7733:7871   */\n    tag_101:\n        /* \"#utility.yul\":7814:7846   */\n      tag_185\n        /* \"#utility.yul\":7840:7845   */\n      dup2\n        /* \"#utility.yul\":7814:7846   */\n      tag_171\n      jump\t// in\n    tag_185:\n        /* \"#utility.yul\":7807:7812   */\n      dup2\n        /* \"#utility.yul\":7804:7847   */\n      eq\n        /* \"#utility.yul\":7794:7796   */\n      tag_186\n      jumpi\n        /* \"#utility.yul\":7861:7862   */\n      0x00\n        /* \"#utility.yul\":7858:7859   */\n      dup1\n        /* \"#utility.yul\":7851:7863   */\n      revert\n        /* \"#utility.yul\":7794:7796   */\n    tag_186:\n        /* \"#utility.yul\":7784:7871   */\n      pop\n      jump\t// out\n        /* \"#utility.yul\":7877:7999   */\n    tag_105:\n        /* \"#utility.yul\":7950:7974   */\n      tag_188\n        /* \"#utility.yul\":7968:7973   */\n      dup2\n        /* \"#utility.yul\":7950:7974   */\n      tag_145\n      jump\t// in\n    tag_188:\n        /* \"#utility.yul\":7943:7948   */\n      dup2\n        /* \"#utility.yul\":7940:7975   */\n      eq\n        /* \"#utility.yul\":7930:7932   */\n      tag_189\n      jumpi\n        /* \"#utility.yul\":7989:7990   */\n      0x00\n        /* \"#utility.yul\":7986:7987   */\n      dup1\n        /* \"#utility.yul\":7979:7991   */\n      revert\n        /* \"#utility.yul\":7930:7932   */\n    tag_189:\n        /* \"#utility.yul\":7920:7999   */\n      pop\n      jump\t// out\n\n    auxdata: 0xa264697066735822122034fea4713162d0ba85c96fb40effe9e9785de7cae96a0b635c3f9906f6bc8ba364736f6c63430008010033\n}\n",
				"bytecode": {
					"linkReferences": {},
					"object": "608060405234801561001057600080fd5b5061002d61002261003260201b60201c565b61003a60201b60201c565b6100fe565b600033905090565b60008060009054906101000a900473ffffffffffffffffffffffffffffffffffffffff169050816000806101000a81548173ffffffffffffffffffffffffffffffffffffffff021916908373ffffffffffffffffffffffffffffffffffffffff1602179055508173ffffffffffffffffffffffffffffffffffffffff168173ffffffffffffffffffffffffffffffffffffffff167f8be0079c531659141344cd1fd0a4f28419497f9722a3daafe3b4186f6b6457e060405160405180910390a35050565b610c1b8061010d6000396000f3fe6080604052600436106100595760003560e01c80633e5beab9146100b3578063715018a6146100f05780638da5cb5b14610107578063da8362ef14610132578063f274c8971461015b578063f2fde38b14610184576100ae565b366100ae573373ffffffffffffffffffffffffffffffffffffffff167f27b15ed4cf832749ed39f33a64e4707ed60a761485e41ffec7343ecaddc0c02a346040516100a491906109aa565b60405180910390a2005b600080fd5b3480156100bf57600080fd5b506100da60048036038101906100d591906107c4565b6101ad565b6040516100e791906109aa565b60405180910390f35b3480156100fc57600080fd5b506101056101c5565b005b34801561011357600080fd5b5061011c6101d9565b604051610129919061090f565b60405180910390f35b34801561013e57600080fd5b5061015960048036038101906101549190610829565b610202565b005b34801561016757600080fd5b50610182600480360381019061017d91906107ed565b6102f8565b005b34801561019057600080fd5b506101ab60048036038101906101a691906107c4565b610430565b005b60016020528060005260406000206000915090505481565b6101cd6104b4565b6101d76000610532565b565b60008060009054906101000a900473ffffffffffffffffffffffffffffffffffffffff16905090565b61020a6104b4565b3373ffffffffffffffffffffffffffffffffffffffff168273ffffffffffffffffffffffffffffffffffffffff167f3691d1a86d99355e52b689ca70a7bdf6d80763237a6aa06e5fa43964eac7244b600160008673ffffffffffffffffffffffffffffffffffffffff1673ffffffffffffffffffffffffffffffffffffffff16815260200190815260200160002054846040516102a89291906109c5565b60405180910390a380600160008473ffffffffffffffffffffffffffffffffffffffff1673ffffffffffffffffffffffffffffffffffffffff168152602001908152602001600020819055505050565b806103016105f6565b8061034b575080600160003373ffffffffffffffffffffffffffffffffffffffff1673ffffffffffffffffffffffffffffffffffffffff1681526020019081526020016000205410155b61038a576040517f08c379a00000000000000000000000000000000000000000000000000000000081526004016103819061094a565b60405180910390fd5b478211156103cd576040517f08c379a00000000000000000000000000000000000000000000000000000000081526004016103c49061098a565b60405180910390fd5b6103d56105f6565b6103e4576103e33383610633565b5b8273ffffffffffffffffffffffffffffffffffffffff166108fc839081150290604051600060405180830381858888f1935050505015801561042a573d6000803e3d6000fd5b50505050565b6104386104b4565b600073ffffffffffffffffffffffffffffffffffffffff168173ffffffffffffffffffffffffffffffffffffffff1614156104a8576040517f08c379a000000000000000000000000000000000000000000000000000000000815260040161049f9061092a565b60405180910390fd5b6104b181610532565b50565b6104bc61077d565b73ffffffffffffffffffffffffffffffffffffffff166104da6101d9565b73ffffffffffffffffffffffffffffffffffffffff1614610530576040517f08c379a00000000000000000000000000000000000000000000000000000000081526004016105279061096a565b60405180910390fd5b565b60008060009054906101000a900473ffffffffffffffffffffffffffffffffffffffff169050816000806101000a81548173ffffffffffffffffffffffffffffffffffffffff021916908373ffffffffffffffffffffffffffffffffffffffff1602179055508173ffffffffffffffffffffffffffffffffffffffff168173ffffffffffffffffffffffffffffffffffffffff167f8be0079c531659141344cd1fd0a4f28419497f9722a3daafe3b4186f6b6457e060405160405180910390a35050565b60003373ffffffffffffffffffffffffffffffffffffffff166106176101d9565b73ffffffffffffffffffffffffffffffffffffffff1614905090565b3373ffffffffffffffffffffffffffffffffffffffff168273ffffffffffffffffffffffffffffffffffffffff167f3691d1a86d99355e52b689ca70a7bdf6d80763237a6aa06e5fa43964eac7244b600160008673ffffffffffffffffffffffffffffffffffffffff1673ffffffffffffffffffffffffffffffffffffffff1681526020019081526020016000205484600160008873ffffffffffffffffffffffffffffffffffffffff1673ffffffffffffffffffffffffffffffffffffffff1681526020019081526020016000205461070d91906109ff565b60405161071b9291906109c5565b60405180910390a380600160008473ffffffffffffffffffffffffffffffffffffffff1673ffffffffffffffffffffffffffffffffffffffff168152602001908152602001600020600082825461077291906109ff565b925050819055505050565b600033905090565b60008135905061079481610ba0565b92915050565b6000813590506107a981610bb7565b92915050565b6000813590506107be81610bce565b92915050565b6000602082840312156107d657600080fd5b60006107e484828501610785565b91505092915050565b6000806040838503121561080057600080fd5b600061080e8582860161079a565b925050602061081f858286016107af565b9150509250929050565b6000806040838503121561083c57600080fd5b600061084a85828601610785565b925050602061085b858286016107af565b9150509250929050565b61086e81610a33565b82525050565b60006108816026836109ee565b915061088c82610ab0565b604082019050919050565b60006108a46014836109ee565b91506108af82610aff565b602082019050919050565b60006108c76020836109ee565b91506108d282610b28565b602082019050919050565b60006108ea6022836109ee565b91506108f582610b51565b604082019050919050565b61090981610a77565b82525050565b60006020820190506109246000830184610865565b92915050565b6000602082019050818103600083015261094381610874565b9050919050565b6000602082019050818103600083015261096381610897565b9050919050565b60006020820190508181036000830152610983816108ba565b9050919050565b600060208201905081810360008301526109a3816108dd565b9050919050565b60006020820190506109bf6000830184610900565b92915050565b60006040820190506109da6000830185610900565b6109e76020830184610900565b9392505050565b600082825260208201905092915050565b6000610a0a82610a77565b9150610a1583610a77565b925082821015610a2857610a27610a81565b5b828203905092915050565b6000610a3e82610a57565b9050919050565b6000610a5082610a57565b9050919050565b600073ffffffffffffffffffffffffffffffffffffffff82169050919050565b6000819050919050565b7f4e487b7100000000000000000000000000000000000000000000000000000000600052601160045260246000fd5b7f4f776e61626c653a206e6577206f776e657220697320746865207a65726f206160008201527f6464726573730000000000000000000000000000000000000000000000000000602082015250565b7f596f7520617265206e6f7420616c6c6f7765642e000000000000000000000000600082015250565b7f4f776e61626c653a2063616c6c6572206973206e6f7420746865206f776e6572600082015250565b7f436f6e747261637420646f65736e2774206f776e20656e6f756768206d6f6e6560008201527f7921000000000000000000000000000000000000000000000000000000000000602082015250565b610ba981610a33565b8114610bb457600080fd5b50565b610bc081610a45565b8114610bcb57600080fd5b50565b610bd781610a77565b8114610be257600080fd5b5056fea264697066735822122034fea4713162d0ba85c96fb40effe9e9785de7cae96a0b635c3f9906f6bc8ba364736f6c63430008010033",
					"opcodes": "PUSH1 0x80 PUSH1 0x40 MSTORE CALLVALUE DUP1 ISZERO PUSH2 0x10 JUMPI PUSH1 0x0 DUP1 REVERT JUMPDEST POP PUSH2 0x2D PUSH2 0x22 PUSH2 0x32 PUSH1 0x20 SHL PUSH1 0x20 SHR JUMP JUMPDEST PUSH2 0x3A PUSH1 0x20 SHL PUSH1 0x20 SHR JUMP JUMPDEST PUSH2 0xFE JUMP JUMPDEST PUSH1 0x0 CALLER SWAP1 POP SWAP1 JUMP JUMPDEST PUSH1 0x0 DUP1 PUSH1 0x0 SWAP1 SLOAD SWAP1 PUSH2 0x100 EXP SWAP1 DIV PUSH20 0xFFFFFFFFFFFFFFFFFFFFFFFFFFFFFFFFFFFFFFFF AND SWAP1 POP DUP2 PUSH1 0x0 DUP1 PUSH2 0x100 EXP DUP2 SLOAD DUP2 PUSH20 0xFFFFFFFFFFFFFFFFFFFFFFFFFFFFFFFFFFFFFFFF MUL NOT AND SWAP1 DUP4 PUSH20 0xFFFFFFFFFFFFFFFFFFFFFFFFFFFFFFFFFFFFFFFF AND MUL OR SWAP1 SSTORE POP DUP2 PUSH20 0xFFFFFFFFFFFFFFFFFFFFFFFFFFFFFFFFFFFFFFFF AND DUP2 PUSH20 0xFFFFFFFFFFFFFFFFFFFFFFFFFFFFFFFFFFFFFFFF AND PUSH32 0x8BE0079C531659141344CD1FD0A4F28419497F9722A3DAAFE3B4186F6B6457E0 PUSH1 0x40 MLOAD PUSH1 0x40 MLOAD DUP1 SWAP2 SUB SWAP1 LOG3 POP POP JUMP JUMPDEST PUSH2 0xC1B DUP1 PUSH2 0x10D PUSH1 0x0 CODECOPY PUSH1 0x0 RETURN INVALID PUSH1 0x80 PUSH1 0x40 MSTORE PUSH1 0x4 CALLDATASIZE LT PUSH2 0x59 JUMPI PUSH1 0x0 CALLDATALOAD PUSH1 0xE0 SHR DUP1 PUSH4 0x3E5BEAB9 EQ PUSH2 0xB3 JUMPI DUP1 PUSH4 0x715018A6 EQ PUSH2 0xF0 JUMPI DUP1 PUSH4 0x8DA5CB5B EQ PUSH2 0x107 JUMPI DUP1 PUSH4 0xDA8362EF EQ PUSH2 0x132 JUMPI DUP1 PUSH4 0xF274C897 EQ PUSH2 0x15B JUMPI DUP1 PUSH4 0xF2FDE38B EQ PUSH2 0x184 JUMPI PUSH2 0xAE JUMP JUMPDEST CALLDATASIZE PUSH2 0xAE JUMPI CALLER PUSH20 0xFFFFFFFFFFFFFFFFFFFFFFFFFFFFFFFFFFFFFFFF AND PUSH32 0x27B15ED4CF832749ED39F33A64E4707ED60A761485E41FFEC7343ECADDC0C02A CALLVALUE PUSH1 0x40 MLOAD PUSH2 0xA4 SWAP2 SWAP1 PUSH2 0x9AA JUMP JUMPDEST PUSH1 0x40 MLOAD DUP1 SWAP2 SUB SWAP1 LOG2 STOP JUMPDEST PUSH1 0x0 DUP1 REVERT JUMPDEST CALLVALUE DUP1 ISZERO PUSH2 0xBF JUMPI PUSH1 0x0 DUP1 REVERT JUMPDEST POP PUSH2 0xDA PUSH1 0x4 DUP1 CALLDATASIZE SUB DUP2 ADD SWAP1 PUSH2 0xD5 SWAP2 SWAP1 PUSH2 0x7C4 JUMP JUMPDEST PUSH2 0x1AD JUMP JUMPDEST PUSH1 0x40 MLOAD PUSH2 0xE7 SWAP2 SWAP1 PUSH2 0x9AA JUMP JUMPDEST PUSH1 0x40 MLOAD DUP1 SWAP2 SUB SWAP1 RETURN JUMPDEST CALLVALUE DUP1 ISZERO PUSH2 0xFC JUMPI PUSH1 0x0 DUP1 REVERT JUMPDEST POP PUSH2 0x105 PUSH2 0x1C5 JUMP JUMPDEST STOP JUMPDEST CALLVALUE DUP1 ISZERO PUSH2 0x113 JUMPI PUSH1 0x0 DUP1 REVERT JUMPDEST POP PUSH2 0x11C PUSH2 0x1D9 JUMP JUMPDEST PUSH1 0x40 MLOAD PUSH2 0x129 SWAP2 SWAP1 PUSH2 0x90F JUMP JUMPDEST PUSH1 0x40 MLOAD DUP1 SWAP2 SUB SWAP1 RETURN JUMPDEST CALLVALUE DUP1 ISZERO PUSH2 0x13E JUMPI PUSH1 0x0 DUP1 REVERT JUMPDEST POP PUSH2 0x159 PUSH1 0x4 DUP1 CALLDATASIZE SUB DUP2 ADD SWAP1 PUSH2 0x154 SWAP2 SWAP1 PUSH2 0x829 JUMP JUMPDEST PUSH2 0x202 JUMP JUMPDEST STOP JUMPDEST CALLVALUE DUP1 ISZERO PUSH2 0x167 JUMPI PUSH1 0x0 DUP1 REVERT JUMPDEST POP PUSH2 0x182 PUSH1 0x4 DUP1 CALLDATASIZE SUB DUP2 ADD SWAP1 PUSH2 0x17D SWAP2 SWAP1 PUSH2 0x7ED JUMP JUMPDEST PUSH2 0x2F8 JUMP JUMPDEST STOP JUMPDEST CALLVALUE DUP1 ISZERO PUSH2 0x190 JUMPI PUSH1 0x0 DUP1 REVERT JUMPDEST POP PUSH2 0x1AB PUSH1 0x4 DUP1 CALLDATASIZE SUB DUP2 ADD SWAP1 PUSH2 0x1A6 SWAP2 SWAP1 PUSH2 0x7C4 JUMP JUMPDEST PUSH2 0x430 JUMP JUMPDEST STOP JUMPDEST PUSH1 0x1 PUSH1 0x20 MSTORE DUP1 PUSH1 0x0 MSTORE PUSH1 0x40 PUSH1 0x0 KECCAK256 PUSH1 0x0 SWAP2 POP SWAP1 POP SLOAD DUP2 JUMP JUMPDEST PUSH2 0x1CD PUSH2 0x4B4 JUMP JUMPDEST PUSH2 0x1D7 PUSH1 0x0 PUSH2 0x532 JUMP JUMPDEST JUMP JUMPDEST PUSH1 0x0 DUP1 PUSH1 0x0 SWAP1 SLOAD SWAP1 PUSH2 0x100 EXP SWAP1 DIV PUSH20 0xFFFFFFFFFFFFFFFFFFFFFFFFFFFFFFFFFFFFFFFF AND SWAP1 POP SWAP1 JUMP JUMPDEST PUSH2 0x20A PUSH2 0x4B4 JUMP JUMPDEST CALLER PUSH20 0xFFFFFFFFFFFFFFFFFFFFFFFFFFFFFFFFFFFFFFFF AND DUP3 PUSH20 0xFFFFFFFFFFFFFFFFFFFFFFFFFFFFFFFFFFFFFFFF AND PUSH32 0x3691D1A86D99355E52B689CA70A7BDF6D80763237A6AA06E5FA43964EAC7244B PUSH1 0x1 PUSH1 0x0 DUP7 PUSH20 0xFFFFFFFFFFFFFFFFFFFFFFFFFFFFFFFFFFFFFFFF AND PUSH20 0xFFFFFFFFFFFFFFFFFFFFFFFFFFFFFFFFFFFFFFFF AND DUP2 MSTORE PUSH1 0x20 ADD SWAP1 DUP2 MSTORE PUSH1 0x20 ADD PUSH1 0x0 KECCAK256 SLOAD DUP5 PUSH1 0x40 MLOAD PUSH2 0x2A8 SWAP3 SWAP2 SWAP1 PUSH2 0x9C5 JUMP JUMPDEST PUSH1 0x40 MLOAD DUP1 SWAP2 SUB SWAP1 LOG3 DUP1 PUSH1 0x1 PUSH1 0x0 DUP5 PUSH20 0xFFFFFFFFFFFFFFFFFFFFFFFFFFFFFFFFFFFFFFFF AND PUSH20 0xFFFFFFFFFFFFFFFFFFFFFFFFFFFFFFFFFFFFFFFF AND DUP2 MSTORE PUSH1 0x20 ADD SWAP1 DUP2 MSTORE PUSH1 0x20 ADD PUSH1 0x0 KECCAK256 DUP2 SWAP1 SSTORE POP POP POP JUMP JUMPDEST DUP1 PUSH2 0x301 PUSH2 0x5F6 JUMP JUMPDEST DUP1 PUSH2 0x34B JUMPI POP DUP1 PUSH1 0x1 PUSH1 0x0 CALLER PUSH20 0xFFFFFFFFFFFFFFFFFFFFFFFFFFFFFFFFFFFFFFFF AND PUSH20 0xFFFFFFFFFFFFFFFFFFFFFFFFFFFFFFFFFFFFFFFF AND DUP2 MSTORE PUSH1 0x20 ADD SWAP1 DUP2 MSTORE PUSH1 0x20 ADD PUSH1 0x0 KECCAK256 SLOAD LT ISZERO JUMPDEST PUSH2 0x38A JUMPI PUSH1 0x40 MLOAD PUSH32 0x8C379A000000000000000000000000000000000000000000000000000000000 DUP2 MSTORE PUSH1 0x4 ADD PUSH2 0x381 SWAP1 PUSH2 0x94A JUMP JUMPDEST PUSH1 0x40 MLOAD DUP1 SWAP2 SUB SWAP1 REVERT JUMPDEST SELFBALANCE DUP3 GT ISZERO PUSH2 0x3CD JUMPI PUSH1 0x40 MLOAD PUSH32 0x8C379A000000000000000000000000000000000000000000000000000000000 DUP2 MSTORE PUSH1 0x4 ADD PUSH2 0x3C4 SWAP1 PUSH2 0x98A JUMP JUMPDEST PUSH1 0x40 MLOAD DUP1 SWAP2 SUB SWAP1 REVERT JUMPDEST PUSH2 0x3D5 PUSH2 0x5F6 JUMP JUMPDEST PUSH2 0x3E4 JUMPI PUSH2 0x3E3 CALLER DUP4 PUSH2 0x633 JUMP JUMPDEST JUMPDEST DUP3 PUSH20 0xFFFFFFFFFFFFFFFFFFFFFFFFFFFFFFFFFFFFFFFF AND PUSH2 0x8FC DUP4 SWAP1 DUP2 ISZERO MUL SWAP1 PUSH1 0x40 MLOAD PUSH1 0x0 PUSH1 0x40 MLOAD DUP1 DUP4 SUB DUP2 DUP6 DUP9 DUP9 CALL SWAP4 POP POP POP POP ISZERO DUP1 ISZERO PUSH2 0x42A JUMPI RETURNDATASIZE PUSH1 0x0 DUP1 RETURNDATACOPY RETURNDATASIZE PUSH1 0x0 REVERT JUMPDEST POP POP POP POP JUMP JUMPDEST PUSH2 0x438 PUSH2 0x4B4 JUMP JUMPDEST PUSH1 0x0 PUSH20 0xFFFFFFFFFFFFFFFFFFFFFFFFFFFFFFFFFFFFFFFF AND DUP2 PUSH20 0xFFFFFFFFFFFFFFFFFFFFFFFFFFFFFFFFFFFFFFFF AND EQ ISZERO PUSH2 0x4A8 JUMPI PUSH1 0x40 MLOAD PUSH32 0x8C379A000000000000000000000000000000000000000000000000000000000 DUP2 MSTORE PUSH1 0x4 ADD PUSH2 0x49F SWAP1 PUSH2 0x92A JUMP JUMPDEST PUSH1 0x40 MLOAD DUP1 SWAP2 SUB SWAP1 REVERT JUMPDEST PUSH2 0x4B1 DUP2 PUSH2 0x532 JUMP JUMPDEST POP JUMP JUMPDEST PUSH2 0x4BC PUSH2 0x77D JUMP JUMPDEST PUSH20 0xFFFFFFFFFFFFFFFFFFFFFFFFFFFFFFFFFFFFFFFF AND PUSH2 0x4DA PUSH2 0x1D9 JUMP JUMPDEST PUSH20 0xFFFFFFFFFFFFFFFFFFFFFFFFFFFFFFFFFFFFFFFF AND EQ PUSH2 0x530 JUMPI PUSH1 0x40 MLOAD PUSH32 0x8C379A000000000000000000000000000000000000000000000000000000000 DUP2 MSTORE PUSH1 0x4 ADD PUSH2 0x527 SWAP1 PUSH2 0x96A JUMP JUMPDEST PUSH1 0x40 MLOAD DUP1 SWAP2 SUB SWAP1 REVERT JUMPDEST JUMP JUMPDEST PUSH1 0x0 DUP1 PUSH1 0x0 SWAP1 SLOAD SWAP1 PUSH2 0x100 EXP SWAP1 DIV PUSH20 0xFFFFFFFFFFFFFFFFFFFFFFFFFFFFFFFFFFFFFFFF AND SWAP1 POP DUP2 PUSH1 0x0 DUP1 PUSH2 0x100 EXP DUP2 SLOAD DUP2 PUSH20 0xFFFFFFFFFFFFFFFFFFFFFFFFFFFFFFFFFFFFFFFF MUL NOT AND SWAP1 DUP4 PUSH20 0xFFFFFFFFFFFFFFFFFFFFFFFFFFFFFFFFFFFFFFFF AND MUL OR SWAP1 SSTORE POP DUP2 PUSH20 0xFFFFFFFFFFFFFFFFFFFFFFFFFFFFFFFFFFFFFFFF AND DUP2 PUSH20 0xFFFFFFFFFFFFFFFFFFFFFFFFFFFFFFFFFFFFFFFF AND PUSH32 0x8BE0079C531659141344CD1FD0A4F28419497F9722A3DAAFE3B4186F6B6457E0 PUSH1 0x40 MLOAD PUSH1 0x40 MLOAD DUP1 SWAP2 SUB SWAP1 LOG3 POP POP JUMP JUMPDEST PUSH1 0x0 CALLER PUSH20 0xFFFFFFFFFFFFFFFFFFFFFFFFFFFFFFFFFFFFFFFF AND PUSH2 0x617 PUSH2 0x1D9 JUMP JUMPDEST PUSH20 0xFFFFFFFFFFFFFFFFFFFFFFFFFFFFFFFFFFFFFFFF AND EQ SWAP1 POP SWAP1 JUMP JUMPDEST CALLER PUSH20 0xFFFFFFFFFFFFFFFFFFFFFFFFFFFFFFFFFFFFFFFF AND DUP3 PUSH20 0xFFFFFFFFFFFFFFFFFFFFFFFFFFFFFFFFFFFFFFFF AND PUSH32 0x3691D1A86D99355E52B689CA70A7BDF6D80763237A6AA06E5FA43964EAC7244B PUSH1 0x1 PUSH1 0x0 DUP7 PUSH20 0xFFFFFFFFFFFFFFFFFFFFFFFFFFFFFFFFFFFFFFFF AND PUSH20 0xFFFFFFFFFFFFFFFFFFFFFFFFFFFFFFFFFFFFFFFF AND DUP2 MSTORE PUSH1 0x20 ADD SWAP1 DUP2 MSTORE PUSH1 0x20 ADD PUSH1 0x0 KECCAK256 SLOAD DUP5 PUSH1 0x1 PUSH1 0x0 DUP9 PUSH20 0xFFFFFFFFFFFFFFFFFFFFFFFFFFFFFFFFFFFFFFFF AND PUSH20 0xFFFFFFFFFFFFFFFFFFFFFFFFFFFFFFFFFFFFFFFF AND DUP2 MSTORE PUSH1 0x20 ADD SWAP1 DUP2 MSTORE PUSH1 0x20 ADD PUSH1 0x0 KECCAK256 SLOAD PUSH2 0x70D SWAP2 SWAP1 PUSH2 0x9FF JUMP JUMPDEST PUSH1 0x40 MLOAD PUSH2 0x71B SWAP3 SWAP2 SWAP1 PUSH2 0x9C5 JUMP JUMPDEST PUSH1 0x40 MLOAD DUP1 SWAP2 SUB SWAP1 LOG3 DUP1 PUSH1 0x1 PUSH1 0x0 DUP5 PUSH20 0xFFFFFFFFFFFFFFFFFFFFFFFFFFFFFFFFFFFFFFFF AND PUSH20 0xFFFFFFFFFFFFFFFFFFFFFFFFFFFFFFFFFFFFFFFF AND DUP2 MSTORE PUSH1 0x20 ADD SWAP1 DUP2 MSTORE PUSH1 0x20 ADD PUSH1 0x0 KECCAK256 PUSH1 0x0 DUP3 DUP3 SLOAD PUSH2 0x772 SWAP2 SWAP1 PUSH2 0x9FF JUMP JUMPDEST SWAP3 POP POP DUP2 SWAP1 SSTORE POP POP POP JUMP JUMPDEST PUSH1 0x0 CALLER SWAP1 POP SWAP1 JUMP JUMPDEST PUSH1 0x0 DUP2 CALLDATALOAD SWAP1 POP PUSH2 0x794 DUP2 PUSH2 0xBA0 JUMP JUMPDEST SWAP3 SWAP2 POP POP JUMP JUMPDEST PUSH1 0x0 DUP2 CALLDATALOAD SWAP1 POP PUSH2 0x7A9 DUP2 PUSH2 0xBB7 JUMP JUMPDEST SWAP3 SWAP2 POP POP JUMP JUMPDEST PUSH1 0x0 DUP2 CALLDATALOAD SWAP1 POP PUSH2 0x7BE DUP2 PUSH2 0xBCE JUMP JUMPDEST SWAP3 SWAP2 POP POP JUMP JUMPDEST PUSH1 0x0 PUSH1 0x20 DUP3 DUP5 SUB SLT ISZERO PUSH2 0x7D6 JUMPI PUSH1 0x0 DUP1 REVERT JUMPDEST PUSH1 0x0 PUSH2 0x7E4 DUP5 DUP3 DUP6 ADD PUSH2 0x785 JUMP JUMPDEST SWAP2 POP POP SWAP3 SWAP2 POP POP JUMP JUMPDEST PUSH1 0x0 DUP1 PUSH1 0x40 DUP4 DUP6 SUB SLT ISZERO PUSH2 0x800 JUMPI PUSH1 0x0 DUP1 REVERT JUMPDEST PUSH1 0x0 PUSH2 0x80E DUP6 DUP3 DUP7 ADD PUSH2 0x79A JUMP JUMPDEST SWAP3 POP POP PUSH1 0x20 PUSH2 0x81F DUP6 DUP3 DUP7 ADD PUSH2 0x7AF JUMP JUMPDEST SWAP2 POP POP SWAP3 POP SWAP3 SWAP1 POP JUMP JUMPDEST PUSH1 0x0 DUP1 PUSH1 0x40 DUP4 DUP6 SUB SLT ISZERO PUSH2 0x83C JUMPI PUSH1 0x0 DUP1 REVERT JUMPDEST PUSH1 0x0 PUSH2 0x84A DUP6 DUP3 DUP7 ADD PUSH2 0x785 JUMP JUMPDEST SWAP3 POP POP PUSH1 0x20 PUSH2 0x85B DUP6 DUP3 DUP7 ADD PUSH2 0x7AF JUMP JUMPDEST SWAP2 POP POP SWAP3 POP SWAP3 SWAP1 POP JUMP JUMPDEST PUSH2 0x86E DUP2 PUSH2 0xA33 JUMP JUMPDEST DUP3 MSTORE POP POP JUMP JUMPDEST PUSH1 0x0 PUSH2 0x881 PUSH1 0x26 DUP4 PUSH2 0x9EE JUMP JUMPDEST SWAP2 POP PUSH2 0x88C DUP3 PUSH2 0xAB0 JUMP JUMPDEST PUSH1 0x40 DUP3 ADD SWAP1 POP SWAP2 SWAP1 POP JUMP JUMPDEST PUSH1 0x0 PUSH2 0x8A4 PUSH1 0x14 DUP4 PUSH2 0x9EE JUMP JUMPDEST SWAP2 POP PUSH2 0x8AF DUP3 PUSH2 0xAFF JUMP JUMPDEST PUSH1 0x20 DUP3 ADD SWAP1 POP SWAP2 SWAP1 POP JUMP JUMPDEST PUSH1 0x0 PUSH2 0x8C7 PUSH1 0x20 DUP4 PUSH2 0x9EE JUMP JUMPDEST SWAP2 POP PUSH2 0x8D2 DUP3 PUSH2 0xB28 JUMP JUMPDEST PUSH1 0x20 DUP3 ADD SWAP1 POP SWAP2 SWAP1 POP JUMP JUMPDEST PUSH1 0x0 PUSH2 0x8EA PUSH1 0x22 DUP4 PUSH2 0x9EE JUMP JUMPDEST SWAP2 POP PUSH2 0x8F5 DUP3 PUSH2 0xB51 JUMP JUMPDEST PUSH1 0x40 DUP3 ADD SWAP1 POP SWAP2 SWAP1 POP JUMP JUMPDEST PUSH2 0x909 DUP2 PUSH2 0xA77 JUMP JUMPDEST DUP3 MSTORE POP POP JUMP JUMPDEST PUSH1 0x0 PUSH1 0x20 DUP3 ADD SWAP1 POP PUSH2 0x924 PUSH1 0x0 DUP4 ADD DUP5 PUSH2 0x865 JUMP JUMPDEST SWAP3 SWAP2 POP POP JUMP JUMPDEST PUSH1 0x0 PUSH1 0x20 DUP3 ADD SWAP1 POP DUP2 DUP2 SUB PUSH1 0x0 DUP4 ADD MSTORE PUSH2 0x943 DUP2 PUSH2 0x874 JUMP JUMPDEST SWAP1 POP SWAP2 SWAP1 POP JUMP JUMPDEST PUSH1 0x0 PUSH1 0x20 DUP3 ADD SWAP1 POP DUP2 DUP2 SUB PUSH1 0x0 DUP4 ADD MSTORE PUSH2 0x963 DUP2 PUSH2 0x897 JUMP JUMPDEST SWAP1 POP SWAP2 SWAP1 POP JUMP JUMPDEST PUSH1 0x0 PUSH1 0x20 DUP3 ADD SWAP1 POP DUP2 DUP2 SUB PUSH1 0x0 DUP4 ADD MSTORE PUSH2 0x983 DUP2 PUSH2 0x8BA JUMP JUMPDEST SWAP1 POP SWAP2 SWAP1 POP JUMP JUMPDEST PUSH1 0x0 PUSH1 0x20 DUP3 ADD SWAP1 POP DUP2 DUP2 SUB PUSH1 0x0 DUP4 ADD MSTORE PUSH2 0x9A3 DUP2 PUSH2 0x8DD JUMP JUMPDEST SWAP1 POP SWAP2 SWAP1 POP JUMP JUMPDEST PUSH1 0x0 PUSH1 0x20 DUP3 ADD SWAP1 POP PUSH2 0x9BF PUSH1 0x0 DUP4 ADD DUP5 PUSH2 0x900 JUMP JUMPDEST SWAP3 SWAP2 POP POP JUMP JUMPDEST PUSH1 0x0 PUSH1 0x40 DUP3 ADD SWAP1 POP PUSH2 0x9DA PUSH1 0x0 DUP4 ADD DUP6 PUSH2 0x900 JUMP JUMPDEST PUSH2 0x9E7 PUSH1 0x20 DUP4 ADD DUP5 PUSH2 0x900 JUMP JUMPDEST SWAP4 SWAP3 POP POP POP JUMP JUMPDEST PUSH1 0x0 DUP3 DUP3 MSTORE PUSH1 0x20 DUP3 ADD SWAP1 POP SWAP3 SWAP2 POP POP JUMP JUMPDEST PUSH1 0x0 PUSH2 0xA0A DUP3 PUSH2 0xA77 JUMP JUMPDEST SWAP2 POP PUSH2 0xA15 DUP4 PUSH2 0xA77 JUMP JUMPDEST SWAP3 POP DUP3 DUP3 LT ISZERO PUSH2 0xA28 JUMPI PUSH2 0xA27 PUSH2 0xA81 JUMP JUMPDEST JUMPDEST DUP3 DUP3 SUB SWAP1 POP SWAP3 SWAP2 POP POP JUMP JUMPDEST PUSH1 0x0 PUSH2 0xA3E DUP3 PUSH2 0xA57 JUMP JUMPDEST SWAP1 POP SWAP2 SWAP1 POP JUMP JUMPDEST PUSH1 0x0 PUSH2 0xA50 DUP3 PUSH2 0xA57 JUMP JUMPDEST SWAP1 POP SWAP2 SWAP1 POP JUMP JUMPDEST PUSH1 0x0 PUSH20 0xFFFFFFFFFFFFFFFFFFFFFFFFFFFFFFFFFFFFFFFF DUP3 AND SWAP1 POP SWAP2 SWAP1 POP JUMP JUMPDEST PUSH1 0x0 DUP2 SWAP1 POP SWAP2 SWAP1 POP JUMP JUMPDEST PUSH32 0x4E487B7100000000000000000000000000000000000000000000000000000000 PUSH1 0x0 MSTORE PUSH1 0x11 PUSH1 0x4 MSTORE PUSH1 0x24 PUSH1 0x0 REVERT JUMPDEST PUSH32 0x4F776E61626C653A206E6577206F776E657220697320746865207A65726F2061 PUSH1 0x0 DUP3 ADD MSTORE PUSH32 0x6464726573730000000000000000000000000000000000000000000000000000 PUSH1 0x20 DUP3 ADD MSTORE POP JUMP JUMPDEST PUSH32 0x596F7520617265206E6F7420616C6C6F7765642E000000000000000000000000 PUSH1 0x0 DUP3 ADD MSTORE POP JUMP JUMPDEST PUSH32 0x4F776E61626C653A2063616C6C6572206973206E6F7420746865206F776E6572 PUSH1 0x0 DUP3 ADD MSTORE POP JUMP JUMPDEST PUSH32 0x436F6E747261637420646F65736E2774206F776E20656E6F756768206D6F6E65 PUSH1 0x0 DUP3 ADD MSTORE PUSH32 0x7921000000000000000000000000000000000000000000000000000000000000 PUSH1 0x20 DUP3 ADD MSTORE POP JUMP JUMPDEST PUSH2 0xBA9 DUP2 PUSH2 0xA33 JUMP JUMPDEST DUP2 EQ PUSH2 0xBB4 JUMPI PUSH1 0x0 DUP1 REVERT JUMPDEST POP JUMP JUMPDEST PUSH2 0xBC0 DUP2 PUSH2 0xA45 JUMP JUMPDEST DUP2 EQ PUSH2 0xBCB JUMPI PUSH1 0x0 DUP1 REVERT JUMPDEST POP JUMP JUMPDEST PUSH2 0xBD7 DUP2 PUSH2 0xA77 JUMP JUMPDEST DUP2 EQ PUSH2 0xBE2 JUMPI PUSH1 0x0 DUP1 REVERT JUMPDEST POP JUMP INVALID LOG2 PUSH5 0x6970667358 0x22 SLT KECCAK256 CALLVALUE INVALID LOG4 PUSH18 0x3162D0BA85C96FB40EFFE9E9785DE7CAE96A SIGNEXTEND PUSH4 0x5C3F9906 0xF6 0xBC DUP12 LOG3 PUSH5 0x736F6C6343 STOP ADDMOD ADD STOP CALLER "
				},
				"gasEstimates": {
					"creation": {
						"codeDepositCost": "619800",
						"executionCost": "infinite",
						"totalCost": "infinite"
					},
					"external": {
						"allowance(address)": "1492",
						"owner()": "1244",
						"renounceOwnership()": "24398",
						"setAllownace(address,uint256)": "infinite",
						"transferOwnership(address)": "24835",
						"withdrawMoney(address,uint256)": "infinite"
					}
				},
				"methodIdentifiers": {
					"allowance(address)": "3e5beab9",
					"owner()": "8da5cb5b",
					"renounceOwnership()": "715018a6",
					"setAllownace(address,uint256)": "da8362ef",
					"transferOwnership(address)": "f2fde38b",
					"withdrawMoney(address,uint256)": "f274c897"
				}
			},
			"storageLayout": {
				"storage": [
					{
						"astId": 177,
						"contract": "SharedWallet.sol:SharedWallet",
						"label": "_owner",
						"offset": 0,
						"slot": "0",
						"type": "t_address"
					},
					{
						"astId": 18,
						"contract": "SharedWallet.sol:SharedWallet",
						"label": "allowance",
						"offset": 0,
						"slot": "1",
						"type": "t_mapping(t_address,t_uint256)"
					}
				],
				"types": {
					"t_address": {
						"encoding": "inplace",
						"label": "address",
						"numberOfBytes": "20"
					},
					"t_mapping(t_address,t_uint256)": {
						"encoding": "mapping",
						"key": "t_address",
						"label": "mapping(address => uint256)",
						"numberOfBytes": "32",
						"value": "t_uint256"
					},
					"t_uint256": {
						"encoding": "inplace",
						"label": "uint256",
						"numberOfBytes": "32"
					}
				}
			},
			"userdoc": {
				"kind": "user",
				"methods": {},
				"version": 1
			}
		}
	}
}