{
	"SharedWallet.sol": {
		"SharedWallet": {
			"abi": [
				{
					"anonymous": false,
					"inputs": [
						{
							"indexed": true,
							"internalType": "address",
							"name": "previousOwner",
							"type": "address"
						},
						{
							"indexed": true,
							"internalType": "address",
							"name": "newOwner",
							"type": "address"
						}
					],
					"name": "OwnershipTransferred",
					"type": "event"
				},
				{
					"inputs": [
						{
							"internalType": "address",
							"name": "_who",
							"type": "address"
						},
						{
							"internalType": "uint256",
							"name": "_amount",
							"type": "uint256"
						}
					],
					"name": "addAllowance",
					"outputs": [],
					"stateMutability": "nonpayable",
					"type": "function"
				},
				{
					"inputs": [
						{
							"internalType": "address",
							"name": "",
							"type": "address"
						}
					],
					"name": "allowance",
					"outputs": [
						{
							"internalType": "uint256",
							"name": "",
							"type": "uint256"
						}
					],
					"stateMutability": "view",
					"type": "function"
				},
				{
					"inputs": [],
					"name": "owner",
					"outputs": [
						{
							"internalType": "address",
							"name": "",
							"type": "address"
						}
					],
					"stateMutability": "view",
					"type": "function"
				},
				{
					"inputs": [],
					"name": "renounceOwnership",
					"outputs": [],
					"stateMutability": "nonpayable",
					"type": "function"
				},
				{
					"inputs": [
						{
							"internalType": "address",
							"name": "newOwner",
							"type": "address"
						}
					],
					"name": "transferOwnership",
					"outputs": [],
					"stateMutability": "nonpayable",
					"type": "function"
				},
				{
					"inputs": [
						{
							"internalType": "address payable",
							"name": "_to",
							"type": "address"
						},
						{
							"internalType": "uint256",
							"name": "_amount",
							"type": "uint256"
						}
					],
					"name": "withdrawMoney",
					"outputs": [],
					"stateMutability": "nonpayable",
					"type": "function"
				},
				{
					"stateMutability": "payable",
					"type": "receive"
				}
			],
			"devdoc": {
				"kind": "dev",
				"methods": {
					"owner()": {
						"details": "Returns the address of the current owner."
					},
					"renounceOwnership()": {
						"details": "Leaves the contract without owner. It will not be possible to call `onlyOwner` functions anymore. Can only be called by the current owner. NOTE: Renouncing ownership will leave the contract without an owner, thereby removing any functionality that is only available to the owner."
					},
					"transferOwnership(address)": {
						"details": "Transfers ownership of the contract to a new account (`newOwner`). Can only be called by the current owner."
					}
				},
				"version": 1
			},
			"evm": {
				"assembly": "    /* \"SharedWallet.sol\":163:979  contract SharedWallet is Ownable {... */\n  mstore(0x40, 0x80)\n  callvalue\n  dup1\n  iszero\n  tag_1\n  jumpi\n  0x00\n  dup1\n  revert\ntag_1:\n  pop\n    /* \"https://github.com/OpenZeppelin/openzeppelin-contracts/blob/master/contracts/access/Ownable.sol\":936:968  _transferOwnership(_msgSender()) */\n  tag_4\n    /* \"https://github.com/OpenZeppelin/openzeppelin-contracts/blob/master/contracts/access/Ownable.sol\":955:967  _msgSender() */\n  tag_5\n    /* \"https://github.com/OpenZeppelin/openzeppelin-contracts/blob/master/contracts/access/Ownable.sol\":955:965  _msgSender */\n  shl(0x20, tag_6)\n    /* \"https://github.com/OpenZeppelin/openzeppelin-contracts/blob/master/contracts/access/Ownable.sol\":955:967  _msgSender() */\n  0x20\n  shr\n  jump\t// in\ntag_5:\n    /* \"https://github.com/OpenZeppelin/openzeppelin-contracts/blob/master/contracts/access/Ownable.sol\":936:954  _transferOwnership */\n  shl(0x20, tag_7)\n    /* \"https://github.com/OpenZeppelin/openzeppelin-contracts/blob/master/contracts/access/Ownable.sol\":936:968  _transferOwnership(_msgSender()) */\n  0x20\n  shr\n  jump\t// in\ntag_4:\n    /* \"SharedWallet.sol\":163:979  contract SharedWallet is Ownable {... */\n  jump(tag_8)\n    /* \"https://github.com/OpenZeppelin/openzeppelin-contracts/blob/master/contracts/utils/Context.sol\":640:736  function _msgSender() internal view virtual returns (address) {... */\ntag_6:\n    /* \"https://github.com/OpenZeppelin/openzeppelin-contracts/blob/master/contracts/utils/Context.sol\":693:700  address */\n  0x00\n    /* \"https://github.com/OpenZeppelin/openzeppelin-contracts/blob/master/contracts/utils/Context.sol\":719:729  msg.sender */\n  caller\n    /* \"https://github.com/OpenZeppelin/openzeppelin-contracts/blob/master/contracts/utils/Context.sol\":712:729  return msg.sender */\n  swap1\n  pop\n    /* \"https://github.com/OpenZeppelin/openzeppelin-contracts/blob/master/contracts/utils/Context.sol\":640:736  function _msgSender() internal view virtual returns (address) {... */\n  swap1\n  jump\t// out\n    /* \"https://github.com/OpenZeppelin/openzeppelin-contracts/blob/master/contracts/access/Ownable.sol\":2433:2620  function _transferOwnership(address newOwner) internal virtual {... */\ntag_7:\n    /* \"https://github.com/OpenZeppelin/openzeppelin-contracts/blob/master/contracts/access/Ownable.sol\":2506:2522  address oldOwner */\n  0x00\n    /* \"https://github.com/OpenZeppelin/openzeppelin-contracts/blob/master/contracts/access/Ownable.sol\":2525:2531  _owner */\n  dup1\n  0x00\n  swap1\n  sload\n  swap1\n  0x0100\n  exp\n  swap1\n  div\n  0xffffffffffffffffffffffffffffffffffffffff\n  and\n    /* \"https://github.com/OpenZeppelin/openzeppelin-contracts/blob/master/contracts/access/Ownable.sol\":2506:2531  address oldOwner = _owner */\n  swap1\n  pop\n    /* \"https://github.com/OpenZeppelin/openzeppelin-contracts/blob/master/contracts/access/Ownable.sol\":2550:2558  newOwner */\n  dup2\n    /* \"https://github.com/OpenZeppelin/openzeppelin-contracts/blob/master/contracts/access/Ownable.sol\":2541:2547  _owner */\n  0x00\n  dup1\n    /* \"https://github.com/OpenZeppelin/openzeppelin-contracts/blob/master/contracts/access/Ownable.sol\":2541:2558  _owner = newOwner */\n  0x0100\n  exp\n  dup2\n  sload\n  dup2\n  0xffffffffffffffffffffffffffffffffffffffff\n  mul\n  not\n  and\n  swap1\n  dup4\n  0xffffffffffffffffffffffffffffffffffffffff\n  and\n  mul\n  or\n  swap1\n  sstore\n  pop\n    /* \"https://github.com/OpenZeppelin/openzeppelin-contracts/blob/master/contracts/access/Ownable.sol\":2604:2612  newOwner */\n  dup2\n    /* \"https://github.com/OpenZeppelin/openzeppelin-contracts/blob/master/contracts/access/Ownable.sol\":2573:2613  OwnershipTransferred(oldOwner, newOwner) */\n  0xffffffffffffffffffffffffffffffffffffffff\n  and\n    /* \"https://github.com/OpenZeppelin/openzeppelin-contracts/blob/master/contracts/access/Ownable.sol\":2594:2602  oldOwner */\n  dup2\n    /* \"https://github.com/OpenZeppelin/openzeppelin-contracts/blob/master/contracts/access/Ownable.sol\":2573:2613  OwnershipTransferred(oldOwner, newOwner) */\n  0xffffffffffffffffffffffffffffffffffffffff\n  and\n  0x8be0079c531659141344cd1fd0a4f28419497f9722a3daafe3b4186f6b6457e0\n  mload(0x40)\n  mload(0x40)\n  dup1\n  swap2\n  sub\n  swap1\n  log3\n    /* \"https://github.com/OpenZeppelin/openzeppelin-contracts/blob/master/contracts/access/Ownable.sol\":2433:2620  function _transferOwnership(address newOwner) internal virtual {... */\n  pop\n  pop\n  jump\t// out\n    /* \"SharedWallet.sol\":163:979  contract SharedWallet is Ownable {... */\ntag_8:\n  dataSize(sub_0)\n  dup1\n  dataOffset(sub_0)\n  0x00\n  codecopy\n  0x00\n  return\nstop\n\nsub_0: assembly {\n        /* \"SharedWallet.sol\":163:979  contract SharedWallet is Ownable {... */\n      mstore(0x40, 0x80)\n      jumpi(tag_1, lt(calldatasize, 0x04))\n      shr(0xe0, calldataload(0x00))\n      dup1\n      0x3e5beab9\n      eq\n      tag_3\n      jumpi\n      dup1\n      0x715018a6\n      eq\n      tag_4\n      jumpi\n      dup1\n      0x8da5cb5b\n      eq\n      tag_5\n      jumpi\n      dup1\n      0xf274c897\n      eq\n      tag_6\n      jumpi\n      dup1\n      0xf2fde38b\n      eq\n      tag_7\n      jumpi\n      dup1\n      0xf3c40c4b\n      eq\n      tag_8\n      jumpi\n      jump(tag_2)\n    tag_1:\n      jumpi(tag_2, calldatasize)\n      stop\n    tag_2:\n      0x00\n      dup1\n      revert\n        /* \"SharedWallet.sol\":300:341  mapping(address => uint) public allowance */\n    tag_3:\n      callvalue\n      dup1\n      iszero\n      tag_11\n      jumpi\n      0x00\n      dup1\n      revert\n    tag_11:\n      pop\n      tag_12\n      0x04\n      dup1\n      calldatasize\n      sub\n      dup2\n      add\n      swap1\n      tag_13\n      swap2\n      swap1\n      tag_14\n      jump\t// in\n    tag_13:\n      tag_15\n      jump\t// in\n    tag_12:\n      mload(0x40)\n      tag_16\n      swap2\n      swap1\n      tag_17\n      jump\t// in\n    tag_16:\n      mload(0x40)\n      dup1\n      swap2\n      sub\n      swap1\n      return\n        /* \"https://github.com/OpenZeppelin/openzeppelin-contracts/blob/master/contracts/access/Ownable.sol\":1831:1932  function renounceOwnership() public virtual onlyOwner {... */\n    tag_4:\n      callvalue\n      dup1\n      iszero\n      tag_18\n      jumpi\n      0x00\n      dup1\n      revert\n    tag_18:\n      pop\n      tag_19\n      tag_20\n      jump\t// in\n    tag_19:\n      stop\n        /* \"https://github.com/OpenZeppelin/openzeppelin-contracts/blob/master/contracts/access/Ownable.sol\":1201:1286  function owner() public view virtual returns (address) {... */\n    tag_5:\n      callvalue\n      dup1\n      iszero\n      tag_21\n      jumpi\n      0x00\n      dup1\n      revert\n    tag_21:\n      pop\n      tag_22\n      tag_23\n      jump\t// in\n    tag_22:\n      mload(0x40)\n      tag_24\n      swap2\n      swap1\n      tag_25\n      jump\t// in\n    tag_24:\n      mload(0x40)\n      dup1\n      swap2\n      sub\n      swap1\n      return\n        /* \"SharedWallet.sol\":724:936  function withdrawMoney(address payable _to, uint _amount) public ownerOrAllowed(_amount) {... */\n    tag_6:\n      callvalue\n      dup1\n      iszero\n      tag_26\n      jumpi\n      0x00\n      dup1\n      revert\n    tag_26:\n      pop\n      tag_27\n      0x04\n      dup1\n      calldatasize\n      sub\n      dup2\n      add\n      swap1\n      tag_28\n      swap2\n      swap1\n      tag_29\n      jump\t// in\n    tag_28:\n      tag_30\n      jump\t// in\n    tag_27:\n      stop\n        /* \"https://github.com/OpenZeppelin/openzeppelin-contracts/blob/master/contracts/access/Ownable.sol\":2081:2279  function transferOwnership(address newOwner) public virtual onlyOwner {... */\n    tag_7:\n      callvalue\n      dup1\n      iszero\n      tag_31\n      jumpi\n      0x00\n      dup1\n      revert\n    tag_31:\n      pop\n      tag_32\n      0x04\n      dup1\n      calldatasize\n      sub\n      dup2\n      add\n      swap1\n      tag_33\n      swap2\n      swap1\n      tag_14\n      jump\t// in\n    tag_33:\n      tag_34\n      jump\t// in\n    tag_32:\n      stop\n        /* \"SharedWallet.sol\":348:457  function addAllowance(address _who, uint _amount) public onlyOwner {... */\n    tag_8:\n      callvalue\n      dup1\n      iszero\n      tag_35\n      jumpi\n      0x00\n      dup1\n      revert\n    tag_35:\n      pop\n      tag_36\n      0x04\n      dup1\n      calldatasize\n      sub\n      dup2\n      add\n      swap1\n      tag_37\n      swap2\n      swap1\n      tag_38\n      jump\t// in\n    tag_37:\n      tag_39\n      jump\t// in\n    tag_36:\n      stop\n        /* \"SharedWallet.sol\":300:341  mapping(address => uint) public allowance */\n    tag_15:\n      mstore(0x20, 0x01)\n      dup1\n      0x00\n      mstore\n      keccak256(0x00, 0x40)\n      0x00\n      swap2\n      pop\n      swap1\n      pop\n      sload\n      dup2\n      jump\t// out\n        /* \"https://github.com/OpenZeppelin/openzeppelin-contracts/blob/master/contracts/access/Ownable.sol\":1831:1932  function renounceOwnership() public virtual onlyOwner {... */\n    tag_20:\n        /* \"https://github.com/OpenZeppelin/openzeppelin-contracts/blob/master/contracts/access/Ownable.sol\":1094:1107  _checkOwner() */\n      tag_41\n        /* \"https://github.com/OpenZeppelin/openzeppelin-contracts/blob/master/contracts/access/Ownable.sol\":1094:1105  _checkOwner */\n      tag_42\n        /* \"https://github.com/OpenZeppelin/openzeppelin-contracts/blob/master/contracts/access/Ownable.sol\":1094:1107  _checkOwner() */\n      jump\t// in\n    tag_41:\n        /* \"https://github.com/OpenZeppelin/openzeppelin-contracts/blob/master/contracts/access/Ownable.sol\":1895:1925  _transferOwnership(address(0)) */\n      tag_44\n        /* \"https://github.com/OpenZeppelin/openzeppelin-contracts/blob/master/contracts/access/Ownable.sol\":1922:1923  0 */\n      0x00\n        /* \"https://github.com/OpenZeppelin/openzeppelin-contracts/blob/master/contracts/access/Ownable.sol\":1895:1913  _transferOwnership */\n      tag_45\n        /* \"https://github.com/OpenZeppelin/openzeppelin-contracts/blob/master/contracts/access/Ownable.sol\":1895:1925  _transferOwnership(address(0)) */\n      jump\t// in\n    tag_44:\n        /* \"https://github.com/OpenZeppelin/openzeppelin-contracts/blob/master/contracts/access/Ownable.sol\":1831:1932  function renounceOwnership() public virtual onlyOwner {... */\n      jump\t// out\n        /* \"https://github.com/OpenZeppelin/openzeppelin-contracts/blob/master/contracts/access/Ownable.sol\":1201:1286  function owner() public view virtual returns (address) {... */\n    tag_23:\n        /* \"https://github.com/OpenZeppelin/openzeppelin-contracts/blob/master/contracts/access/Ownable.sol\":1247:1254  address */\n      0x00\n        /* \"https://github.com/OpenZeppelin/openzeppelin-contracts/blob/master/contracts/access/Ownable.sol\":1273:1279  _owner */\n      dup1\n      0x00\n      swap1\n      sload\n      swap1\n      0x0100\n      exp\n      swap1\n      div\n      0xffffffffffffffffffffffffffffffffffffffff\n      and\n        /* \"https://github.com/OpenZeppelin/openzeppelin-contracts/blob/master/contracts/access/Ownable.sol\":1266:1279  return _owner */\n      swap1\n      pop\n        /* \"https://github.com/OpenZeppelin/openzeppelin-contracts/blob/master/contracts/access/Ownable.sol\":1201:1286  function owner() public view virtual returns (address) {... */\n      swap1\n      jump\t// out\n        /* \"SharedWallet.sol\":724:936  function withdrawMoney(address payable _to, uint _amount) public ownerOrAllowed(_amount) {... */\n    tag_30:\n        /* \"SharedWallet.sol\":804:811  _amount */\n      dup1\n        /* \"SharedWallet.sol\":519:528  isOwner() */\n      tag_48\n        /* \"SharedWallet.sol\":519:526  isOwner */\n      tag_49\n        /* \"SharedWallet.sol\":519:528  isOwner() */\n      jump\t// in\n    tag_48:\n        /* \"SharedWallet.sol\":519:564  isOwner() || allowance[msg.sender] >= _amount */\n      dup1\n      tag_50\n      jumpi\n      pop\n        /* \"SharedWallet.sol\":557:564  _amount */\n      dup1\n        /* \"SharedWallet.sol\":532:541  allowance */\n      0x01\n        /* \"SharedWallet.sol\":532:553  allowance[msg.sender] */\n      0x00\n        /* \"SharedWallet.sol\":542:552  msg.sender */\n      caller\n        /* \"SharedWallet.sol\":532:553  allowance[msg.sender] */\n      0xffffffffffffffffffffffffffffffffffffffff\n      and\n      0xffffffffffffffffffffffffffffffffffffffff\n      and\n      dup2\n      mstore\n      0x20\n      add\n      swap1\n      dup2\n      mstore\n      0x20\n      add\n      0x00\n      keccak256\n      sload\n        /* \"SharedWallet.sol\":532:564  allowance[msg.sender] >= _amount */\n      lt\n      iszero\n        /* \"SharedWallet.sol\":519:564  isOwner() || allowance[msg.sender] >= _amount */\n    tag_50:\n        /* \"SharedWallet.sol\":511:589  require(isOwner() || allowance[msg.sender] >= _amount, \"You are not allowed.\") */\n      tag_51\n      jumpi\n      mload(0x40)\n      0x08c379a000000000000000000000000000000000000000000000000000000000\n      dup2\n      mstore\n      0x04\n      add\n      tag_52\n      swap1\n      tag_53\n      jump\t// in\n    tag_52:\n      mload(0x40)\n      dup1\n      swap2\n      sub\n      swap1\n      revert\n    tag_51:\n        /* \"SharedWallet.sol\":827:836  isOwner() */\n      tag_55\n        /* \"SharedWallet.sol\":827:834  isOwner */\n      tag_49\n        /* \"SharedWallet.sol\":827:836  isOwner() */\n      jump\t// in\n    tag_55:\n        /* \"SharedWallet.sol\":823:899  if(!isOwner()) {... */\n      tag_56\n      jumpi\n        /* \"SharedWallet.sol\":852:888  reduceAllowance(msg.sender, _amount) */\n      tag_57\n        /* \"SharedWallet.sol\":868:878  msg.sender */\n      caller\n        /* \"SharedWallet.sol\":880:887  _amount */\n      dup4\n        /* \"SharedWallet.sol\":852:867  reduceAllowance */\n      tag_58\n        /* \"SharedWallet.sol\":852:888  reduceAllowance(msg.sender, _amount) */\n      jump\t// in\n    tag_57:\n        /* \"SharedWallet.sol\":823:899  if(!isOwner()) {... */\n    tag_56:\n        /* \"SharedWallet.sol\":908:911  _to */\n      dup3\n        /* \"SharedWallet.sol\":908:920  _to.transfer */\n      0xffffffffffffffffffffffffffffffffffffffff\n      and\n        /* \"SharedWallet.sol\":908:929  _to.transfer(_amount) */\n      0x08fc\n        /* \"SharedWallet.sol\":921:928  _amount */\n      dup4\n        /* \"SharedWallet.sol\":908:929  _to.transfer(_amount) */\n      swap1\n      dup2\n      iszero\n      mul\n      swap1\n      mload(0x40)\n      0x00\n      mload(0x40)\n      dup1\n      dup4\n      sub\n      dup2\n      dup6\n      dup9\n      dup9\n      call\n      swap4\n      pop\n      pop\n      pop\n      pop\n      iszero\n      dup1\n      iszero\n      tag_60\n      jumpi\n      returndatasize\n      0x00\n      dup1\n      returndatacopy\n      revert(0x00, returndatasize)\n    tag_60:\n      pop\n        /* \"SharedWallet.sol\":724:936  function withdrawMoney(address payable _to, uint _amount) public ownerOrAllowed(_amount) {... */\n      pop\n      pop\n      pop\n      jump\t// out\n        /* \"https://github.com/OpenZeppelin/openzeppelin-contracts/blob/master/contracts/access/Ownable.sol\":2081:2279  function transferOwnership(address newOwner) public virtual onlyOwner {... */\n    tag_34:\n        /* \"https://github.com/OpenZeppelin/openzeppelin-contracts/blob/master/contracts/access/Ownable.sol\":1094:1107  _checkOwner() */\n      tag_62\n        /* \"https://github.com/OpenZeppelin/openzeppelin-contracts/blob/master/contracts/access/Ownable.sol\":1094:1105  _checkOwner */\n      tag_42\n        /* \"https://github.com/OpenZeppelin/openzeppelin-contracts/blob/master/contracts/access/Ownable.sol\":1094:1107  _checkOwner() */\n      jump\t// in\n    tag_62:\n        /* \"https://github.com/OpenZeppelin/openzeppelin-contracts/blob/master/contracts/access/Ownable.sol\":2189:2190  0 */\n      0x00\n        /* \"https://github.com/OpenZeppelin/openzeppelin-contracts/blob/master/contracts/access/Ownable.sol\":2169:2191  newOwner != address(0) */\n      0xffffffffffffffffffffffffffffffffffffffff\n      and\n        /* \"https://github.com/OpenZeppelin/openzeppelin-contracts/blob/master/contracts/access/Ownable.sol\":2169:2177  newOwner */\n      dup2\n        /* \"https://github.com/OpenZeppelin/openzeppelin-contracts/blob/master/contracts/access/Ownable.sol\":2169:2191  newOwner != address(0) */\n      0xffffffffffffffffffffffffffffffffffffffff\n      and\n      eq\n      iszero\n        /* \"https://github.com/OpenZeppelin/openzeppelin-contracts/blob/master/contracts/access/Ownable.sol\":2161:2234  require(newOwner != address(0), \"Ownable: new owner is the zero address\") */\n      tag_64\n      jumpi\n      mload(0x40)\n      0x08c379a000000000000000000000000000000000000000000000000000000000\n      dup2\n      mstore\n      0x04\n      add\n      tag_65\n      swap1\n      tag_66\n      jump\t// in\n    tag_65:\n      mload(0x40)\n      dup1\n      swap2\n      sub\n      swap1\n      revert\n    tag_64:\n        /* \"https://github.com/OpenZeppelin/openzeppelin-contracts/blob/master/contracts/access/Ownable.sol\":2244:2272  _transferOwnership(newOwner) */\n      tag_67\n        /* \"https://github.com/OpenZeppelin/openzeppelin-contracts/blob/master/contracts/access/Ownable.sol\":2263:2271  newOwner */\n      dup2\n        /* \"https://github.com/OpenZeppelin/openzeppelin-contracts/blob/master/contracts/access/Ownable.sol\":2244:2262  _transferOwnership */\n      tag_45\n        /* \"https://github.com/OpenZeppelin/openzeppelin-contracts/blob/master/contracts/access/Ownable.sol\":2244:2272  _transferOwnership(newOwner) */\n      jump\t// in\n    tag_67:\n        /* \"https://github.com/OpenZeppelin/openzeppelin-contracts/blob/master/contracts/access/Ownable.sol\":2081:2279  function transferOwnership(address newOwner) public virtual onlyOwner {... */\n      pop\n      jump\t// out\n        /* \"SharedWallet.sol\":348:457  function addAllowance(address _who, uint _amount) public onlyOwner {... */\n    tag_39:\n        /* \"https://github.com/OpenZeppelin/openzeppelin-contracts/blob/master/contracts/access/Ownable.sol\":1094:1107  _checkOwner() */\n      tag_69\n        /* \"https://github.com/OpenZeppelin/openzeppelin-contracts/blob/master/contracts/access/Ownable.sol\":1094:1105  _checkOwner */\n      tag_42\n        /* \"https://github.com/OpenZeppelin/openzeppelin-contracts/blob/master/contracts/access/Ownable.sol\":1094:1107  _checkOwner() */\n      jump\t// in\n    tag_69:\n        /* \"SharedWallet.sol\":443:450  _amount */\n      dup1\n        /* \"SharedWallet.sol\":425:434  allowance */\n      0x01\n        /* \"SharedWallet.sol\":425:440  allowance[_who] */\n      0x00\n        /* \"SharedWallet.sol\":435:439  _who */\n      dup5\n        /* \"SharedWallet.sol\":425:440  allowance[_who] */\n      0xffffffffffffffffffffffffffffffffffffffff\n      and\n      0xffffffffffffffffffffffffffffffffffffffff\n      and\n      dup2\n      mstore\n      0x20\n      add\n      swap1\n      dup2\n      mstore\n      0x20\n      add\n      0x00\n      keccak256\n        /* \"SharedWallet.sol\":425:450  allowance[_who] = _amount */\n      dup2\n      swap1\n      sstore\n      pop\n        /* \"SharedWallet.sol\":348:457  function addAllowance(address _who, uint _amount) public onlyOwner {... */\n      pop\n      pop\n      jump\t// out\n        /* \"https://github.com/OpenZeppelin/openzeppelin-contracts/blob/master/contracts/access/Ownable.sol\":1359:1489  function _checkOwner() internal view virtual {... */\n    tag_42:\n        /* \"https://github.com/OpenZeppelin/openzeppelin-contracts/blob/master/contracts/access/Ownable.sol\":1433:1445  _msgSender() */\n      tag_72\n        /* \"https://github.com/OpenZeppelin/openzeppelin-contracts/blob/master/contracts/access/Ownable.sol\":1433:1443  _msgSender */\n      tag_73\n        /* \"https://github.com/OpenZeppelin/openzeppelin-contracts/blob/master/contracts/access/Ownable.sol\":1433:1445  _msgSender() */\n      jump\t// in\n    tag_72:\n        /* \"https://github.com/OpenZeppelin/openzeppelin-contracts/blob/master/contracts/access/Ownable.sol\":1422:1445  owner() == _msgSender() */\n      0xffffffffffffffffffffffffffffffffffffffff\n      and\n        /* \"https://github.com/OpenZeppelin/openzeppelin-contracts/blob/master/contracts/access/Ownable.sol\":1422:1429  owner() */\n      tag_74\n        /* \"https://github.com/OpenZeppelin/openzeppelin-contracts/blob/master/contracts/access/Ownable.sol\":1422:1427  owner */\n      tag_23\n        /* \"https://github.com/OpenZeppelin/openzeppelin-contracts/blob/master/contracts/access/Ownable.sol\":1422:1429  owner() */\n      jump\t// in\n    tag_74:\n        /* \"https://github.com/OpenZeppelin/openzeppelin-contracts/blob/master/contracts/access/Ownable.sol\":1422:1445  owner() == _msgSender() */\n      0xffffffffffffffffffffffffffffffffffffffff\n      and\n      eq\n        /* \"https://github.com/OpenZeppelin/openzeppelin-contracts/blob/master/contracts/access/Ownable.sol\":1414:1482  require(owner() == _msgSender(), \"Ownable: caller is not the owner\") */\n      tag_75\n      jumpi\n      mload(0x40)\n      0x08c379a000000000000000000000000000000000000000000000000000000000\n      dup2\n      mstore\n      0x04\n      add\n      tag_76\n      swap1\n      tag_77\n      jump\t// in\n    tag_76:\n      mload(0x40)\n      dup1\n      swap2\n      sub\n      swap1\n      revert\n    tag_75:\n        /* \"https://github.com/OpenZeppelin/openzeppelin-contracts/blob/master/contracts/access/Ownable.sol\":1359:1489  function _checkOwner() internal view virtual {... */\n      jump\t// out\n        /* \"https://github.com/OpenZeppelin/openzeppelin-contracts/blob/master/contracts/access/Ownable.sol\":2433:2620  function _transferOwnership(address newOwner) internal virtual {... */\n    tag_45:\n        /* \"https://github.com/OpenZeppelin/openzeppelin-contracts/blob/master/contracts/access/Ownable.sol\":2506:2522  address oldOwner */\n      0x00\n        /* \"https://github.com/OpenZeppelin/openzeppelin-contracts/blob/master/contracts/access/Ownable.sol\":2525:2531  _owner */\n      dup1\n      0x00\n      swap1\n      sload\n      swap1\n      0x0100\n      exp\n      swap1\n      div\n      0xffffffffffffffffffffffffffffffffffffffff\n      and\n        /* \"https://github.com/OpenZeppelin/openzeppelin-contracts/blob/master/contracts/access/Ownable.sol\":2506:2531  address oldOwner = _owner */\n      swap1\n      pop\n        /* \"https://github.com/OpenZeppelin/openzeppelin-contracts/blob/master/contracts/access/Ownable.sol\":2550:2558  newOwner */\n      dup2\n        /* \"https://github.com/OpenZeppelin/openzeppelin-contracts/blob/master/contracts/access/Ownable.sol\":2541:2547  _owner */\n      0x00\n      dup1\n        /* \"https://github.com/OpenZeppelin/openzeppelin-contracts/blob/master/contracts/access/Ownable.sol\":2541:2558  _owner = newOwner */\n      0x0100\n      exp\n      dup2\n      sload\n      dup2\n      0xffffffffffffffffffffffffffffffffffffffff\n      mul\n      not\n      and\n      swap1\n      dup4\n      0xffffffffffffffffffffffffffffffffffffffff\n      and\n      mul\n      or\n      swap1\n      sstore\n      pop\n        /* \"https://github.com/OpenZeppelin/openzeppelin-contracts/blob/master/contracts/access/Ownable.sol\":2604:2612  newOwner */\n      dup2\n        /* \"https://github.com/OpenZeppelin/openzeppelin-contracts/blob/master/contracts/access/Ownable.sol\":2573:2613  OwnershipTransferred(oldOwner, newOwner) */\n      0xffffffffffffffffffffffffffffffffffffffff\n      and\n        /* \"https://github.com/OpenZeppelin/openzeppelin-contracts/blob/master/contracts/access/Ownable.sol\":2594:2602  oldOwner */\n      dup2\n        /* \"https://github.com/OpenZeppelin/openzeppelin-contracts/blob/master/contracts/access/Ownable.sol\":2573:2613  OwnershipTransferred(oldOwner, newOwner) */\n      0xffffffffffffffffffffffffffffffffffffffff\n      and\n      0x8be0079c531659141344cd1fd0a4f28419497f9722a3daafe3b4186f6b6457e0\n      mload(0x40)\n      mload(0x40)\n      dup1\n      swap2\n      sub\n      swap1\n      log3\n        /* \"https://github.com/OpenZeppelin/openzeppelin-contracts/blob/master/contracts/access/Ownable.sol\":2433:2620  function _transferOwnership(address newOwner) internal virtual {... */\n      pop\n      pop\n      jump\t// out\n        /* \"SharedWallet.sol\":202:294  function isOwner() internal view returns(bool) {... */\n    tag_49:\n        /* \"SharedWallet.sol\":243:247  bool */\n      0x00\n        /* \"SharedWallet.sol\":277:287  msg.sender */\n      caller\n        /* \"SharedWallet.sol\":266:287  owner() == msg.sender */\n      0xffffffffffffffffffffffffffffffffffffffff\n      and\n        /* \"SharedWallet.sol\":266:273  owner() */\n      tag_80\n        /* \"SharedWallet.sol\":266:271  owner */\n      tag_23\n        /* \"SharedWallet.sol\":266:273  owner() */\n      jump\t// in\n    tag_80:\n        /* \"SharedWallet.sol\":266:287  owner() == msg.sender */\n      0xffffffffffffffffffffffffffffffffffffffff\n      and\n      eq\n        /* \"SharedWallet.sol\":259:287  return owner() == msg.sender */\n      swap1\n      pop\n        /* \"SharedWallet.sol\":202:294  function isOwner() internal view returns(bool) {... */\n      swap1\n      jump\t// out\n        /* \"SharedWallet.sol\":613:718  function reduceAllowance(address _who, uint _amount) internal {... */\n    tag_58:\n        /* \"SharedWallet.sol\":704:711  _amount */\n      dup1\n        /* \"SharedWallet.sol\":685:694  allowance */\n      0x01\n        /* \"SharedWallet.sol\":685:700  allowance[_who] */\n      0x00\n        /* \"SharedWallet.sol\":695:699  _who */\n      dup5\n        /* \"SharedWallet.sol\":685:700  allowance[_who] */\n      0xffffffffffffffffffffffffffffffffffffffff\n      and\n      0xffffffffffffffffffffffffffffffffffffffff\n      and\n      dup2\n      mstore\n      0x20\n      add\n      swap1\n      dup2\n      mstore\n      0x20\n      add\n      0x00\n      keccak256\n      0x00\n        /* \"SharedWallet.sol\":685:711  allowance[_who] -= _amount */\n      dup3\n      dup3\n      sload\n      tag_82\n      swap2\n      swap1\n      tag_83\n      jump\t// in\n    tag_82:\n      swap3\n      pop\n      pop\n      dup2\n      swap1\n      sstore\n      pop\n        /* \"SharedWallet.sol\":613:718  function reduceAllowance(address _who, uint _amount) internal {... */\n      pop\n      pop\n      jump\t// out\n        /* \"https://github.com/OpenZeppelin/openzeppelin-contracts/blob/master/contracts/utils/Context.sol\":640:736  function _msgSender() internal view virtual returns (address) {... */\n    tag_73:\n        /* \"https://github.com/OpenZeppelin/openzeppelin-contracts/blob/master/contracts/utils/Context.sol\":693:700  address */\n      0x00\n        /* \"https://github.com/OpenZeppelin/openzeppelin-contracts/blob/master/contracts/utils/Context.sol\":719:729  msg.sender */\n      caller\n        /* \"https://github.com/OpenZeppelin/openzeppelin-contracts/blob/master/contracts/utils/Context.sol\":712:729  return msg.sender */\n      swap1\n      pop\n        /* \"https://github.com/OpenZeppelin/openzeppelin-contracts/blob/master/contracts/utils/Context.sol\":640:736  function _msgSender() internal view virtual returns (address) {... */\n      swap1\n      jump\t// out\n        /* \"#utility.yul\":7:146   */\n    tag_86:\n      0x00\n        /* \"#utility.yul\":91:97   */\n      dup2\n        /* \"#utility.yul\":78:98   */\n      calldataload\n        /* \"#utility.yul\":69:98   */\n      swap1\n      pop\n        /* \"#utility.yul\":107:140   */\n      tag_88\n        /* \"#utility.yul\":134:139   */\n      dup2\n        /* \"#utility.yul\":107:140   */\n      tag_89\n      jump\t// in\n    tag_88:\n        /* \"#utility.yul\":59:146   */\n      swap3\n      swap2\n      pop\n      pop\n      jump\t// out\n        /* \"#utility.yul\":152:307   */\n    tag_90:\n      0x00\n        /* \"#utility.yul\":244:250   */\n      dup2\n        /* \"#utility.yul\":231:251   */\n      calldataload\n        /* \"#utility.yul\":222:251   */\n      swap1\n      pop\n        /* \"#utility.yul\":260:301   */\n      tag_92\n        /* \"#utility.yul\":295:300   */\n      dup2\n        /* \"#utility.yul\":260:301   */\n      tag_93\n      jump\t// in\n    tag_92:\n        /* \"#utility.yul\":212:307   */\n      swap3\n      swap2\n      pop\n      pop\n      jump\t// out\n        /* \"#utility.yul\":313:452   */\n    tag_94:\n      0x00\n        /* \"#utility.yul\":397:403   */\n      dup2\n        /* \"#utility.yul\":384:404   */\n      calldataload\n        /* \"#utility.yul\":375:404   */\n      swap1\n      pop\n        /* \"#utility.yul\":413:446   */\n      tag_96\n        /* \"#utility.yul\":440:445   */\n      dup2\n        /* \"#utility.yul\":413:446   */\n      tag_97\n      jump\t// in\n    tag_96:\n        /* \"#utility.yul\":365:452   */\n      swap3\n      swap2\n      pop\n      pop\n      jump\t// out\n        /* \"#utility.yul\":458:720   */\n    tag_14:\n      0x00\n        /* \"#utility.yul\":566:568   */\n      0x20\n        /* \"#utility.yul\":554:563   */\n      dup3\n        /* \"#utility.yul\":545:552   */\n      dup5\n        /* \"#utility.yul\":541:564   */\n      sub\n        /* \"#utility.yul\":537:569   */\n      slt\n        /* \"#utility.yul\":534:536   */\n      iszero\n      tag_99\n      jumpi\n        /* \"#utility.yul\":582:583   */\n      0x00\n        /* \"#utility.yul\":579:580   */\n      dup1\n        /* \"#utility.yul\":572:584   */\n      revert\n        /* \"#utility.yul\":534:536   */\n    tag_99:\n        /* \"#utility.yul\":625:626   */\n      0x00\n        /* \"#utility.yul\":650:703   */\n      tag_100\n        /* \"#utility.yul\":695:702   */\n      dup5\n        /* \"#utility.yul\":686:692   */\n      dup3\n        /* \"#utility.yul\":675:684   */\n      dup6\n        /* \"#utility.yul\":671:693   */\n      add\n        /* \"#utility.yul\":650:703   */\n      tag_86\n      jump\t// in\n    tag_100:\n        /* \"#utility.yul\":640:703   */\n      swap2\n      pop\n        /* \"#utility.yul\":596:713   */\n      pop\n        /* \"#utility.yul\":524:720   */\n      swap3\n      swap2\n      pop\n      pop\n      jump\t// out\n        /* \"#utility.yul\":726:1149   */\n    tag_29:\n      0x00\n      dup1\n        /* \"#utility.yul\":859:861   */\n      0x40\n        /* \"#utility.yul\":847:856   */\n      dup4\n        /* \"#utility.yul\":838:845   */\n      dup6\n        /* \"#utility.yul\":834:857   */\n      sub\n        /* \"#utility.yul\":830:862   */\n      slt\n        /* \"#utility.yul\":827:829   */\n      iszero\n      tag_102\n      jumpi\n        /* \"#utility.yul\":875:876   */\n      0x00\n        /* \"#utility.yul\":872:873   */\n      dup1\n        /* \"#utility.yul\":865:877   */\n      revert\n        /* \"#utility.yul\":827:829   */\n    tag_102:\n        /* \"#utility.yul\":918:919   */\n      0x00\n        /* \"#utility.yul\":943:1004   */\n      tag_103\n        /* \"#utility.yul\":996:1003   */\n      dup6\n        /* \"#utility.yul\":987:993   */\n      dup3\n        /* \"#utility.yul\":976:985   */\n      dup7\n        /* \"#utility.yul\":972:994   */\n      add\n        /* \"#utility.yul\":943:1004   */\n      tag_90\n      jump\t// in\n    tag_103:\n        /* \"#utility.yul\":933:1004   */\n      swap3\n      pop\n        /* \"#utility.yul\":889:1014   */\n      pop\n        /* \"#utility.yul\":1053:1055   */\n      0x20\n        /* \"#utility.yul\":1079:1132   */\n      tag_104\n        /* \"#utility.yul\":1124:1131   */\n      dup6\n        /* \"#utility.yul\":1115:1121   */\n      dup3\n        /* \"#utility.yul\":1104:1113   */\n      dup7\n        /* \"#utility.yul\":1100:1122   */\n      add\n        /* \"#utility.yul\":1079:1132   */\n      tag_94\n      jump\t// in\n    tag_104:\n        /* \"#utility.yul\":1069:1132   */\n      swap2\n      pop\n        /* \"#utility.yul\":1024:1142   */\n      pop\n        /* \"#utility.yul\":817:1149   */\n      swap3\n      pop\n      swap3\n      swap1\n      pop\n      jump\t// out\n        /* \"#utility.yul\":1155:1562   */\n    tag_38:\n      0x00\n      dup1\n        /* \"#utility.yul\":1280:1282   */\n      0x40\n        /* \"#utility.yul\":1268:1277   */\n      dup4\n        /* \"#utility.yul\":1259:1266   */\n      dup6\n        /* \"#utility.yul\":1255:1278   */\n      sub\n        /* \"#utility.yul\":1251:1283   */\n      slt\n        /* \"#utility.yul\":1248:1250   */\n      iszero\n      tag_106\n      jumpi\n        /* \"#utility.yul\":1296:1297   */\n      0x00\n        /* \"#utility.yul\":1293:1294   */\n      dup1\n        /* \"#utility.yul\":1286:1298   */\n      revert\n        /* \"#utility.yul\":1248:1250   */\n    tag_106:\n        /* \"#utility.yul\":1339:1340   */\n      0x00\n        /* \"#utility.yul\":1364:1417   */\n      tag_107\n        /* \"#utility.yul\":1409:1416   */\n      dup6\n        /* \"#utility.yul\":1400:1406   */\n      dup3\n        /* \"#utility.yul\":1389:1398   */\n      dup7\n        /* \"#utility.yul\":1385:1407   */\n      add\n        /* \"#utility.yul\":1364:1417   */\n      tag_86\n      jump\t// in\n    tag_107:\n        /* \"#utility.yul\":1354:1417   */\n      swap3\n      pop\n        /* \"#utility.yul\":1310:1427   */\n      pop\n        /* \"#utility.yul\":1466:1468   */\n      0x20\n        /* \"#utility.yul\":1492:1545   */\n      tag_108\n        /* \"#utility.yul\":1537:1544   */\n      dup6\n        /* \"#utility.yul\":1528:1534   */\n      dup3\n        /* \"#utility.yul\":1517:1526   */\n      dup7\n        /* \"#utility.yul\":1513:1535   */\n      add\n        /* \"#utility.yul\":1492:1545   */\n      tag_94\n      jump\t// in\n    tag_108:\n        /* \"#utility.yul\":1482:1545   */\n      swap2\n      pop\n        /* \"#utility.yul\":1437:1555   */\n      pop\n        /* \"#utility.yul\":1238:1562   */\n      swap3\n      pop\n      swap3\n      swap1\n      pop\n      jump\t// out\n        /* \"#utility.yul\":1568:1686   */\n    tag_109:\n        /* \"#utility.yul\":1655:1679   */\n      tag_111\n        /* \"#utility.yul\":1673:1678   */\n      dup2\n        /* \"#utility.yul\":1655:1679   */\n      tag_112\n      jump\t// in\n    tag_111:\n        /* \"#utility.yul\":1650:1653   */\n      dup3\n        /* \"#utility.yul\":1643:1680   */\n      mstore\n        /* \"#utility.yul\":1633:1686   */\n      pop\n      pop\n      jump\t// out\n        /* \"#utility.yul\":1692:2058   */\n    tag_113:\n      0x00\n        /* \"#utility.yul\":1855:1922   */\n      tag_115\n        /* \"#utility.yul\":1919:1921   */\n      0x26\n        /* \"#utility.yul\":1914:1917   */\n      dup4\n        /* \"#utility.yul\":1855:1922   */\n      tag_116\n      jump\t// in\n    tag_115:\n        /* \"#utility.yul\":1848:1922   */\n      swap2\n      pop\n        /* \"#utility.yul\":1931:2024   */\n      tag_117\n        /* \"#utility.yul\":2020:2023   */\n      dup3\n        /* \"#utility.yul\":1931:2024   */\n      tag_118\n      jump\t// in\n    tag_117:\n        /* \"#utility.yul\":2049:2051   */\n      0x40\n        /* \"#utility.yul\":2044:2047   */\n      dup3\n        /* \"#utility.yul\":2040:2052   */\n      add\n        /* \"#utility.yul\":2033:2052   */\n      swap1\n      pop\n        /* \"#utility.yul\":1838:2058   */\n      swap2\n      swap1\n      pop\n      jump\t// out\n        /* \"#utility.yul\":2064:2430   */\n    tag_119:\n      0x00\n        /* \"#utility.yul\":2227:2294   */\n      tag_121\n        /* \"#utility.yul\":2291:2293   */\n      0x14\n        /* \"#utility.yul\":2286:2289   */\n      dup4\n        /* \"#utility.yul\":2227:2294   */\n      tag_116\n      jump\t// in\n    tag_121:\n        /* \"#utility.yul\":2220:2294   */\n      swap2\n      pop\n        /* \"#utility.yul\":2303:2396   */\n      tag_122\n        /* \"#utility.yul\":2392:2395   */\n      dup3\n        /* \"#utility.yul\":2303:2396   */\n      tag_123\n      jump\t// in\n    tag_122:\n        /* \"#utility.yul\":2421:2423   */\n      0x20\n        /* \"#utility.yul\":2416:2419   */\n      dup3\n        /* \"#utility.yul\":2412:2424   */\n      add\n        /* \"#utility.yul\":2405:2424   */\n      swap1\n      pop\n        /* \"#utility.yul\":2210:2430   */\n      swap2\n      swap1\n      pop\n      jump\t// out\n        /* \"#utility.yul\":2436:2802   */\n    tag_124:\n      0x00\n        /* \"#utility.yul\":2599:2666   */\n      tag_126\n        /* \"#utility.yul\":2663:2665   */\n      0x20\n        /* \"#utility.yul\":2658:2661   */\n      dup4\n        /* \"#utility.yul\":2599:2666   */\n      tag_116\n      jump\t// in\n    tag_126:\n        /* \"#utility.yul\":2592:2666   */\n      swap2\n      pop\n        /* \"#utility.yul\":2675:2768   */\n      tag_127\n        /* \"#utility.yul\":2764:2767   */\n      dup3\n        /* \"#utility.yul\":2675:2768   */\n      tag_128\n      jump\t// in\n    tag_127:\n        /* \"#utility.yul\":2793:2795   */\n      0x20\n        /* \"#utility.yul\":2788:2791   */\n      dup3\n        /* \"#utility.yul\":2784:2796   */\n      add\n        /* \"#utility.yul\":2777:2796   */\n      swap1\n      pop\n        /* \"#utility.yul\":2582:2802   */\n      swap2\n      swap1\n      pop\n      jump\t// out\n        /* \"#utility.yul\":2808:2926   */\n    tag_129:\n        /* \"#utility.yul\":2895:2919   */\n      tag_131\n        /* \"#utility.yul\":2913:2918   */\n      dup2\n        /* \"#utility.yul\":2895:2919   */\n      tag_132\n      jump\t// in\n    tag_131:\n        /* \"#utility.yul\":2890:2893   */\n      dup3\n        /* \"#utility.yul\":2883:2920   */\n      mstore\n        /* \"#utility.yul\":2873:2926   */\n      pop\n      pop\n      jump\t// out\n        /* \"#utility.yul\":2932:3154   */\n    tag_25:\n      0x00\n        /* \"#utility.yul\":3063:3065   */\n      0x20\n        /* \"#utility.yul\":3052:3061   */\n      dup3\n        /* \"#utility.yul\":3048:3066   */\n      add\n        /* \"#utility.yul\":3040:3066   */\n      swap1\n      pop\n        /* \"#utility.yul\":3076:3147   */\n      tag_134\n        /* \"#utility.yul\":3144:3145   */\n      0x00\n        /* \"#utility.yul\":3133:3142   */\n      dup4\n        /* \"#utility.yul\":3129:3146   */\n      add\n        /* \"#utility.yul\":3120:3126   */\n      dup5\n        /* \"#utility.yul\":3076:3147   */\n      tag_109\n      jump\t// in\n    tag_134:\n        /* \"#utility.yul\":3030:3154   */\n      swap3\n      swap2\n      pop\n      pop\n      jump\t// out\n        /* \"#utility.yul\":3160:3579   */\n    tag_66:\n      0x00\n        /* \"#utility.yul\":3364:3366   */\n      0x20\n        /* \"#utility.yul\":3353:3362   */\n      dup3\n        /* \"#utility.yul\":3349:3367   */\n      add\n        /* \"#utility.yul\":3341:3367   */\n      swap1\n      pop\n        /* \"#utility.yul\":3413:3422   */\n      dup2\n        /* \"#utility.yul\":3407:3411   */\n      dup2\n        /* \"#utility.yul\":3403:3423   */\n      sub\n        /* \"#utility.yul\":3399:3400   */\n      0x00\n        /* \"#utility.yul\":3388:3397   */\n      dup4\n        /* \"#utility.yul\":3384:3401   */\n      add\n        /* \"#utility.yul\":3377:3424   */\n      mstore\n        /* \"#utility.yul\":3441:3572   */\n      tag_136\n        /* \"#utility.yul\":3567:3571   */\n      dup2\n        /* \"#utility.yul\":3441:3572   */\n      tag_113\n      jump\t// in\n    tag_136:\n        /* \"#utility.yul\":3433:3572   */\n      swap1\n      pop\n        /* \"#utility.yul\":3331:3579   */\n      swap2\n      swap1\n      pop\n      jump\t// out\n        /* \"#utility.yul\":3585:4004   */\n    tag_53:\n      0x00\n        /* \"#utility.yul\":3789:3791   */\n      0x20\n        /* \"#utility.yul\":3778:3787   */\n      dup3\n        /* \"#utility.yul\":3774:3792   */\n      add\n        /* \"#utility.yul\":3766:3792   */\n      swap1\n      pop\n        /* \"#utility.yul\":3838:3847   */\n      dup2\n        /* \"#utility.yul\":3832:3836   */\n      dup2\n        /* \"#utility.yul\":3828:3848   */\n      sub\n        /* \"#utility.yul\":3824:3825   */\n      0x00\n        /* \"#utility.yul\":3813:3822   */\n      dup4\n        /* \"#utility.yul\":3809:3826   */\n      add\n        /* \"#utility.yul\":3802:3849   */\n      mstore\n        /* \"#utility.yul\":3866:3997   */\n      tag_138\n        /* \"#utility.yul\":3992:3996   */\n      dup2\n        /* \"#utility.yul\":3866:3997   */\n      tag_119\n      jump\t// in\n    tag_138:\n        /* \"#utility.yul\":3858:3997   */\n      swap1\n      pop\n        /* \"#utility.yul\":3756:4004   */\n      swap2\n      swap1\n      pop\n      jump\t// out\n        /* \"#utility.yul\":4010:4429   */\n    tag_77:\n      0x00\n        /* \"#utility.yul\":4214:4216   */\n      0x20\n        /* \"#utility.yul\":4203:4212   */\n      dup3\n        /* \"#utility.yul\":4199:4217   */\n      add\n        /* \"#utility.yul\":4191:4217   */\n      swap1\n      pop\n        /* \"#utility.yul\":4263:4272   */\n      dup2\n        /* \"#utility.yul\":4257:4261   */\n      dup2\n        /* \"#utility.yul\":4253:4273   */\n      sub\n        /* \"#utility.yul\":4249:4250   */\n      0x00\n        /* \"#utility.yul\":4238:4247   */\n      dup4\n        /* \"#utility.yul\":4234:4251   */\n      add\n        /* \"#utility.yul\":4227:4274   */\n      mstore\n        /* \"#utility.yul\":4291:4422   */\n      tag_140\n        /* \"#utility.yul\":4417:4421   */\n      dup2\n        /* \"#utility.yul\":4291:4422   */\n      tag_124\n      jump\t// in\n    tag_140:\n        /* \"#utility.yul\":4283:4422   */\n      swap1\n      pop\n        /* \"#utility.yul\":4181:4429   */\n      swap2\n      swap1\n      pop\n      jump\t// out\n        /* \"#utility.yul\":4435:4657   */\n    tag_17:\n      0x00\n        /* \"#utility.yul\":4566:4568   */\n      0x20\n        /* \"#utility.yul\":4555:4564   */\n      dup3\n        /* \"#utility.yul\":4551:4569   */\n      add\n        /* \"#utility.yul\":4543:4569   */\n      swap1\n      pop\n        /* \"#utility.yul\":4579:4650   */\n      tag_142\n        /* \"#utility.yul\":4647:4648   */\n      0x00\n        /* \"#utility.yul\":4636:4645   */\n      dup4\n        /* \"#utility.yul\":4632:4649   */\n      add\n        /* \"#utility.yul\":4623:4629   */\n      dup5\n        /* \"#utility.yul\":4579:4650   */\n      tag_129\n      jump\t// in\n    tag_142:\n        /* \"#utility.yul\":4533:4657   */\n      swap3\n      swap2\n      pop\n      pop\n      jump\t// out\n        /* \"#utility.yul\":4663:4832   */\n    tag_116:\n      0x00\n        /* \"#utility.yul\":4781:4787   */\n      dup3\n        /* \"#utility.yul\":4776:4779   */\n      dup3\n        /* \"#utility.yul\":4769:4788   */\n      mstore\n        /* \"#utility.yul\":4821:4825   */\n      0x20\n        /* \"#utility.yul\":4816:4819   */\n      dup3\n        /* \"#utility.yul\":4812:4826   */\n      add\n        /* \"#utility.yul\":4797:4826   */\n      swap1\n      pop\n        /* \"#utility.yul\":4759:4832   */\n      swap3\n      swap2\n      pop\n      pop\n      jump\t// out\n        /* \"#utility.yul\":4838:5029   */\n    tag_83:\n      0x00\n        /* \"#utility.yul\":4898:4918   */\n      tag_145\n        /* \"#utility.yul\":4916:4917   */\n      dup3\n        /* \"#utility.yul\":4898:4918   */\n      tag_132\n      jump\t// in\n    tag_145:\n        /* \"#utility.yul\":4893:4918   */\n      swap2\n      pop\n        /* \"#utility.yul\":4932:4952   */\n      tag_146\n        /* \"#utility.yul\":4950:4951   */\n      dup4\n        /* \"#utility.yul\":4932:4952   */\n      tag_132\n      jump\t// in\n    tag_146:\n        /* \"#utility.yul\":4927:4952   */\n      swap3\n      pop\n        /* \"#utility.yul\":4971:4972   */\n      dup3\n        /* \"#utility.yul\":4968:4969   */\n      dup3\n        /* \"#utility.yul\":4965:4973   */\n      lt\n        /* \"#utility.yul\":4962:4964   */\n      iszero\n      tag_147\n      jumpi\n        /* \"#utility.yul\":4976:4994   */\n      tag_148\n      tag_149\n      jump\t// in\n    tag_148:\n        /* \"#utility.yul\":4962:4964   */\n    tag_147:\n        /* \"#utility.yul\":5021:5022   */\n      dup3\n        /* \"#utility.yul\":5018:5019   */\n      dup3\n        /* \"#utility.yul\":5014:5023   */\n      sub\n        /* \"#utility.yul\":5006:5023   */\n      swap1\n      pop\n        /* \"#utility.yul\":4883:5029   */\n      swap3\n      swap2\n      pop\n      pop\n      jump\t// out\n        /* \"#utility.yul\":5035:5131   */\n    tag_112:\n      0x00\n        /* \"#utility.yul\":5101:5125   */\n      tag_151\n        /* \"#utility.yul\":5119:5124   */\n      dup3\n        /* \"#utility.yul\":5101:5125   */\n      tag_152\n      jump\t// in\n    tag_151:\n        /* \"#utility.yul\":5090:5125   */\n      swap1\n      pop\n        /* \"#utility.yul\":5080:5131   */\n      swap2\n      swap1\n      pop\n      jump\t// out\n        /* \"#utility.yul\":5137:5241   */\n    tag_153:\n      0x00\n        /* \"#utility.yul\":5211:5235   */\n      tag_155\n        /* \"#utility.yul\":5229:5234   */\n      dup3\n        /* \"#utility.yul\":5211:5235   */\n      tag_152\n      jump\t// in\n    tag_155:\n        /* \"#utility.yul\":5200:5235   */\n      swap1\n      pop\n        /* \"#utility.yul\":5190:5241   */\n      swap2\n      swap1\n      pop\n      jump\t// out\n        /* \"#utility.yul\":5247:5373   */\n    tag_152:\n      0x00\n        /* \"#utility.yul\":5324:5366   */\n      0xffffffffffffffffffffffffffffffffffffffff\n        /* \"#utility.yul\":5317:5322   */\n      dup3\n        /* \"#utility.yul\":5313:5367   */\n      and\n        /* \"#utility.yul\":5302:5367   */\n      swap1\n      pop\n        /* \"#utility.yul\":5292:5373   */\n      swap2\n      swap1\n      pop\n      jump\t// out\n        /* \"#utility.yul\":5379:5456   */\n    tag_132:\n      0x00\n        /* \"#utility.yul\":5445:5450   */\n      dup2\n        /* \"#utility.yul\":5434:5450   */\n      swap1\n      pop\n        /* \"#utility.yul\":5424:5456   */\n      swap2\n      swap1\n      pop\n      jump\t// out\n        /* \"#utility.yul\":5462:5642   */\n    tag_149:\n        /* \"#utility.yul\":5510:5587   */\n      0x4e487b7100000000000000000000000000000000000000000000000000000000\n        /* \"#utility.yul\":5507:5508   */\n      0x00\n        /* \"#utility.yul\":5500:5588   */\n      mstore\n        /* \"#utility.yul\":5607:5611   */\n      0x11\n        /* \"#utility.yul\":5604:5605   */\n      0x04\n        /* \"#utility.yul\":5597:5612   */\n      mstore\n        /* \"#utility.yul\":5631:5635   */\n      0x24\n        /* \"#utility.yul\":5628:5629   */\n      0x00\n        /* \"#utility.yul\":5621:5636   */\n      revert\n        /* \"#utility.yul\":5648:5873   */\n    tag_118:\n        /* \"#utility.yul\":5788:5822   */\n      0x4f776e61626c653a206e6577206f776e657220697320746865207a65726f2061\n        /* \"#utility.yul\":5784:5785   */\n      0x00\n        /* \"#utility.yul\":5776:5782   */\n      dup3\n        /* \"#utility.yul\":5772:5786   */\n      add\n        /* \"#utility.yul\":5765:5823   */\n      mstore\n        /* \"#utility.yul\":5857:5865   */\n      0x6464726573730000000000000000000000000000000000000000000000000000\n        /* \"#utility.yul\":5852:5854   */\n      0x20\n        /* \"#utility.yul\":5844:5850   */\n      dup3\n        /* \"#utility.yul\":5840:5855   */\n      add\n        /* \"#utility.yul\":5833:5866   */\n      mstore\n        /* \"#utility.yul\":5754:5873   */\n      pop\n      jump\t// out\n        /* \"#utility.yul\":5879:6049   */\n    tag_123:\n        /* \"#utility.yul\":6019:6041   */\n      0x596f7520617265206e6f7420616c6c6f7765642e000000000000000000000000\n        /* \"#utility.yul\":6015:6016   */\n      0x00\n        /* \"#utility.yul\":6007:6013   */\n      dup3\n        /* \"#utility.yul\":6003:6017   */\n      add\n        /* \"#utility.yul\":5996:6042   */\n      mstore\n        /* \"#utility.yul\":5985:6049   */\n      pop\n      jump\t// out\n        /* \"#utility.yul\":6055:6237   */\n    tag_128:\n        /* \"#utility.yul\":6195:6229   */\n      0x4f776e61626c653a2063616c6c6572206973206e6f7420746865206f776e6572\n        /* \"#utility.yul\":6191:6192   */\n      0x00\n        /* \"#utility.yul\":6183:6189   */\n      dup3\n        /* \"#utility.yul\":6179:6193   */\n      add\n        /* \"#utility.yul\":6172:6230   */\n      mstore\n        /* \"#utility.yul\":6161:6237   */\n      pop\n      jump\t// out\n        /* \"#utility.yul\":6243:6365   */\n    tag_89:\n        /* \"#utility.yul\":6316:6340   */\n      tag_163\n        /* \"#utility.yul\":6334:6339   */\n      dup2\n        /* \"#utility.yul\":6316:6340   */\n      tag_112\n      jump\t// in\n    tag_163:\n        /* \"#utility.yul\":6309:6314   */\n      dup2\n        /* \"#utility.yul\":6306:6341   */\n      eq\n        /* \"#utility.yul\":6296:6298   */\n      tag_164\n      jumpi\n        /* \"#utility.yul\":6355:6356   */\n      0x00\n        /* \"#utility.yul\":6352:6353   */\n      dup1\n        /* \"#utility.yul\":6345:6357   */\n      revert\n        /* \"#utility.yul\":6296:6298   */\n    tag_164:\n        /* \"#utility.yul\":6286:6365   */\n      pop\n      jump\t// out\n        /* \"#utility.yul\":6371:6509   */\n    tag_93:\n        /* \"#utility.yul\":6452:6484   */\n      tag_166\n        /* \"#utility.yul\":6478:6483   */\n      dup2\n        /* \"#utility.yul\":6452:6484   */\n      tag_153\n      jump\t// in\n    tag_166:\n        /* \"#utility.yul\":6445:6450   */\n      dup2\n        /* \"#utility.yul\":6442:6485   */\n      eq\n        /* \"#utility.yul\":6432:6434   */\n      tag_167\n      jumpi\n        /* \"#utility.yul\":6499:6500   */\n      0x00\n        /* \"#utility.yul\":6496:6497   */\n      dup1\n        /* \"#utility.yul\":6489:6501   */\n      revert\n        /* \"#utility.yul\":6432:6434   */\n    tag_167:\n        /* \"#utility.yul\":6422:6509   */\n      pop\n      jump\t// out\n        /* \"#utility.yul\":6515:6637   */\n    tag_97:\n        /* \"#utility.yul\":6588:6612   */\n      tag_169\n        /* \"#utility.yul\":6606:6611   */\n      dup2\n        /* \"#utility.yul\":6588:6612   */\n      tag_132\n      jump\t// in\n    tag_169:\n        /* \"#utility.yul\":6581:6586   */\n      dup2\n        /* \"#utility.yul\":6578:6613   */\n      eq\n        /* \"#utility.yul\":6568:6570   */\n      tag_170\n      jumpi\n        /* \"#utility.yul\":6627:6628   */\n      0x00\n        /* \"#utility.yul\":6624:6625   */\n      dup1\n        /* \"#utility.yul\":6617:6629   */\n      revert\n        /* \"#utility.yul\":6568:6570   */\n    tag_170:\n        /* \"#utility.yul\":6558:6637   */\n      pop\n      jump\t// out\n\n    auxdata: 0xa26469706673582212207ab02652977327fcaaf45d479de9821a41f37f100ccd3d04d00fb86e213cea2764736f6c63430008010033\n}\n",
				"bytecode": {
					"linkReferences": {},
					"object": "608060405234801561001057600080fd5b5061002d61002261003260201b60201c565b61003a60201b60201c565b6100fe565b600033905090565b60008060009054906101000a900473ffffffffffffffffffffffffffffffffffffffff169050816000806101000a81548173ffffffffffffffffffffffffffffffffffffffff021916908373ffffffffffffffffffffffffffffffffffffffff1602179055508173ffffffffffffffffffffffffffffffffffffffff168173ffffffffffffffffffffffffffffffffffffffff167f8be0079c531659141344cd1fd0a4f28419497f9722a3daafe3b4186f6b6457e060405160405180910390a35050565b6109398061010d6000396000f3fe6080604052600436106100595760003560e01c80633e5beab914610065578063715018a6146100a25780638da5cb5b146100b9578063f274c897146100e4578063f2fde38b1461010d578063f3c40c4b1461013657610060565b3661006057005b600080fd5b34801561007157600080fd5b5061008c6004803603810190610087919061059d565b61015f565b6040516100999190610740565b60405180910390f35b3480156100ae57600080fd5b506100b7610177565b005b3480156100c557600080fd5b506100ce61018b565b6040516100db91906106c5565b60405180910390f35b3480156100f057600080fd5b5061010b600480360381019061010691906105c6565b6101b4565b005b34801561011957600080fd5b50610134600480360381019061012f919061059d565b6102a9565b005b34801561014257600080fd5b5061015d60048036038101906101589190610602565b61032d565b005b60016020528060005260406000206000915090505481565b61017f61037d565b61018960006103fb565b565b60008060009054906101000a900473ffffffffffffffffffffffffffffffffffffffff16905090565b806101bd6104bf565b80610207575080600160003373ffffffffffffffffffffffffffffffffffffffff1673ffffffffffffffffffffffffffffffffffffffff1681526020019081526020016000205410155b610246576040517f08c379a000000000000000000000000000000000000000000000000000000000815260040161023d90610700565b60405180910390fd5b61024e6104bf565b61025d5761025c33836104fc565b5b8273ffffffffffffffffffffffffffffffffffffffff166108fc839081150290604051600060405180830381858888f193505050501580156102a3573d6000803e3d6000fd5b50505050565b6102b161037d565b600073ffffffffffffffffffffffffffffffffffffffff168173ffffffffffffffffffffffffffffffffffffffff161415610321576040517f08c379a0000000000000000000000000000000000000000000000000000000008152600401610318906106e0565b60405180910390fd5b61032a816103fb565b50565b61033561037d565b80600160008473ffffffffffffffffffffffffffffffffffffffff1673ffffffffffffffffffffffffffffffffffffffff168152602001908152602001600020819055505050565b610385610556565b73ffffffffffffffffffffffffffffffffffffffff166103a361018b565b73ffffffffffffffffffffffffffffffffffffffff16146103f9576040517f08c379a00000000000000000000000000000000000000000000000000000000081526004016103f090610720565b60405180910390fd5b565b60008060009054906101000a900473ffffffffffffffffffffffffffffffffffffffff169050816000806101000a81548173ffffffffffffffffffffffffffffffffffffffff021916908373ffffffffffffffffffffffffffffffffffffffff1602179055508173ffffffffffffffffffffffffffffffffffffffff168173ffffffffffffffffffffffffffffffffffffffff167f8be0079c531659141344cd1fd0a4f28419497f9722a3daafe3b4186f6b6457e060405160405180910390a35050565b60003373ffffffffffffffffffffffffffffffffffffffff166104e061018b565b73ffffffffffffffffffffffffffffffffffffffff1614905090565b80600160008473ffffffffffffffffffffffffffffffffffffffff1673ffffffffffffffffffffffffffffffffffffffff168152602001908152602001600020600082825461054b919061076c565b925050819055505050565b600033905090565b60008135905061056d816108be565b92915050565b600081359050610582816108d5565b92915050565b600081359050610597816108ec565b92915050565b6000602082840312156105af57600080fd5b60006105bd8482850161055e565b91505092915050565b600080604083850312156105d957600080fd5b60006105e785828601610573565b92505060206105f885828601610588565b9150509250929050565b6000806040838503121561061557600080fd5b60006106238582860161055e565b925050602061063485828601610588565b9150509250929050565b610647816107a0565b82525050565b600061065a60268361075b565b91506106658261081d565b604082019050919050565b600061067d60148361075b565b91506106888261086c565b602082019050919050565b60006106a060208361075b565b91506106ab82610895565b602082019050919050565b6106bf816107e4565b82525050565b60006020820190506106da600083018461063e565b92915050565b600060208201905081810360008301526106f98161064d565b9050919050565b6000602082019050818103600083015261071981610670565b9050919050565b6000602082019050818103600083015261073981610693565b9050919050565b600060208201905061075560008301846106b6565b92915050565b600082825260208201905092915050565b6000610777826107e4565b9150610782836107e4565b925082821015610795576107946107ee565b5b828203905092915050565b60006107ab826107c4565b9050919050565b60006107bd826107c4565b9050919050565b600073ffffffffffffffffffffffffffffffffffffffff82169050919050565b6000819050919050565b7f4e487b7100000000000000000000000000000000000000000000000000000000600052601160045260246000fd5b7f4f776e61626c653a206e6577206f776e657220697320746865207a65726f206160008201527f6464726573730000000000000000000000000000000000000000000000000000602082015250565b7f596f7520617265206e6f7420616c6c6f7765642e000000000000000000000000600082015250565b7f4f776e61626c653a2063616c6c6572206973206e6f7420746865206f776e6572600082015250565b6108c7816107a0565b81146108d257600080fd5b50565b6108de816107b2565b81146108e957600080fd5b50565b6108f5816107e4565b811461090057600080fd5b5056fea26469706673582212207ab02652977327fcaaf45d479de9821a41f37f100ccd3d04d00fb86e213cea2764736f6c63430008010033",
					"opcodes": "PUSH1 0x80 PUSH1 0x40 MSTORE CALLVALUE DUP1 ISZERO PUSH2 0x10 JUMPI PUSH1 0x0 DUP1 REVERT JUMPDEST POP PUSH2 0x2D PUSH2 0x22 PUSH2 0x32 PUSH1 0x20 SHL PUSH1 0x20 SHR JUMP JUMPDEST PUSH2 0x3A PUSH1 0x20 SHL PUSH1 0x20 SHR JUMP JUMPDEST PUSH2 0xFE JUMP JUMPDEST PUSH1 0x0 CALLER SWAP1 POP SWAP1 JUMP JUMPDEST PUSH1 0x0 DUP1 PUSH1 0x0 SWAP1 SLOAD SWAP1 PUSH2 0x100 EXP SWAP1 DIV PUSH20 0xFFFFFFFFFFFFFFFFFFFFFFFFFFFFFFFFFFFFFFFF AND SWAP1 POP DUP2 PUSH1 0x0 DUP1 PUSH2 0x100 EXP DUP2 SLOAD DUP2 PUSH20 0xFFFFFFFFFFFFFFFFFFFFFFFFFFFFFFFFFFFFFFFF MUL NOT AND SWAP1 DUP4 PUSH20 0xFFFFFFFFFFFFFFFFFFFFFFFFFFFFFFFFFFFFFFFF AND MUL OR SWAP1 SSTORE POP DUP2 PUSH20 0xFFFFFFFFFFFFFFFFFFFFFFFFFFFFFFFFFFFFFFFF AND DUP2 PUSH20 0xFFFFFFFFFFFFFFFFFFFFFFFFFFFFFFFFFFFFFFFF AND PUSH32 0x8BE0079C531659141344CD1FD0A4F28419497F9722A3DAAFE3B4186F6B6457E0 PUSH1 0x40 MLOAD PUSH1 0x40 MLOAD DUP1 SWAP2 SUB SWAP1 LOG3 POP POP JUMP JUMPDEST PUSH2 0x939 DUP1 PUSH2 0x10D PUSH1 0x0 CODECOPY PUSH1 0x0 RETURN INVALID PUSH1 0x80 PUSH1 0x40 MSTORE PUSH1 0x4 CALLDATASIZE LT PUSH2 0x59 JUMPI PUSH1 0x0 CALLDATALOAD PUSH1 0xE0 SHR DUP1 PUSH4 0x3E5BEAB9 EQ PUSH2 0x65 JUMPI DUP1 PUSH4 0x715018A6 EQ PUSH2 0xA2 JUMPI DUP1 PUSH4 0x8DA5CB5B EQ PUSH2 0xB9 JUMPI DUP1 PUSH4 0xF274C897 EQ PUSH2 0xE4 JUMPI DUP1 PUSH4 0xF2FDE38B EQ PUSH2 0x10D JUMPI DUP1 PUSH4 0xF3C40C4B EQ PUSH2 0x136 JUMPI PUSH2 0x60 JUMP JUMPDEST CALLDATASIZE PUSH2 0x60 JUMPI STOP JUMPDEST PUSH1 0x0 DUP1 REVERT JUMPDEST CALLVALUE DUP1 ISZERO PUSH2 0x71 JUMPI PUSH1 0x0 DUP1 REVERT JUMPDEST POP PUSH2 0x8C PUSH1 0x4 DUP1 CALLDATASIZE SUB DUP2 ADD SWAP1 PUSH2 0x87 SWAP2 SWAP1 PUSH2 0x59D JUMP JUMPDEST PUSH2 0x15F JUMP JUMPDEST PUSH1 0x40 MLOAD PUSH2 0x99 SWAP2 SWAP1 PUSH2 0x740 JUMP JUMPDEST PUSH1 0x40 MLOAD DUP1 SWAP2 SUB SWAP1 RETURN JUMPDEST CALLVALUE DUP1 ISZERO PUSH2 0xAE JUMPI PUSH1 0x0 DUP1 REVERT JUMPDEST POP PUSH2 0xB7 PUSH2 0x177 JUMP JUMPDEST STOP JUMPDEST CALLVALUE DUP1 ISZERO PUSH2 0xC5 JUMPI PUSH1 0x0 DUP1 REVERT JUMPDEST POP PUSH2 0xCE PUSH2 0x18B JUMP JUMPDEST PUSH1 0x40 MLOAD PUSH2 0xDB SWAP2 SWAP1 PUSH2 0x6C5 JUMP JUMPDEST PUSH1 0x40 MLOAD DUP1 SWAP2 SUB SWAP1 RETURN JUMPDEST CALLVALUE DUP1 ISZERO PUSH2 0xF0 JUMPI PUSH1 0x0 DUP1 REVERT JUMPDEST POP PUSH2 0x10B PUSH1 0x4 DUP1 CALLDATASIZE SUB DUP2 ADD SWAP1 PUSH2 0x106 SWAP2 SWAP1 PUSH2 0x5C6 JUMP JUMPDEST PUSH2 0x1B4 JUMP JUMPDEST STOP JUMPDEST CALLVALUE DUP1 ISZERO PUSH2 0x119 JUMPI PUSH1 0x0 DUP1 REVERT JUMPDEST POP PUSH2 0x134 PUSH1 0x4 DUP1 CALLDATASIZE SUB DUP2 ADD SWAP1 PUSH2 0x12F SWAP2 SWAP1 PUSH2 0x59D JUMP JUMPDEST PUSH2 0x2A9 JUMP JUMPDEST STOP JUMPDEST CALLVALUE DUP1 ISZERO PUSH2 0x142 JUMPI PUSH1 0x0 DUP1 REVERT JUMPDEST POP PUSH2 0x15D PUSH1 0x4 DUP1 CALLDATASIZE SUB DUP2 ADD SWAP1 PUSH2 0x158 SWAP2 SWAP1 PUSH2 0x602 JUMP JUMPDEST PUSH2 0x32D JUMP JUMPDEST STOP JUMPDEST PUSH1 0x1 PUSH1 0x20 MSTORE DUP1 PUSH1 0x0 MSTORE PUSH1 0x40 PUSH1 0x0 KECCAK256 PUSH1 0x0 SWAP2 POP SWAP1 POP SLOAD DUP2 JUMP JUMPDEST PUSH2 0x17F PUSH2 0x37D JUMP JUMPDEST PUSH2 0x189 PUSH1 0x0 PUSH2 0x3FB JUMP JUMPDEST JUMP JUMPDEST PUSH1 0x0 DUP1 PUSH1 0x0 SWAP1 SLOAD SWAP1 PUSH2 0x100 EXP SWAP1 DIV PUSH20 0xFFFFFFFFFFFFFFFFFFFFFFFFFFFFFFFFFFFFFFFF AND SWAP1 POP SWAP1 JUMP JUMPDEST DUP1 PUSH2 0x1BD PUSH2 0x4BF JUMP JUMPDEST DUP1 PUSH2 0x207 JUMPI POP DUP1 PUSH1 0x1 PUSH1 0x0 CALLER PUSH20 0xFFFFFFFFFFFFFFFFFFFFFFFFFFFFFFFFFFFFFFFF AND PUSH20 0xFFFFFFFFFFFFFFFFFFFFFFFFFFFFFFFFFFFFFFFF AND DUP2 MSTORE PUSH1 0x20 ADD SWAP1 DUP2 MSTORE PUSH1 0x20 ADD PUSH1 0x0 KECCAK256 SLOAD LT ISZERO JUMPDEST PUSH2 0x246 JUMPI PUSH1 0x40 MLOAD PUSH32 0x8C379A000000000000000000000000000000000000000000000000000000000 DUP2 MSTORE PUSH1 0x4 ADD PUSH2 0x23D SWAP1 PUSH2 0x700 JUMP JUMPDEST PUSH1 0x40 MLOAD DUP1 SWAP2 SUB SWAP1 REVERT JUMPDEST PUSH2 0x24E PUSH2 0x4BF JUMP JUMPDEST PUSH2 0x25D JUMPI PUSH2 0x25C CALLER DUP4 PUSH2 0x4FC JUMP JUMPDEST JUMPDEST DUP3 PUSH20 0xFFFFFFFFFFFFFFFFFFFFFFFFFFFFFFFFFFFFFFFF AND PUSH2 0x8FC DUP4 SWAP1 DUP2 ISZERO MUL SWAP1 PUSH1 0x40 MLOAD PUSH1 0x0 PUSH1 0x40 MLOAD DUP1 DUP4 SUB DUP2 DUP6 DUP9 DUP9 CALL SWAP4 POP POP POP POP ISZERO DUP1 ISZERO PUSH2 0x2A3 JUMPI RETURNDATASIZE PUSH1 0x0 DUP1 RETURNDATACOPY RETURNDATASIZE PUSH1 0x0 REVERT JUMPDEST POP POP POP POP JUMP JUMPDEST PUSH2 0x2B1 PUSH2 0x37D JUMP JUMPDEST PUSH1 0x0 PUSH20 0xFFFFFFFFFFFFFFFFFFFFFFFFFFFFFFFFFFFFFFFF AND DUP2 PUSH20 0xFFFFFFFFFFFFFFFFFFFFFFFFFFFFFFFFFFFFFFFF AND EQ ISZERO PUSH2 0x321 JUMPI PUSH1 0x40 MLOAD PUSH32 0x8C379A000000000000000000000000000000000000000000000000000000000 DUP2 MSTORE PUSH1 0x4 ADD PUSH2 0x318 SWAP1 PUSH2 0x6E0 JUMP JUMPDEST PUSH1 0x40 MLOAD DUP1 SWAP2 SUB SWAP1 REVERT JUMPDEST PUSH2 0x32A DUP2 PUSH2 0x3FB JUMP JUMPDEST POP JUMP JUMPDEST PUSH2 0x335 PUSH2 0x37D JUMP JUMPDEST DUP1 PUSH1 0x1 PUSH1 0x0 DUP5 PUSH20 0xFFFFFFFFFFFFFFFFFFFFFFFFFFFFFFFFFFFFFFFF AND PUSH20 0xFFFFFFFFFFFFFFFFFFFFFFFFFFFFFFFFFFFFFFFF AND DUP2 MSTORE PUSH1 0x20 ADD SWAP1 DUP2 MSTORE PUSH1 0x20 ADD PUSH1 0x0 KECCAK256 DUP2 SWAP1 SSTORE POP POP POP JUMP JUMPDEST PUSH2 0x385 PUSH2 0x556 JUMP JUMPDEST PUSH20 0xFFFFFFFFFFFFFFFFFFFFFFFFFFFFFFFFFFFFFFFF AND PUSH2 0x3A3 PUSH2 0x18B JUMP JUMPDEST PUSH20 0xFFFFFFFFFFFFFFFFFFFFFFFFFFFFFFFFFFFFFFFF AND EQ PUSH2 0x3F9 JUMPI PUSH1 0x40 MLOAD PUSH32 0x8C379A000000000000000000000000000000000000000000000000000000000 DUP2 MSTORE PUSH1 0x4 ADD PUSH2 0x3F0 SWAP1 PUSH2 0x720 JUMP JUMPDEST PUSH1 0x40 MLOAD DUP1 SWAP2 SUB SWAP1 REVERT JUMPDEST JUMP JUMPDEST PUSH1 0x0 DUP1 PUSH1 0x0 SWAP1 SLOAD SWAP1 PUSH2 0x100 EXP SWAP1 DIV PUSH20 0xFFFFFFFFFFFFFFFFFFFFFFFFFFFFFFFFFFFFFFFF AND SWAP1 POP DUP2 PUSH1 0x0 DUP1 PUSH2 0x100 EXP DUP2 SLOAD DUP2 PUSH20 0xFFFFFFFFFFFFFFFFFFFFFFFFFFFFFFFFFFFFFFFF MUL NOT AND SWAP1 DUP4 PUSH20 0xFFFFFFFFFFFFFFFFFFFFFFFFFFFFFFFFFFFFFFFF AND MUL OR SWAP1 SSTORE POP DUP2 PUSH20 0xFFFFFFFFFFFFFFFFFFFFFFFFFFFFFFFFFFFFFFFF AND DUP2 PUSH20 0xFFFFFFFFFFFFFFFFFFFFFFFFFFFFFFFFFFFFFFFF AND PUSH32 0x8BE0079C531659141344CD1FD0A4F28419497F9722A3DAAFE3B4186F6B6457E0 PUSH1 0x40 MLOAD PUSH1 0x40 MLOAD DUP1 SWAP2 SUB SWAP1 LOG3 POP POP JUMP JUMPDEST PUSH1 0x0 CALLER PUSH20 0xFFFFFFFFFFFFFFFFFFFFFFFFFFFFFFFFFFFFFFFF AND PUSH2 0x4E0 PUSH2 0x18B JUMP JUMPDEST PUSH20 0xFFFFFFFFFFFFFFFFFFFFFFFFFFFFFFFFFFFFFFFF AND EQ SWAP1 POP SWAP1 JUMP JUMPDEST DUP1 PUSH1 0x1 PUSH1 0x0 DUP5 PUSH20 0xFFFFFFFFFFFFFFFFFFFFFFFFFFFFFFFFFFFFFFFF AND PUSH20 0xFFFFFFFFFFFFFFFFFFFFFFFFFFFFFFFFFFFFFFFF AND DUP2 MSTORE PUSH1 0x20 ADD SWAP1 DUP2 MSTORE PUSH1 0x20 ADD PUSH1 0x0 KECCAK256 PUSH1 0x0 DUP3 DUP3 SLOAD PUSH2 0x54B SWAP2 SWAP1 PUSH2 0x76C JUMP JUMPDEST SWAP3 POP POP DUP2 SWAP1 SSTORE POP POP POP JUMP JUMPDEST PUSH1 0x0 CALLER SWAP1 POP SWAP1 JUMP JUMPDEST PUSH1 0x0 DUP2 CALLDATALOAD SWAP1 POP PUSH2 0x56D DUP2 PUSH2 0x8BE JUMP JUMPDEST SWAP3 SWAP2 POP POP JUMP JUMPDEST PUSH1 0x0 DUP2 CALLDATALOAD SWAP1 POP PUSH2 0x582 DUP2 PUSH2 0x8D5 JUMP JUMPDEST SWAP3 SWAP2 POP POP JUMP JUMPDEST PUSH1 0x0 DUP2 CALLDATALOAD SWAP1 POP PUSH2 0x597 DUP2 PUSH2 0x8EC JUMP JUMPDEST SWAP3 SWAP2 POP POP JUMP JUMPDEST PUSH1 0x0 PUSH1 0x20 DUP3 DUP5 SUB SLT ISZERO PUSH2 0x5AF JUMPI PUSH1 0x0 DUP1 REVERT JUMPDEST PUSH1 0x0 PUSH2 0x5BD DUP5 DUP3 DUP6 ADD PUSH2 0x55E JUMP JUMPDEST SWAP2 POP POP SWAP3 SWAP2 POP POP JUMP JUMPDEST PUSH1 0x0 DUP1 PUSH1 0x40 DUP4 DUP6 SUB SLT ISZERO PUSH2 0x5D9 JUMPI PUSH1 0x0 DUP1 REVERT JUMPDEST PUSH1 0x0 PUSH2 0x5E7 DUP6 DUP3 DUP7 ADD PUSH2 0x573 JUMP JUMPDEST SWAP3 POP POP PUSH1 0x20 PUSH2 0x5F8 DUP6 DUP3 DUP7 ADD PUSH2 0x588 JUMP JUMPDEST SWAP2 POP POP SWAP3 POP SWAP3 SWAP1 POP JUMP JUMPDEST PUSH1 0x0 DUP1 PUSH1 0x40 DUP4 DUP6 SUB SLT ISZERO PUSH2 0x615 JUMPI PUSH1 0x0 DUP1 REVERT JUMPDEST PUSH1 0x0 PUSH2 0x623 DUP6 DUP3 DUP7 ADD PUSH2 0x55E JUMP JUMPDEST SWAP3 POP POP PUSH1 0x20 PUSH2 0x634 DUP6 DUP3 DUP7 ADD PUSH2 0x588 JUMP JUMPDEST SWAP2 POP POP SWAP3 POP SWAP3 SWAP1 POP JUMP JUMPDEST PUSH2 0x647 DUP2 PUSH2 0x7A0 JUMP JUMPDEST DUP3 MSTORE POP POP JUMP JUMPDEST PUSH1 0x0 PUSH2 0x65A PUSH1 0x26 DUP4 PUSH2 0x75B JUMP JUMPDEST SWAP2 POP PUSH2 0x665 DUP3 PUSH2 0x81D JUMP JUMPDEST PUSH1 0x40 DUP3 ADD SWAP1 POP SWAP2 SWAP1 POP JUMP JUMPDEST PUSH1 0x0 PUSH2 0x67D PUSH1 0x14 DUP4 PUSH2 0x75B JUMP JUMPDEST SWAP2 POP PUSH2 0x688 DUP3 PUSH2 0x86C JUMP JUMPDEST PUSH1 0x20 DUP3 ADD SWAP1 POP SWAP2 SWAP1 POP JUMP JUMPDEST PUSH1 0x0 PUSH2 0x6A0 PUSH1 0x20 DUP4 PUSH2 0x75B JUMP JUMPDEST SWAP2 POP PUSH2 0x6AB DUP3 PUSH2 0x895 JUMP JUMPDEST PUSH1 0x20 DUP3 ADD SWAP1 POP SWAP2 SWAP1 POP JUMP JUMPDEST PUSH2 0x6BF DUP2 PUSH2 0x7E4 JUMP JUMPDEST DUP3 MSTORE POP POP JUMP JUMPDEST PUSH1 0x0 PUSH1 0x20 DUP3 ADD SWAP1 POP PUSH2 0x6DA PUSH1 0x0 DUP4 ADD DUP5 PUSH2 0x63E JUMP JUMPDEST SWAP3 SWAP2 POP POP JUMP JUMPDEST PUSH1 0x0 PUSH1 0x20 DUP3 ADD SWAP1 POP DUP2 DUP2 SUB PUSH1 0x0 DUP4 ADD MSTORE PUSH2 0x6F9 DUP2 PUSH2 0x64D JUMP JUMPDEST SWAP1 POP SWAP2 SWAP1 POP JUMP JUMPDEST PUSH1 0x0 PUSH1 0x20 DUP3 ADD SWAP1 POP DUP2 DUP2 SUB PUSH1 0x0 DUP4 ADD MSTORE PUSH2 0x719 DUP2 PUSH2 0x670 JUMP JUMPDEST SWAP1 POP SWAP2 SWAP1 POP JUMP JUMPDEST PUSH1 0x0 PUSH1 0x20 DUP3 ADD SWAP1 POP DUP2 DUP2 SUB PUSH1 0x0 DUP4 ADD MSTORE PUSH2 0x739 DUP2 PUSH2 0x693 JUMP JUMPDEST SWAP1 POP SWAP2 SWAP1 POP JUMP JUMPDEST PUSH1 0x0 PUSH1 0x20 DUP3 ADD SWAP1 POP PUSH2 0x755 PUSH1 0x0 DUP4 ADD DUP5 PUSH2 0x6B6 JUMP JUMPDEST SWAP3 SWAP2 POP POP JUMP JUMPDEST PUSH1 0x0 DUP3 DUP3 MSTORE PUSH1 0x20 DUP3 ADD SWAP1 POP SWAP3 SWAP2 POP POP JUMP JUMPDEST PUSH1 0x0 PUSH2 0x777 DUP3 PUSH2 0x7E4 JUMP JUMPDEST SWAP2 POP PUSH2 0x782 DUP4 PUSH2 0x7E4 JUMP JUMPDEST SWAP3 POP DUP3 DUP3 LT ISZERO PUSH2 0x795 JUMPI PUSH2 0x794 PUSH2 0x7EE JUMP JUMPDEST JUMPDEST DUP3 DUP3 SUB SWAP1 POP SWAP3 SWAP2 POP POP JUMP JUMPDEST PUSH1 0x0 PUSH2 0x7AB DUP3 PUSH2 0x7C4 JUMP JUMPDEST SWAP1 POP SWAP2 SWAP1 POP JUMP JUMPDEST PUSH1 0x0 PUSH2 0x7BD DUP3 PUSH2 0x7C4 JUMP JUMPDEST SWAP1 POP SWAP2 SWAP1 POP JUMP JUMPDEST PUSH1 0x0 PUSH20 0xFFFFFFFFFFFFFFFFFFFFFFFFFFFFFFFFFFFFFFFF DUP3 AND SWAP1 POP SWAP2 SWAP1 POP JUMP JUMPDEST PUSH1 0x0 DUP2 SWAP1 POP SWAP2 SWAP1 POP JUMP JUMPDEST PUSH32 0x4E487B7100000000000000000000000000000000000000000000000000000000 PUSH1 0x0 MSTORE PUSH1 0x11 PUSH1 0x4 MSTORE PUSH1 0x24 PUSH1 0x0 REVERT JUMPDEST PUSH32 0x4F776E61626C653A206E6577206F776E657220697320746865207A65726F2061 PUSH1 0x0 DUP3 ADD MSTORE PUSH32 0x6464726573730000000000000000000000000000000000000000000000000000 PUSH1 0x20 DUP3 ADD MSTORE POP JUMP JUMPDEST PUSH32 0x596F7520617265206E6F7420616C6C6F7765642E000000000000000000000000 PUSH1 0x0 DUP3 ADD MSTORE POP JUMP JUMPDEST PUSH32 0x4F776E61626C653A2063616C6C6572206973206E6F7420746865206F776E6572 PUSH1 0x0 DUP3 ADD MSTORE POP JUMP JUMPDEST PUSH2 0x8C7 DUP2 PUSH2 0x7A0 JUMP JUMPDEST DUP2 EQ PUSH2 0x8D2 JUMPI PUSH1 0x0 DUP1 REVERT JUMPDEST POP JUMP JUMPDEST PUSH2 0x8DE DUP2 PUSH2 0x7B2 JUMP JUMPDEST DUP2 EQ PUSH2 0x8E9 JUMPI PUSH1 0x0 DUP1 REVERT JUMPDEST POP JUMP JUMPDEST PUSH2 0x8F5 DUP2 PUSH2 0x7E4 JUMP JUMPDEST DUP2 EQ PUSH2 0x900 JUMPI PUSH1 0x0 DUP1 REVERT JUMPDEST POP JUMP INVALID LOG2 PUSH5 0x6970667358 0x22 SLT KECCAK256 PUSH27 0xB02652977327FCAAF45D479DE9821A41F37F100CCD3D04D00FB86E 0x21 EXTCODECOPY 0xEA 0x27 PUSH5 0x736F6C6343 STOP ADDMOD ADD STOP CALLER "
				},
				"gasEstimates": {
					"creation": {
						"codeDepositCost": "472200",
						"executionCost": "infinite",
						"totalCost": "infinite"
					},
					"external": {
						"addAllowance(address,uint256)": "21784",
						"allowance(address)": "1492",
						"owner()": "1244",
						"renounceOwnership()": "24398",
						"transferOwnership(address)": "24813",
						"withdrawMoney(address,uint256)": "infinite"
					},
					"internal": {
						"isOwner()": "911",
						"reduceAllowance(address,uint256)": "infinite"
					}
				},
				"methodIdentifiers": {
					"addAllowance(address,uint256)": "f3c40c4b",
					"allowance(address)": "3e5beab9",
					"owner()": "8da5cb5b",
					"renounceOwnership()": "715018a6",
					"transferOwnership(address)": "f2fde38b",
					"withdrawMoney(address,uint256)": "f274c897"
				}
			},
			"storageLayout": {
				"storage": [
					{
						"astId": 110,
						"contract": "SharedWallet.sol:SharedWallet",
						"label": "_owner",
						"offset": 0,
						"slot": "0",
						"type": "t_address"
					},
					{
						"astId": 20,
						"contract": "SharedWallet.sol:SharedWallet",
						"label": "allowance",
						"offset": 0,
						"slot": "1",
						"type": "t_mapping(t_address,t_uint256)"
					}
				],
				"types": {
					"t_address": {
						"encoding": "inplace",
						"label": "address",
						"numberOfBytes": "20"
					},
					"t_mapping(t_address,t_uint256)": {
						"encoding": "mapping",
						"key": "t_address",
						"label": "mapping(address => uint256)",
						"numberOfBytes": "32",
						"value": "t_uint256"
					},
					"t_uint256": {
						"encoding": "inplace",
						"label": "uint256",
						"numberOfBytes": "32"
					}
				}
			},
			"userdoc": {
				"kind": "user",
				"methods": {},
				"version": 1
			}
		}
	}
}