{
	"SharedWallet.sol": {
		"SharedWallet": {
			"abi": [
				{
					"inputs": [],
					"stateMutability": "nonpayable",
					"type": "constructor"
				},
				{
					"inputs": [
						{
							"internalType": "address payable",
							"name": "_to",
							"type": "address"
						},
						{
							"internalType": "uint256",
							"name": "_amount",
							"type": "uint256"
						}
					],
					"name": "withdrawMoney",
					"outputs": [],
					"stateMutability": "nonpayable",
					"type": "function"
				},
				{
					"stateMutability": "payable",
					"type": "receive"
				}
			],
			"devdoc": {
				"kind": "dev",
				"methods": {},
				"version": 1
			},
			"evm": {
				"assembly": "    /* \"SharedWallet.sol\":163:529  contract SharedWallet {... */\n  mstore(0x40, 0x80)\n    /* \"SharedWallet.sol\":212:261  constructor() {... */\n  callvalue\n  dup1\n  iszero\n  tag_1\n  jumpi\n  0x00\n  dup1\n  revert\ntag_1:\n  pop\n    /* \"SharedWallet.sol\":244:254  msg.sender */\n  caller\n    /* \"SharedWallet.sol\":236:241  owner */\n  0x00\n  dup1\n    /* \"SharedWallet.sol\":236:254  owner = msg.sender */\n  0x0100\n  exp\n  dup2\n  sload\n  dup2\n  0xffffffffffffffffffffffffffffffffffffffff\n  mul\n  not\n  and\n  swap1\n  dup4\n  0xffffffffffffffffffffffffffffffffffffffff\n  and\n  mul\n  or\n  swap1\n  sstore\n  pop\n    /* \"SharedWallet.sol\":163:529  contract SharedWallet {... */\n  dataSize(sub_0)\n  dup1\n  dataOffset(sub_0)\n  0x00\n  codecopy\n  0x00\n  return\nstop\n\nsub_0: assembly {\n        /* \"SharedWallet.sol\":163:529  contract SharedWallet {... */\n      mstore(0x40, 0x80)\n      jumpi(tag_1, lt(calldatasize, 0x04))\n      shr(0xe0, calldataload(0x00))\n      dup1\n      0xf274c897\n      eq\n      tag_3\n      jumpi\n      jump(tag_2)\n    tag_1:\n      jumpi(tag_2, calldatasize)\n      stop\n    tag_2:\n      0x00\n      dup1\n      revert\n        /* \"SharedWallet.sol\":373:486  function withdrawMoney(address payable _to, uint _amount) public onlyOwner {... */\n    tag_3:\n      callvalue\n      dup1\n      iszero\n      tag_6\n      jumpi\n      0x00\n      dup1\n      revert\n    tag_6:\n      pop\n      tag_7\n      0x04\n      dup1\n      calldatasize\n      sub\n      dup2\n      add\n      swap1\n      tag_8\n      swap2\n      swap1\n      tag_9\n      jump\t// in\n    tag_8:\n      tag_10\n      jump\t// in\n    tag_7:\n      stop\n    tag_10:\n        /* \"SharedWallet.sol\":320:325  owner */\n      0x00\n      dup1\n      sload\n      swap1\n      0x0100\n      exp\n      swap1\n      div\n      0xffffffffffffffffffffffffffffffffffffffff\n      and\n        /* \"SharedWallet.sol\":306:325  msg.sender == owner */\n      0xffffffffffffffffffffffffffffffffffffffff\n      and\n        /* \"SharedWallet.sol\":306:316  msg.sender */\n      caller\n        /* \"SharedWallet.sol\":306:325  msg.sender == owner */\n      0xffffffffffffffffffffffffffffffffffffffff\n      and\n      eq\n        /* \"SharedWallet.sol\":298:349  require(msg.sender == owner, \"You are not allowed\") */\n      tag_12\n      jumpi\n      mload(0x40)\n      0x08c379a000000000000000000000000000000000000000000000000000000000\n      dup2\n      mstore\n      0x04\n      add\n      tag_13\n      swap1\n      tag_14\n      jump\t// in\n    tag_13:\n      mload(0x40)\n      dup1\n      swap2\n      sub\n      swap1\n      revert\n    tag_12:\n        /* \"SharedWallet.sol\":458:461  _to */\n      dup2\n        /* \"SharedWallet.sol\":458:470  _to.transfer */\n      0xffffffffffffffffffffffffffffffffffffffff\n      and\n        /* \"SharedWallet.sol\":458:479  _to.transfer(_amount) */\n      0x08fc\n        /* \"SharedWallet.sol\":471:478  _amount */\n      dup3\n        /* \"SharedWallet.sol\":458:479  _to.transfer(_amount) */\n      swap1\n      dup2\n      iszero\n      mul\n      swap1\n      mload(0x40)\n      0x00\n      mload(0x40)\n      dup1\n      dup4\n      sub\n      dup2\n      dup6\n      dup9\n      dup9\n      call\n      swap4\n      pop\n      pop\n      pop\n      pop\n      iszero\n      dup1\n      iszero\n      tag_17\n      jumpi\n      returndatasize\n      0x00\n      dup1\n      returndatacopy\n      revert(0x00, returndatasize)\n    tag_17:\n      pop\n        /* \"SharedWallet.sol\":373:486  function withdrawMoney(address payable _to, uint _amount) public onlyOwner {... */\n      pop\n      pop\n      jump\t// out\n        /* \"#utility.yul\":7:162   */\n    tag_19:\n      0x00\n        /* \"#utility.yul\":99:105   */\n      dup2\n        /* \"#utility.yul\":86:106   */\n      calldataload\n        /* \"#utility.yul\":77:106   */\n      swap1\n      pop\n        /* \"#utility.yul\":115:156   */\n      tag_21\n        /* \"#utility.yul\":150:155   */\n      dup2\n        /* \"#utility.yul\":115:156   */\n      tag_22\n      jump\t// in\n    tag_21:\n        /* \"#utility.yul\":67:162   */\n      swap3\n      swap2\n      pop\n      pop\n      jump\t// out\n        /* \"#utility.yul\":168:307   */\n    tag_23:\n      0x00\n        /* \"#utility.yul\":252:258   */\n      dup2\n        /* \"#utility.yul\":239:259   */\n      calldataload\n        /* \"#utility.yul\":230:259   */\n      swap1\n      pop\n        /* \"#utility.yul\":268:301   */\n      tag_25\n        /* \"#utility.yul\":295:300   */\n      dup2\n        /* \"#utility.yul\":268:301   */\n      tag_26\n      jump\t// in\n    tag_25:\n        /* \"#utility.yul\":220:307   */\n      swap3\n      swap2\n      pop\n      pop\n      jump\t// out\n        /* \"#utility.yul\":313:736   */\n    tag_9:\n      0x00\n      dup1\n        /* \"#utility.yul\":446:448   */\n      0x40\n        /* \"#utility.yul\":434:443   */\n      dup4\n        /* \"#utility.yul\":425:432   */\n      dup6\n        /* \"#utility.yul\":421:444   */\n      sub\n        /* \"#utility.yul\":417:449   */\n      slt\n        /* \"#utility.yul\":414:416   */\n      iszero\n      tag_28\n      jumpi\n        /* \"#utility.yul\":462:463   */\n      0x00\n        /* \"#utility.yul\":459:460   */\n      dup1\n        /* \"#utility.yul\":452:464   */\n      revert\n        /* \"#utility.yul\":414:416   */\n    tag_28:\n        /* \"#utility.yul\":505:506   */\n      0x00\n        /* \"#utility.yul\":530:591   */\n      tag_29\n        /* \"#utility.yul\":583:590   */\n      dup6\n        /* \"#utility.yul\":574:580   */\n      dup3\n        /* \"#utility.yul\":563:572   */\n      dup7\n        /* \"#utility.yul\":559:581   */\n      add\n        /* \"#utility.yul\":530:591   */\n      tag_19\n      jump\t// in\n    tag_29:\n        /* \"#utility.yul\":520:591   */\n      swap3\n      pop\n        /* \"#utility.yul\":476:601   */\n      pop\n        /* \"#utility.yul\":640:642   */\n      0x20\n        /* \"#utility.yul\":666:719   */\n      tag_30\n        /* \"#utility.yul\":711:718   */\n      dup6\n        /* \"#utility.yul\":702:708   */\n      dup3\n        /* \"#utility.yul\":691:700   */\n      dup7\n        /* \"#utility.yul\":687:709   */\n      add\n        /* \"#utility.yul\":666:719   */\n      tag_23\n      jump\t// in\n    tag_30:\n        /* \"#utility.yul\":656:719   */\n      swap2\n      pop\n        /* \"#utility.yul\":611:729   */\n      pop\n        /* \"#utility.yul\":404:736   */\n      swap3\n      pop\n      swap3\n      swap1\n      pop\n      jump\t// out\n        /* \"#utility.yul\":742:1108   */\n    tag_31:\n      0x00\n        /* \"#utility.yul\":905:972   */\n      tag_33\n        /* \"#utility.yul\":969:971   */\n      0x13\n        /* \"#utility.yul\":964:967   */\n      dup4\n        /* \"#utility.yul\":905:972   */\n      tag_34\n      jump\t// in\n    tag_33:\n        /* \"#utility.yul\":898:972   */\n      swap2\n      pop\n        /* \"#utility.yul\":981:1074   */\n      tag_35\n        /* \"#utility.yul\":1070:1073   */\n      dup3\n        /* \"#utility.yul\":981:1074   */\n      tag_36\n      jump\t// in\n    tag_35:\n        /* \"#utility.yul\":1099:1101   */\n      0x20\n        /* \"#utility.yul\":1094:1097   */\n      dup3\n        /* \"#utility.yul\":1090:1102   */\n      add\n        /* \"#utility.yul\":1083:1102   */\n      swap1\n      pop\n        /* \"#utility.yul\":888:1108   */\n      swap2\n      swap1\n      pop\n      jump\t// out\n        /* \"#utility.yul\":1114:1533   */\n    tag_14:\n      0x00\n        /* \"#utility.yul\":1318:1320   */\n      0x20\n        /* \"#utility.yul\":1307:1316   */\n      dup3\n        /* \"#utility.yul\":1303:1321   */\n      add\n        /* \"#utility.yul\":1295:1321   */\n      swap1\n      pop\n        /* \"#utility.yul\":1367:1376   */\n      dup2\n        /* \"#utility.yul\":1361:1365   */\n      dup2\n        /* \"#utility.yul\":1357:1377   */\n      sub\n        /* \"#utility.yul\":1353:1354   */\n      0x00\n        /* \"#utility.yul\":1342:1351   */\n      dup4\n        /* \"#utility.yul\":1338:1355   */\n      add\n        /* \"#utility.yul\":1331:1378   */\n      mstore\n        /* \"#utility.yul\":1395:1526   */\n      tag_38\n        /* \"#utility.yul\":1521:1525   */\n      dup2\n        /* \"#utility.yul\":1395:1526   */\n      tag_31\n      jump\t// in\n    tag_38:\n        /* \"#utility.yul\":1387:1526   */\n      swap1\n      pop\n        /* \"#utility.yul\":1285:1533   */\n      swap2\n      swap1\n      pop\n      jump\t// out\n        /* \"#utility.yul\":1539:1708   */\n    tag_34:\n      0x00\n        /* \"#utility.yul\":1657:1663   */\n      dup3\n        /* \"#utility.yul\":1652:1655   */\n      dup3\n        /* \"#utility.yul\":1645:1664   */\n      mstore\n        /* \"#utility.yul\":1697:1701   */\n      0x20\n        /* \"#utility.yul\":1692:1695   */\n      dup3\n        /* \"#utility.yul\":1688:1702   */\n      add\n        /* \"#utility.yul\":1673:1702   */\n      swap1\n      pop\n        /* \"#utility.yul\":1635:1708   */\n      swap3\n      swap2\n      pop\n      pop\n      jump\t// out\n        /* \"#utility.yul\":1714:1818   */\n    tag_40:\n      0x00\n        /* \"#utility.yul\":1788:1812   */\n      tag_42\n        /* \"#utility.yul\":1806:1811   */\n      dup3\n        /* \"#utility.yul\":1788:1812   */\n      tag_43\n      jump\t// in\n    tag_42:\n        /* \"#utility.yul\":1777:1812   */\n      swap1\n      pop\n        /* \"#utility.yul\":1767:1818   */\n      swap2\n      swap1\n      pop\n      jump\t// out\n        /* \"#utility.yul\":1824:1950   */\n    tag_43:\n      0x00\n        /* \"#utility.yul\":1901:1943   */\n      0xffffffffffffffffffffffffffffffffffffffff\n        /* \"#utility.yul\":1894:1899   */\n      dup3\n        /* \"#utility.yul\":1890:1944   */\n      and\n        /* \"#utility.yul\":1879:1944   */\n      swap1\n      pop\n        /* \"#utility.yul\":1869:1950   */\n      swap2\n      swap1\n      pop\n      jump\t// out\n        /* \"#utility.yul\":1956:2033   */\n    tag_45:\n      0x00\n        /* \"#utility.yul\":2022:2027   */\n      dup2\n        /* \"#utility.yul\":2011:2027   */\n      swap1\n      pop\n        /* \"#utility.yul\":2001:2033   */\n      swap2\n      swap1\n      pop\n      jump\t// out\n        /* \"#utility.yul\":2039:2208   */\n    tag_36:\n        /* \"#utility.yul\":2179:2200   */\n      0x596f7520617265206e6f7420616c6c6f77656400000000000000000000000000\n        /* \"#utility.yul\":2175:2176   */\n      0x00\n        /* \"#utility.yul\":2167:2173   */\n      dup3\n        /* \"#utility.yul\":2163:2177   */\n      add\n        /* \"#utility.yul\":2156:2201   */\n      mstore\n        /* \"#utility.yul\":2145:2208   */\n      pop\n      jump\t// out\n        /* \"#utility.yul\":2214:2352   */\n    tag_22:\n        /* \"#utility.yul\":2295:2327   */\n      tag_49\n        /* \"#utility.yul\":2321:2326   */\n      dup2\n        /* \"#utility.yul\":2295:2327   */\n      tag_40\n      jump\t// in\n    tag_49:\n        /* \"#utility.yul\":2288:2293   */\n      dup2\n        /* \"#utility.yul\":2285:2328   */\n      eq\n        /* \"#utility.yul\":2275:2277   */\n      tag_50\n      jumpi\n        /* \"#utility.yul\":2342:2343   */\n      0x00\n        /* \"#utility.yul\":2339:2340   */\n      dup1\n        /* \"#utility.yul\":2332:2344   */\n      revert\n        /* \"#utility.yul\":2275:2277   */\n    tag_50:\n        /* \"#utility.yul\":2265:2352   */\n      pop\n      jump\t// out\n        /* \"#utility.yul\":2358:2480   */\n    tag_26:\n        /* \"#utility.yul\":2431:2455   */\n      tag_52\n        /* \"#utility.yul\":2449:2454   */\n      dup2\n        /* \"#utility.yul\":2431:2455   */\n      tag_45\n      jump\t// in\n    tag_52:\n        /* \"#utility.yul\":2424:2429   */\n      dup2\n        /* \"#utility.yul\":2421:2456   */\n      eq\n        /* \"#utility.yul\":2411:2413   */\n      tag_53\n      jumpi\n        /* \"#utility.yul\":2470:2471   */\n      0x00\n        /* \"#utility.yul\":2467:2468   */\n      dup1\n        /* \"#utility.yul\":2460:2472   */\n      revert\n        /* \"#utility.yul\":2411:2413   */\n    tag_53:\n        /* \"#utility.yul\":2401:2480   */\n      pop\n      jump\t// out\n\n    auxdata: 0xa26469706673582212206c10f439869cb72d5e40e5e281bcabff2fbe67ca963fbc8b60c6b41eaa0594e564736f6c63430008010033\n}\n",
				"bytecode": {
					"linkReferences": {},
					"object": "608060405234801561001057600080fd5b50336000806101000a81548173ffffffffffffffffffffffffffffffffffffffff021916908373ffffffffffffffffffffffffffffffffffffffff1602179055506102b3806100606000396000f3fe6080604052600436106100225760003560e01c8063f274c8971461002e57610029565b3661002957005b600080fd5b34801561003a57600080fd5b506100556004803603810190610050919061015a565b610057565b005b60008054906101000a900473ffffffffffffffffffffffffffffffffffffffff1673ffffffffffffffffffffffffffffffffffffffff163373ffffffffffffffffffffffffffffffffffffffff16146100e5576040517f08c379a00000000000000000000000000000000000000000000000000000000081526004016100dc906101b9565b60405180910390fd5b8173ffffffffffffffffffffffffffffffffffffffff166108fc829081150290604051600060405180830381858888f1935050505015801561012b573d6000803e3d6000fd5b505050565b60008135905061013f8161024f565b92915050565b60008135905061015481610266565b92915050565b6000806040838503121561016d57600080fd5b600061017b85828601610130565b925050602061018c85828601610145565b9150509250929050565b60006101a36013836101d9565b91506101ae82610226565b602082019050919050565b600060208201905081810360008301526101d281610196565b9050919050565b600082825260208201905092915050565b60006101f5826101fc565b9050919050565b600073ffffffffffffffffffffffffffffffffffffffff82169050919050565b6000819050919050565b7f596f7520617265206e6f7420616c6c6f77656400000000000000000000000000600082015250565b610258816101ea565b811461026357600080fd5b50565b61026f8161021c565b811461027a57600080fd5b5056fea26469706673582212206c10f439869cb72d5e40e5e281bcabff2fbe67ca963fbc8b60c6b41eaa0594e564736f6c63430008010033",
					"opcodes": "PUSH1 0x80 PUSH1 0x40 MSTORE CALLVALUE DUP1 ISZERO PUSH2 0x10 JUMPI PUSH1 0x0 DUP1 REVERT JUMPDEST POP CALLER PUSH1 0x0 DUP1 PUSH2 0x100 EXP DUP2 SLOAD DUP2 PUSH20 0xFFFFFFFFFFFFFFFFFFFFFFFFFFFFFFFFFFFFFFFF MUL NOT AND SWAP1 DUP4 PUSH20 0xFFFFFFFFFFFFFFFFFFFFFFFFFFFFFFFFFFFFFFFF AND MUL OR SWAP1 SSTORE POP PUSH2 0x2B3 DUP1 PUSH2 0x60 PUSH1 0x0 CODECOPY PUSH1 0x0 RETURN INVALID PUSH1 0x80 PUSH1 0x40 MSTORE PUSH1 0x4 CALLDATASIZE LT PUSH2 0x22 JUMPI PUSH1 0x0 CALLDATALOAD PUSH1 0xE0 SHR DUP1 PUSH4 0xF274C897 EQ PUSH2 0x2E JUMPI PUSH2 0x29 JUMP JUMPDEST CALLDATASIZE PUSH2 0x29 JUMPI STOP JUMPDEST PUSH1 0x0 DUP1 REVERT JUMPDEST CALLVALUE DUP1 ISZERO PUSH2 0x3A JUMPI PUSH1 0x0 DUP1 REVERT JUMPDEST POP PUSH2 0x55 PUSH1 0x4 DUP1 CALLDATASIZE SUB DUP2 ADD SWAP1 PUSH2 0x50 SWAP2 SWAP1 PUSH2 0x15A JUMP JUMPDEST PUSH2 0x57 JUMP JUMPDEST STOP JUMPDEST PUSH1 0x0 DUP1 SLOAD SWAP1 PUSH2 0x100 EXP SWAP1 DIV PUSH20 0xFFFFFFFFFFFFFFFFFFFFFFFFFFFFFFFFFFFFFFFF AND PUSH20 0xFFFFFFFFFFFFFFFFFFFFFFFFFFFFFFFFFFFFFFFF AND CALLER PUSH20 0xFFFFFFFFFFFFFFFFFFFFFFFFFFFFFFFFFFFFFFFF AND EQ PUSH2 0xE5 JUMPI PUSH1 0x40 MLOAD PUSH32 0x8C379A000000000000000000000000000000000000000000000000000000000 DUP2 MSTORE PUSH1 0x4 ADD PUSH2 0xDC SWAP1 PUSH2 0x1B9 JUMP JUMPDEST PUSH1 0x40 MLOAD DUP1 SWAP2 SUB SWAP1 REVERT JUMPDEST DUP2 PUSH20 0xFFFFFFFFFFFFFFFFFFFFFFFFFFFFFFFFFFFFFFFF AND PUSH2 0x8FC DUP3 SWAP1 DUP2 ISZERO MUL SWAP1 PUSH1 0x40 MLOAD PUSH1 0x0 PUSH1 0x40 MLOAD DUP1 DUP4 SUB DUP2 DUP6 DUP9 DUP9 CALL SWAP4 POP POP POP POP ISZERO DUP1 ISZERO PUSH2 0x12B JUMPI RETURNDATASIZE PUSH1 0x0 DUP1 RETURNDATACOPY RETURNDATASIZE PUSH1 0x0 REVERT JUMPDEST POP POP POP JUMP JUMPDEST PUSH1 0x0 DUP2 CALLDATALOAD SWAP1 POP PUSH2 0x13F DUP2 PUSH2 0x24F JUMP JUMPDEST SWAP3 SWAP2 POP POP JUMP JUMPDEST PUSH1 0x0 DUP2 CALLDATALOAD SWAP1 POP PUSH2 0x154 DUP2 PUSH2 0x266 JUMP JUMPDEST SWAP3 SWAP2 POP POP JUMP JUMPDEST PUSH1 0x0 DUP1 PUSH1 0x40 DUP4 DUP6 SUB SLT ISZERO PUSH2 0x16D JUMPI PUSH1 0x0 DUP1 REVERT JUMPDEST PUSH1 0x0 PUSH2 0x17B DUP6 DUP3 DUP7 ADD PUSH2 0x130 JUMP JUMPDEST SWAP3 POP POP PUSH1 0x20 PUSH2 0x18C DUP6 DUP3 DUP7 ADD PUSH2 0x145 JUMP JUMPDEST SWAP2 POP POP SWAP3 POP SWAP3 SWAP1 POP JUMP JUMPDEST PUSH1 0x0 PUSH2 0x1A3 PUSH1 0x13 DUP4 PUSH2 0x1D9 JUMP JUMPDEST SWAP2 POP PUSH2 0x1AE DUP3 PUSH2 0x226 JUMP JUMPDEST PUSH1 0x20 DUP3 ADD SWAP1 POP SWAP2 SWAP1 POP JUMP JUMPDEST PUSH1 0x0 PUSH1 0x20 DUP3 ADD SWAP1 POP DUP2 DUP2 SUB PUSH1 0x0 DUP4 ADD MSTORE PUSH2 0x1D2 DUP2 PUSH2 0x196 JUMP JUMPDEST SWAP1 POP SWAP2 SWAP1 POP JUMP JUMPDEST PUSH1 0x0 DUP3 DUP3 MSTORE PUSH1 0x20 DUP3 ADD SWAP1 POP SWAP3 SWAP2 POP POP JUMP JUMPDEST PUSH1 0x0 PUSH2 0x1F5 DUP3 PUSH2 0x1FC JUMP JUMPDEST SWAP1 POP SWAP2 SWAP1 POP JUMP JUMPDEST PUSH1 0x0 PUSH20 0xFFFFFFFFFFFFFFFFFFFFFFFFFFFFFFFFFFFFFFFF DUP3 AND SWAP1 POP SWAP2 SWAP1 POP JUMP JUMPDEST PUSH1 0x0 DUP2 SWAP1 POP SWAP2 SWAP1 POP JUMP JUMPDEST PUSH32 0x596F7520617265206E6F7420616C6C6F77656400000000000000000000000000 PUSH1 0x0 DUP3 ADD MSTORE POP JUMP JUMPDEST PUSH2 0x258 DUP2 PUSH2 0x1EA JUMP JUMPDEST DUP2 EQ PUSH2 0x263 JUMPI PUSH1 0x0 DUP1 REVERT JUMPDEST POP JUMP JUMPDEST PUSH2 0x26F DUP2 PUSH2 0x21C JUMP JUMPDEST DUP2 EQ PUSH2 0x27A JUMPI PUSH1 0x0 DUP1 REVERT JUMPDEST POP JUMP INVALID LOG2 PUSH5 0x6970667358 0x22 SLT KECCAK256 PUSH13 0x10F439869CB72D5E40E5E281BC 0xAB SELFDESTRUCT 0x2F 0xBE PUSH8 0xCA963FBC8B60C6B4 0x1E 0xAA SDIV SWAP5 0xE5 PUSH5 0x736F6C6343 STOP ADDMOD ADD STOP CALLER "
				},
				"gasEstimates": {
					"creation": {
						"codeDepositCost": "138200",
						"executionCost": "21049",
						"totalCost": "159249"
					},
					"external": {
						"withdrawMoney(address,uint256)": "infinite"
					}
				},
				"methodIdentifiers": {
					"withdrawMoney(address,uint256)": "f274c897"
				}
			},
			"storageLayout": {
				"storage": [
					{
						"astId": 4,
						"contract": "SharedWallet.sol:SharedWallet",
						"label": "owner",
						"offset": 0,
						"slot": "0",
						"type": "t_address"
					}
				],
				"types": {
					"t_address": {
						"encoding": "inplace",
						"label": "address",
						"numberOfBytes": "20"
					}
				}
			},
			"userdoc": {
				"kind": "user",
				"methods": {},
				"version": 1
			}
		}
	}
}